:020000040800F2
:1000000038070020C1010008DF360008653000080D
:10001000DD36000895070008853F00080000000055
:10002000000000000000000000000000A9380008E7
:100030000D0E000800000000E1360008AB38000893
:10004000DB010008DB010008DB010008DB01000820
:10005000DB010008DB010008DB010008DB01000810
:10006000DB010008DB010008DB010008DB01000800
:10007000DB010008DB010008DB010008DB010008F0
:10008000790D0008DB010008DB010008DB01000836
:10009000DB010008DB010008DB010008DB010008D0
:1000A000DB010008DB010008DB010008DB010008C0
:1000B000DB0100085D390008DB010008DB010008F6
:1000C000DB010008DB010008DB010008DB010008A0
:1000D000DB010008DB010008DB010008793F0008B4
:1000E0000F0E0008DB010008DB010008DB0100083F
:1000F000DB010008DB010008DB010008850D0008BA
:10010000DB010008DB010008DB010008E536000820
:10011000DB010008DB010008DB010008DB0100084F
:10012000DB010008DB010008DB010008DB0100083F
:10013000DB010008DB010008DB010008DB0100082F
:10014000DB010008DB010008DB010008DB0100081F
:10015000DB010008DB010008DB010008DB0100080F
:10016000DB010008DB010008DB010008DB010008FF
:10017000DB010008DB010008DB01000800000000D3
:10018000DB010008DB010008DB010008DB010008DF
:10019000DB010008DB010008DB010008DB010008CF
:1001A000DB010008DB010008DB010008DFF80CD0F0
:1001B00000F0CCFA00480047E94800083807002062
:1001C0000648804706480047FEE7FEE7FEE7FEE7F1
:1001D000FEE7FEE7FEE7FEE7FEE7FEE74D39000833
:1001E000AD0100082DE9F05F0546002092469B46D0
:1001F00088460646814640241BE02846414647463D
:10020000224600F0EFF853465A46C01A914110D3E7
:1002100011461846224600F0D6F82D1A67EB010861
:100220004F4622460120002100F0CDF817EB0009CF
:100230004E41201EA4F10104DFDC484631462A4627
:100240004346BDE8F09FD2B201E000F8012B491E01
:10025000FBD270470022F6E710B513460A46044663
:100260001946FFF7F0FF204610BD2DE9FE4F81EA49
:10027000030404F0004421F0004100944FF0000B0F
:1002800023F0004350EA01045ED052EA03045BD03D
:10029000C3F30A54C1F30A552C44A4F2F334019475
:1002A000A0FB0254C1F3130141F48011C3F3130303
:1002B00043F4801301FB024400FB034E840A970AB7
:1002C00044EA815447EA8357A4FB076802958D0AE4
:1002D00005FB07854FEA932C04FB0C542705029D70
:1002E0004FEA065847EA1637B5EB08056EEB070CE0
:1002F000870E920E47EA811742EA8312A7FB02019A
:10030000B6EB0B0164EB00042B0D43EA0C335E18D3
:1003100044EB1C50DA465146E7FB0201C5F31304D7
:100320004FEA0B3343EA14534FEA0432019C43EA89
:100330000603A4F10C040294009CCDE900B400F083
:1003400070F803B0BDE8F08F00200146F9E70EB564
:1003500040F2334102910021CDE900110A460B46DB
:1003600000F05FF803B000BDC1F30A5210B5C1F34D
:10037000130140F2FF3341F480119A4201DA002068
:1003800010BD40F233439A42A2F2334203DC5242A0
:1003900000F028F810BD904010BD30B50B46014666
:1003A00000202022012409E021FA02F59D4205D314
:1003B00003FA02F5491B04FA02F52844151EA2F1BE
:1003C0000102F1DC30BD202A04DB203A00FA02F100
:1003D000002070479140C2F1200320FA03F3194333
:1003E00090407047202A04DB203A21FA02F00021D5
:1003F000704721FA02F3D040C2F120029140084335
:100400001946704710B5141E73F1000408DA401C39
:1004100041F1000192185B411A4301D120F0010023
:1004200010BD2DE9F04D92469B4611B1B1FA81F213
:1004300002E0B0FA80F220329046FFF7C4FF044693
:100440000F4640EA0A0041EA0B0153465A46084368
:1004500013D0114653EA010019D0C8F140025046AA
:10046000FFF7C0FF05460E46504659464246FFF785
:10047000AAFF084305D0012004E020463946BDE824
:10048000F08D0020054346EAE0762C4337430A9876
:100490006305E40AA0EB08000022FD0A44EA475481
:1004A0000A3002D500200146E9E70105101969412B
:1004B000DDE9084500196941BDE8F04DA2E72DE9E5
:1004C000FE4F804681EA0300C00F0C46009021F0E9
:1004D000004123F00045B8EB0200A94105D2404697
:1004E000214690461C460B46024623F0004010432E
:1004F00047D0270DC7F30A00C3F30A510290401AF0
:10050000019040286BDAC3F3130040F4801B00987D
:10051000924620B10023D2EB030A63EB0B0B019848
:100520005946C0F140025046FFF74DFF06460D46C2
:1005300050465946019A00F01BF910EB0800614142
:10054000002487EA115284EAE7731A4340D0009AE4
:1005500062B3019A012A4FEA075215DC001B61EBD6
:1005600002014FF0004202EA0752CDE90042001CAE
:1005700041F5801132462B46FFF753FF03B0BDE82B
:10058000F08F40462146F9E7001B61EB0201001C99
:1005900041F5801300185B412018A2F5001747EBC6
:1005A000030140EAD570B6196D4111E06D084FEABC
:1005B000360645EAC0754FEA0752001B61EB02019F
:1005C000001C41F5801149084FEA300000195141E3
:1005D00032462B4603B0BDE8F04FFFF713BF00983B
:1005E000012240000023D0EB020263EBE07300988D
:1005F00021464FEAE074B8EB000061EB0401E9E743
:1006000083F000435BE781F0004158E72DE9F04DAE
:1006100081EA030404F0004B21F0004514464FF03A
:10062000000A23F0004150EA050220D054EA0102FA
:100630001DD0C5F30A570246C5F31303C1F31300D7
:10064000C1F30A5640F4801543F48013A7EB060863
:10065000101BD64608F2FD3873EB050002D308F1F3
:10066000010801E092185B41B8F1000F03DA0020A5
:100670000146BDE8F08D00204FF480110646844607
:100680000EE0171B73EB050705D3121B63EB050385
:1006900006434CEA010C49084FEA300092185B41CE
:1006A00050EA0107EDD152EA030012D082EA0400B9
:1006B00083EA0501084305D0101BAB4106D2012295
:1006C000002306E000224FF0004302E06FF0010239
:1006D00053101AEB06004CEB085110EB0A0041EBEB
:1006E0000B01BDE8F04DFFF78DBEC1F30A52C1F317
:1006F000130140F2FF3341F480119A4202DA0020E4
:100700000146704740F233439A42A2F2334202DC80
:100710005242FFF767BEFFF756BE000030B5041E19
:1007200071F1000404DB4FF00044404264EB01012E
:10073000141E73F1000405DB1C464FF000435242C7
:1007400063EB0403994208BF904230BD064C074D4D
:1007500006E0E06840F0010394E807009847103491
:10076000AC42F6D3FFF726FDF8490008184A000806
:10077000202A06DBCB17203A41FA02F043EAE07365
:1007800006E041FA02F3D040C2F120029140084352
:1007900019467047FEE700002DE9F0412DED028B70
:1007A0008CB00C46002103910491059105460691F9
:1007B0000791089109910A9102F056FC00287CD01B
:1007C00002F0D0FC002878D003AA2321202002F0D8
:1007D0000DFD04AA2721242002F008FD05AA03210B
:1007E000002002F003FD06AA0721042002F0FEFC0F
:1007F00007AA0B21082002F0F9FC08AA13211020F7
:1008000002F0F4FC09AA1721142002F0EFFC0AAA56
:100810001B21182002F0EAFC0421602002F0CAFC2F
:100820000121702002F0C6FC4FF47A669FED3A0B6E
:100830009FED3B1B70009FED3C8B6FF00708012D77
:1008400001D095B15EE0A4F5A071B1F52A7F02D880
:10085000B0FBF4F018E000212A2002F0ABFCE52107
:10086000292002F0A7FC832149E002968DED001BB0
:1008700053EC102B2EA003F087FBA4F1A000B0F5E1
:10088000207F30D8B6FBF4F0C6B23046FFF75FFDEC
:1008900053EC182BFFF7E9FCFFF766FDC2B25408D2
:1008A000101B401EC7B2B01AC5B2CDE90075234671
:1008B0003146244803F068FB00E028E008EBC7005D
:1008C00040F0C000641E2043C4B26D1EE8B240F088
:1008D000800500212A2002F06DFC2146292002F02B
:1008E00069FC29460BE018A003F04EFB00212A20EA
:1008F00002F060FCC921292002F05CFC8221282042
:1009000002F058FC02F043FC002800D001200CB09B
:10091000BDEC028BBDE8F0818DEDB5A0F7C6903E31
:10092000FCA9F1D24D62503F000000000000E83FFA
:10093000252E394C660D0A252E336C660D0A25646A
:100940000D0A0000984900086F7574206F662072C8
:10095000616E6765203A2064656661756C74203548
:100960003030206B6270732028726573657420626A
:1009700065747765656E203136307E3830302920D9
:100980000D0A00002DE9F0470E4601F00701C6F3FD
:10099000C1691C46154649EA411790B0C6F3C743E2
:1009A000C6F3C722C6F3C70118B1012841D08AA0F7
:1009B00009E18DF820108DF821708DF82230014664
:1009C0008DF823208BA003F0DFFA31468EA003F0D0
:1009D000DBFA9DF8201090A003F0D6FA9DF82110C4
:1009E00090A003F0D1FA9DF8221091A003F0CCFA68
:1009F0009DF8231091A000BF03F0C6FA052D78D80A
:100A000004F00707C4F3C166083679014FF0000A05
:100A10004FF4006CC4F3C700C4F3C743C4F3C72248
:100A200046EA4716062D2BD2DFE805F01C4A586728
:100A3000787F8DF81C108DF81D708DF81E308DF8A4
:100A40001F2081A003F0A0FA9DF81D1081A003F0E3
:100A50009BFA9DF81E1082A003F096FA9DF81F10D5
:100A600082A0C9E764458DF814000AD309F1080093
:100A700040EA47108DF815008DF816308DF81720D4
:100A800060E08DF8151051467BA003F07DFA2146F9
:100A90007EA003F079FA9DF8141081A003F074FA97
:100AA0009DF8151081A003F06FFA9DF8161082A032
:100AB00003F06AFA9DF8171082A003F065FA41E08E
:100AC00064458DF8240006D38DF825608DF8263016
:100AD0008DF8272036E08DF8251033E064458DF839
:100AE0000C0007D38DF80D608DF80E308DF80F20B7
:100AF00028E067E08DF80D1024E0644509D300BFBD
:100B00008DF818008DF819608DF81A308DF81B20BB
:100B100018E08DF818008DF8191013E06445EFD235
:100B20008DF838008DF839100CE064458DF82800F8
:100B300006D38DF829608DF82A308DF82B2001E03E
:100B40008DF8291002F090FA002838D002F00AFB44
:100B5000002834D008AA2321202002F047FB07AA4E
:100B60002721242002F042FB05AA0321002002F0E5
:100B70003DFB09AA0721042002F038FB03AA0B2140
:100B8000082002F033FB06AA1321102002F02EFBEE
:100B90000EAA1721142002F029FB0AAA1B211820F3
:100BA00002F024FB9DB1012D11D029465FF07000A9
:100BB00002F000FB02F0EBFA002800D0012010B098
:100BC000BDE8F08742A003F0DFF90020F7E72D1D14
:100BD000E9B26020ECE700006F7574206F66207248
:100BE000616E6765203A206D61736B4E756D62654D
:100BF000720D0A004D61736B4E756D626572203A1D
:100C00002025640D0A0000004D61736B4944203AB1
:100C100020307825780D0A004D305349444820256E
:100C2000780D0A004D305349444C2025780D0A00B8
:100C30004D30454944382025780D0A004D3045494E
:100C400044302025780D0A004D3153494448202571
:100C5000780D0A004D315349444C2025780D0A0087
:100C60004D31454944382025780D0A004D3145491C
:100C700044302025780D0A0066696C7465724E75E3
:100C80006D626572203A2025640D0A0066696C74F5
:100C900065724944203A20307825780D0A0000001A
:100CA0004630534944482025780D0A0046305349C0
:100CB000444C2025780D0A0046304549443820250B
:100CC000780D0A004630454944302025780D0A0049
:100CD0006F7574206F662072616E6765203A2066BA
:100CE000696C7465724E756D6265720D0A00000064
:100CF00070B52049002504460D704D708D70CD7083
:100D000002F006FA01461B4804F109060838017092
:100D1000006841070CD42178164A606803F0BDFDD5
:100D2000227A33461349402002F0B4F981201CE0B6
:100D3000C1060CD421780F4A606803F0AEFD227A18
:100D400033460C49422002F0A5F982200DE040060E
:100D50000ED42178074A606803F09FFD227A33465B
:100D60000449442002F096F9842002F0E7F90125B5
:100D7000284670BD08000020014800F0B1B800000E
:100D800034020020014800F0ABB8000094020020BB
:100D900001681823CAB2103AB2FBF3F2054B6FF3A5
:100DA0000901032A9B5CC36500D9091D81650846BA
:100DB000704700007849000810B5014600208B6993
:100DC0008A6A4FF0C07453B1B3F5005F15D072B1A9
:100DD000012A0CD0022A0AD0032A09D104E01AB150
:100DE000012A06D0022A03D1C96AC90100D501200F
:100DF00010BDC96AA142FAD010BD002AF7D0012A5D
:100E0000F2D0022AF3D0032AF3D010BD704710B5F8
:100E10004FF4806000F0EEF9BDE810404FF4005050
:100E200000F0E8B972B6FEE72DE9F0410446876D9F
:100E300000F018FB064694F835000025022806D07D
:100E40008020606584F834500120BDE8F08120687E
:100E5000016821F0160101602068416921F08001DC
:100E60004161206C08B9A06C20B12068016821F0B4
:100E7000080101602068016821F0010101600CE0B7
:100E800000F0F0FA801B052807D9202060650320B8
:100E900084F8350084F83450D7E720680068C0072C
:100EA000EED194F85C103F208840B860012084F8AF
:100EB000350084F834500020C7E790F83510022937
:100EC00003D08021416501207047052180F835104D
:100ED0000068016821F001010160002070470000F6
:100EE0002DE9F84304464FF00009CDF8009063481F
:100EF0004FF41651A56D0068B0FBF1F72E6894F819
:100F00005C10082000FA01F131420FD021680A6814
:100F100052070BD50A6822F004020A6094F85C10AC
:100F20008840A860606D40F00100606594F85C1036
:100F30004FF0010808FA01F0304208D021684969F1
:100F4000090604D5A860606D40F00200606594F861
:100F50005C1004208840304208D021680968890765
:100F600004D5A860606D40F00400606594F85C10E2
:100F700010208840304218D021680968090714D52C
:100F8000A86020680168490304D50068000308D5FB
:100F9000A16C07E00168C90503D4016821F00801CC
:100FA0000160216C09B12046884794F85C1020202C
:100FB0008840304231D021680968C9062DD5A86023
:100FC00094F8350005282068016806D0490347D504
:100FD000006800031DD4616C1CE021F01601016063
:100FE0002068416921F080014161206C08B9A06C42
:100FF00020B12068016821F00801016094F85C10BC
:101000003F208840A86084F8358084F83490216DB2
:101010001FE0E16B09B120468847606D00282BD0A6
:10102000606DC00714D0052084F835002068016881
:1010300021F0010101600098401C0090B84203D8E3
:1010400020680068C007F6D184F8358084F83490B1
:10105000E16C002910D001B02046BDE8F0430847FC
:101060000168C905D5D4016821F01001016084F838
:10107000358084F83490CCE7BDE8F8832C0000205C
:101080002DE9F041044600F0EDF906465CB102207E
:1010900084F83500002584F834502068016821F078
:1010A000010101600DE00120BDE8F08100F0DAF9F6
:1010B000801B052805D920206065032084F83500B1
:1010C000F2E720680068C007F0D122681168204864
:1010D0000140D4E901031843D4E9033633431843EC
:1010E00063691843A3691843E3691843236A1843E3
:1010F0000843616A042903D1D4E90B131943084357
:10110000106020684069666A20F0070130460E438F
:10111000012704280CD1A06A0643E06A40B12046AA
:10112000FFF74AFE20B14020606584F83570BAE7C9
:10113000206846612046FFF72BFE94F85C203F2193
:1011400091408160656584F835700020ACE700004F
:101150003F8010F070B5044600F084F90546601C2D
:1011600002D004480078044400F07CF9401BA042FF
:10117000FAD370BD2000002070B54FF48065A842FE
:1011800022D100F06FF9114C6168401A642811D91E
:101190000FA113A002F0F8FE8021134800F055F9CA
:1011A0002068124A00F10801401C117420601046AA
:1011B000FFF79EFD0E4E2946304600F041F900280B
:1011C000F9D000F04FF9606070BD00000C00002005
:1011D00050494E5F31302050726573736564000072
:1011E00025730D0A000000000004024030000020BA
:1011F000000C0240044910B50A68024202D008609F
:10120000FFF7BAFF10BD0000143C01402DE9F84F74
:10121000DFF8F8A1002201240AF1040B03254FF0A6
:101220000F090BF1040E00BF0B6804FA02F63340FD
:10123000B34270D10F7907F00307012F01D0022FBD
:1012400016D187684FEA420805FA08FC27EA0C071E
:10125000D1F80CC00CFA08FC4CEA070CC0F808C026
:101260004768B7430E79C6F3001696403E43466082
:101270000E79F643B6070AD0C7684FEA420C05FA62
:101280000CF6B7438E6806FA0CF63E43C6600E793C
:1012900006F00306022E10D1D60800EB8608D8F817
:1012A000206057074FEAD76C09FA0CF7BE430F6965
:1012B00007FA0CF73743C8F8207006684FEA420C6B
:1012C00005FA0CF7BE430F7907F0030707FA0CF78E
:1012D000374307604E6816F4403F1CD04C4E3768C9
:1012E00047F480473760366822F0030706F48046EB
:1012F0000096484E07EB060CDCF8086897073F0F8E
:1013000009FA07F826EA0806DFF80C81404503D100
:101310004FF0000841E072E0DFF80081404502D163
:101320004FF0010839E0DFF8F880404502D14FF076
:10133000020832E0DFF8EC80404502D14FF00308AC
:101340002BE0DFF8E480404502D14FF0040824E0B0
:10135000DFF8D880404502D14FF005081DE0DFF8E6
:10136000D080404502D14FF0060816E0DFF8C48077
:10137000404502D14FF007080FE0DFF8BC80404540
:1013800002D14FF0080808E0DFF8B080404502D1F4
:101390004FF0090801E04FF00A0808FA07F848EA98
:1013A0000608CCF80888DAF800605746D1F804C07F
:1013B0009E435FEACC3C00D51E433E60DBF80060F4
:1013C0005F46D1F804C09E435FEA8C3C00D51E43C3
:1013D0003E60DEF800607746D1F804C09E435FEAC5
:1013E000CC2C00D51E433E60084F0C373E68D1F828
:1013F00004C09E435FEA8C2C00D51E433E60521C05
:10140000102AFFF411AFBDE8F88F0000003C014046
:101410004438024000300140000002400004024015
:1014200000080240000C024000100240001402407C
:1014300000180240001C024000200240002402402C
:101440000069084000D001207047426921EA020388
:101450000A4043EA0241816170470AB181617047E5
:101460000904FBE701488068704700002000002065
:1014700090F83D20202A01D002207047242280F8D5
:101480003D200268136823F0010313600268536A69
:1014900023F0100353620268536A0B4353620168DE
:1014A0000A6842F001020A60202180F83D10002005
:1014B000704790F83D20202A01D002207047242256
:1014C00080F83D200268136823F00103136003686D
:1014D0005A6A22F00F020A4391B2596201680A68FF
:1014E00042F001020A60202180F83D100020704780
:1014F00070B5040025D094F83D00002520B984F88B
:101500003C50204600F0B8F8242084F83D002068C4
:10151000016821F0010101602068016841F4004187
:1015200001602068016821F40041016000F046FA82
:101530004D4A6168914201D84C4900E04C498842CB
:1015400001D2012070BD4B492368B0FBF1F15E6808
:1015500026F03F060E435E606368934206D94FF45F
:10156000967359434FF47A73B1FBF3F12368491C26
:101570001E6A26F03F06314319626168914210D815
:101580004900401EB0FBF1F2521CC2F30B02042AC8
:1015900001D2042022E0B0FBF1F0401CC0F30B00AC
:1015A0001CE0A268F2B301EBC10303EB0116431E7A
:1015B000B3FBF6F35B1C43F480431B0549D092B3A5
:1015C00001EBC10202EB0111401EB0FBF1F0401C27
:1015D000C0F30B0040F4804040F400402168CA6929
:1015E0004CF6FF739A431043C861D4E907100143D6
:1015F0002068026822F0C00211430160D4E90301AF
:1016000001432068826848F2FF339A4311438160A6
:10161000D4E9050108432168CA6822F0FF0210439B
:10162000C86001E00EE016E02068016841F00101A9
:1016300001602564202084F83D00256384F83E5035
:10164000002070BD01EB4106431EB3FBF6F35B1CAB
:10165000B3E70120C2E701EB4101401EB0FBF1F00E
:10166000401CC0F30B00B7E7A086010080841E0079
:1016700000093D0040420F0010B586B00446142119
:101680006846FEF7E7FD14492068884221D11348D7
:101690000021026842F002020260006800F00200CD
:1016A00005904FF4407000901220CDE90101032015
:1016B00003900420049069460948FFF7A7FD0748F6
:1016C0001030016841F400110160006800F400105E
:1016D000059006B010BD00000054004030380240B4
:1016E000000402400248816802781144816070471A
:1016F000200000200B4810B5016841F40071016022
:10170000016841F480610160016841F48071016009
:10171000032000F06FF8002000F006F800F024F835
:10172000002010BD003C024070B50D4D04464FF442
:101730007A712878B1FBF0F00A490968B1FBF0F042
:1017400000F0D1FE48B9102C07D200222146501ECD
:1017500000F030F800206C6070BD012070BD00000A
:10176000200000202C0000200A4808B5016841F440
:1017700080410160006800F4804000900548001F2F
:10178000016841F080510160006800F080500090D5
:1017900008BD000044380240002809DB00F01F02A9
:1017A000012191404009800000F1E020C0F80011C3
:1017B00070470000F0B40E4B1B680C46C3F30223C5
:1017C000C3F10705042D00D90425191D072901D2ED
:1017D000002300E0DB1E012606FA05F1491E214028
:1017E00099409E40761E16403143F0BC02F0DCBBAF
:1017F0000CED00E0064900F0070208684FF6FF0311
:10180000184040EA0220034A104308607047000075
:101810000CED00E00000FA052DE9F84317480168D7
:1018200041F0805101600068154F00F080500126A2
:1018300000903E64FFF716FE05464FF47A78114C8F
:1018400005E000BFFFF70EFE401B40450DD8606865
:10185000C003F7D57E64FFF705FE0546464607E060
:10186000FFF700FE401BB04202D90320BDE8F88319
:1018700060688003F4D50020F8E70000403802409B
:1018800000000E42007000402DE9F0470E460500B2
:1018900065D0DFF81481D8F80000F7B200F00F002F
:1018A000B04207D288F80070D8F8000000F00F00AE
:1018B000B04254D128683D4C810712D5400703D56A
:1018C000206840F4E05020602878000703D52068A5
:1018D00040F4604020602068A96820F0F0000843D0
:1018E00020602878C0072DD0304968680839012861
:1018F00012D0022813D0032811D0096889070029C3
:101900002DDA216821F0030101432160FFF7AAFDD0
:10191000814641F2883A0EE009688903EFE70968D9
:101920008901ECE7FFF79EFDA0EB0901514502D9C3
:101930000320BDE8F0872068696800F00C00B0EB78
:10194000810FEFD1D8F80010404601F00F01B142ED
:1019500007D90770006800F00F00B04201D00120E5
:10196000E7E72878400705D52068E96820F4E050CB
:10197000084320602878000706D52068296920F4EC
:10198000604040EAC100206000F038F82168084A51
:10199000C1F30311515CC84006490860064800685D
:1019A000FFF7C2FE0020C4E7003C024008380240B6
:1019B000804900082C00002024000020044805492C
:1019C00000680968044AC1F38221515CC84070472D
:1019D0002C000020083802409049000804480549BE
:1019E00000680968044AC1F34231515CC84070473D
:1019F0002C0000200838024090490008154810B516
:101A0000006810F00C02144813D04110042A0FD0C3
:101A1000082A0ED10F4C241F2268236802F03F02CF
:101A20005B0207D52068C0F38810A0FB010106E027
:101A3000084610BD2168C1F38811A1FB00010023F5
:101A4000FEF7D0FB2168C1F30141491C4900B0FBFE
:101A5000F1F010BD083802400024F4002DE9F84FE1
:101A600004006ED02078DFF84C93C007A9F104057C
:101A70004AD009F104000168C1F38101012908D0AD
:101A80000068C0F3810002280AD1D9F800004002A2
:101A900006D52868800337D560680028E1D033E098
:101AA0006068B0F5803F10D0B0F5A02F286810D046
:101AB00020F480302860286820F480202860606846
:101AC000A8B1FFF7CFFC06460DE0286840F480304F
:101AD000F4E740F480202860F7E700BFFFF7C2FC7E
:101AE000801B642873D828688003F7D50CE0FFF7C3
:101AF000B9FC064605E000BFFFF7B4FC801B642874
:101B0000F0D828688003F7D42078DFF8AC8280070B
:101B10004FF0000A3ED5A748001D016811F00C0FD8
:101B200008D00068C0F3810002280BD1D9F800006A
:101B3000400207D42868800716D5E068012800D144
:101B400012E033E1E068B8B10120C8F80000FFF707
:101B500089FC064605E000BFFFF784FC801B0228D5
:101B6000C0D828688007F7D52868216920F0F800D8
:101B700040EAC10028600DE0C8F800A0FFF772FC41
:101B8000064604E0FFF76EFC801B02281FD8286879
:101B90008007F7D42078000722D5864F87486169EF
:101BA000703771B101210160FFF75CFC064604E06B
:101BB000FFF758FC801B022809D838688007F7D542
:101BC0000EE0C0F800A0FFF74DFC064605E082E0FD
:101BD000FFF748FC801B02287DD838688007F7D4BF
:101BE0002078400768D5DFF8CCB100270BF13C0B1B
:101BF000DBF80000C0000BD4DBF8001041F080518E
:101C0000CBF80010DBF80000012700F080500090B6
:101C10006B4E3068C00510D4306840F4807030607E
:101C2000FFF720FC009005E0FFF71CFC0099401A2C
:101C3000022850D83068C005F6D55E4EA0686C36D4
:101C400001280FD00528306810D020F00100306046
:101C5000306820F004003060A068B8B1FFF702FCE3
:101C600000900FE0306840F00100F4E740F004001D
:101C70003060F7E7FFF7F6FB0099411A41F2883030
:101C8000814266D830688007F4D50EE0FFF7EAFBA2
:101C9000009007E0FFF7E6FB0099411A41F2883017
:101CA000814256D830688007F4D42FB1DBF8001099
:101CB00021F08051CBF80010A069C8B33D49091D3F
:101CC0000968C1F3810102294AD00228504607D091
:101CD000C8F8600000E03CE0FFF7C4FB04463BE0CE
:101CE0004746C8F86000FFF7BDFB064605E000BFA9
:101CF000FFF7B8FB801B02282BD828688001F7D497
:101D0000D4E907010843A16A2E4A490802EB0141C0
:101D1000626A41EA8211084394F82C1040EA01619A
:101D2000C9F8001001203866FFF79CFB044606E066
:101D30003EE000BFFFF796FB001B022809D8286889
:101D40008001F7D534E000BFFFF78CFB001B0228B1
:101D500002D90320BDE8F88F28688001F4D427E079
:101D60000128F7D0D9F80000E26900F4800191421F
:101D70001CD1226A00F03F01914217D147F6C07191
:101D8000626A0140B1EB821F10D1A26A4FF0FF33AB
:101D900000F4403103EB5202B1EB024F06D194F84C
:101DA0002C1000F07060B0EB016F01D00120D1E782
:101DB0000020CFE70438024000004742800E47422F
:101DC000007000400000FFFF704790F8510070471E
:101DD00038B5016804464A688868C043430606D59A
:101DE000C30704D1D3435B0601D4216C05E083070C
:101DF00008D4D3431B0605D4616C01B02046BDE86E
:101E000030400847830603D5430601D5C30551D4A6
:101E1000D3439B064ED443060AD494F85130032B87
:101E200049D0636D43F004036365CB688B6800930E
:101E3000830609D4636D43F0010363658B680093E7
:101E40000B6823F040030B60C00506D4606D40F0C2
:101E500008006065206880680090606D002829D0C7
:101E60002068416821F0E0014160012084F85100C0
:101E7000900701D4D00722D02068416821F00301E7
:101E80004160114DE06C40B10565E06CFFF715F85D
:101E900018B1606D40F040006065A06C002809D06A
:101EA0000565A06CFFF709F8002803D0606D40F0CD
:101EB0004000606538BDC8688868009038BD20461D
:101EC000FFF782FF38BD0000F136000870B504004E
:101ED00009D0606A002540B125616561A56294F86A
:101EE000510040B10CE0012070BD6068B0F5827F08
:101EF000F4D0E561F2E784F85050204600F044F851
:101F0000022084F851002068016821F0400101603E
:101F1000A088218900F4827001F404410843A1895A
:101F200001F400610843217C01F002010843217D96
:101F300001F001010843218B01F400710843217F66
:101F400001F03801084394F8201001F080010843A3
:101F5000218D01F40051084321680860A069042123
:101F600001EA104094F8241001F0100108432168A0
:101F700048602068C16921F40061C1616565012084
:101F800084F85100002070BD70B586B0044614215D
:101F90006846FEF75FF92748254E25680024254945
:101FA000103802220323B5421BD10D6845F4804549
:101FB0000D60096801F480410591016841F002015A
:101FC00001600068694600F002000590B0008DE8ED
:101FD00015000520CDE903301748FFF717F906B0C3
:101FE00070BD164EB542FAD10D6845F400450D603E
:101FF000096801F400410591016841F004010160A4
:102000000068694600F0040005904FF4E0508DE848
:1020100015000620CDE903300948FFF7F7F8002244
:1020200011463320FFF7C6FB3320FFF7B5FBD6E799
:10203000003800404038024000040240003C0040AC
:10204000000802402DE9F84F0446406800259846F4
:1020500016460F464FF0040BB0F5827F01D1A06801
:1020600088B194F85000012818D0012084F850005D
:10207000FFF7F8F9814694F851004FF0000A012863
:102080000ED0022582E084F851B013460A4620465D
:10209000CDF8008000F036F9BDE8F88F0220FBE7AC
:1020A000002F72D0002E70D084F851B0C4F854A024
:1020B000A763A687E687C4F830A0A4F834A0A4F8E4
:1020C00036A0C4F840A0C4F844A0A068B0F5004F02
:1020D00009D12068016821F0400101602068016891
:1020E00021F48041016020680168490603D4016839
:1020F00041F040010160E068D8B139E020688168B2
:10210000C90709D0007BA16B0870A06B401CA063BD
:10211000E08F401EE0870CE0FFF7A4F9A0EB090177
:10212000414503D3B8F1FF3F03D036E0B8F1000FCB
:1021300033D0E08F0028E1D11DE020688168C90715
:1021400009D0C068A16B0880A06B801CA063E08FE1
:10215000401EE0870CE0FFF785F9A0EB090141453F
:1021600003D3B8F1FF3F03D017E0B8F1000F14D04C
:10217000E08F0028E1D14A464146204601F0C0FAEE
:1021800008B120206065606D00B10125012084F850
:10219000510084F850A028467EE70325F6E72DE994
:1021A000F84F044690F8500000271D461646894611
:1021B00001280DD04FF0010B84F850B0FFF752F911
:1021C000804694F85100BA46012804D0022793E0D3
:1021D0000220BDE8F88FB9F1000F73D0002E71D046
:1021E000032084F85100C4F854A0C4F83090A686A7
:1021F000E686C4F838A0A4F83CA0A4F83EA0C4F831
:1022000044A0C4F840A0A068B0F5004F09D12068F0
:10221000016821F0400101602068016841F48041BB
:10222000016020680168490603D4016841F040015B
:102230000160E068B0F5006F606803D030B3012E34
:1022400024D041E008B1012E1CD1206B2168008808
:10225000C86006E020688168890709D5216B098874
:10226000C160206B801C2063E08E401EE08609E088
:10227000FFF7F8F8A0EB0800A84202D3681C01D0D1
:1022800031E07DB3E08E0028E4D120E0206B2168AE
:102290000078087306E020688168890709D5216BFA
:1022A00009780173206B401C2063E08E401EE0869D
:1022B0000AE0FFF7D7F8A0EB0800A84203D3681C98
:1022C00002D010E017E06DB1E08E0028E3D1424665
:1022D0002946204601F042FA08B120206065A06836
:1022E00018B106E0FFE7032706E02068C1688068B0
:1022F0000090606D00B1012784F851B084F850A0BF
:10230000384666E72DE9F84F044690F8500000275C
:102310000A9E1D4692468B464FF0010901280ED0B9
:10232000012084F85000FFF79DF8804694F8510092
:10233000616801280CD0B1F5827F07D102E002204C
:10234000BDE8F88FA16809B9042801D00227C2E0CE
:10235000BBF1000F27D0BAF1000F24D01DB394F8C1
:102360005100042802D0052084F851000020606547
:10237000C4F838A0E587A587C4F830B0E586A586FF
:102380002064606420680168490603D4016841F054
:1023900040010160E068B0F5006F606805D0E8B307
:1023A000012D46D07FE0012795E008B1012D39D1FC
:1023B000206B21680088C860206B801C2063E08E41
:1023C000401EE0862EE02068816889070FD5E18EE7
:1023D00069B1B9F1010F0AD1216B0988C160206B85
:1023E000801C2063E08E401EE0864FF000092068CC
:1023F0008168C9070CD0E18F51B1C068A16B08801A
:10240000A06B801CA063E08F401EE0874FF00109A5
:10241000FFF728F8A0EB0800B04200E009E001D384
:10242000701C50D1E08E0028CDD1E08F0028CAD199
:102430003FE0206B216800780873206B401C20630C
:10244000E08E401EE0862EE02068816889070FD567
:10245000E18E69B1B9F1010F0AD1216B09780173DD
:10246000206B401C2063E08E401EE0864FF0000988
:1024700020688168C9070CD0E18F51B1C068A16B99
:102480000870A06B401CA063E08F401EE0874FF0F7
:102490000109FEF7E7FFA0EB0800B04202D3701C71
:1024A00001D010E07EB1E08E0028CDD1E08F002871
:1024B000CAD142463146204601F050F928B10127E1
:1024C0002020606507E0032705E0A06818B92068B0
:1024D000C16880680090012084F85100002084F8D1
:1024E000500038462CE710B5401EB0F1807F01D374
:1024F000012010BD4FF0E02460610F21601701F052
:1025000053FD0020A06107202061002010BD70470E
:102510007047000070B590F83C20012A32D00124A9
:1025200080F83C40022280F83D2003685A689D688C
:1025300022F070060A6832435A60134B02689A42CE
:1025400014D0B2F1804F11D0104B9A420ED0104BE4
:102550009A420BD00F4B9A4208D00F4B9A4205D0AB
:102560000E4B9A4202D00E4B9A4204D1496825F094
:1025700080031943916080F83D40002180F83C10B1
:10258000084670BD022070BD0000014000040040FC
:1025900000080040000C00400004014000400140E1
:1025A0000018004010B5040003D094F83D0010B1AD
:1025B00007E0012010BD002084F83C00204600F018
:1025C0001FF8022084F83D00211D206801F0CCF99D
:1025D000012084F8460084F83E0084F83F0084F827
:1025E000400084F8410084F8420084F8430084F8F5
:1025F000440084F8450084F83D00002010BD000030
:102600002DE9F04786B0064614216846FDF722FE04
:102610003B4A31683B48002491425AD1016841F05D
:1026200002010160006800F0020005903548103892
:10263000016841F0040101600068694600F004008F
:1026400005904FF4C07000900220CDE90104CDE95F
:1026500003402D48FEF7DAFD2D4D2C484FF0206742
:102660002860C5E9017405F10C014FF480684FF44E
:1026700000694FF4005A81E81007EC612C6228468B
:102680006C62FEF7FDFC08B1FEF7CCFBB562AE63F1
:102690001F4D1E48603530302860C5E9017405F1D2
:1026A0000C01284681E81007EC612C626C62FEF791
:1026B000E7FC08B1FEF7B6FBF562002211461D20CB
:1026C000AE63FFF777F81D20FFF766F806B0BDE8A8
:1026D000F087104A914207D1016841F0040101607E
:1026E000006800F0040009E00B4A9142EED1016855
:1026F00041F020010160006800F020000590E5E74E
:102700000004004040380240000802408860024057
:1027100034020020000800400014004070B5044658
:1027200090F83C000025012817D0012684F83C6071
:10273000022084F83D002068826822F0770222F4AB
:102740007F4282600868502838D00DDC20284FD0A6
:1027500005DC90B3102811D14AE0022070BD30286A
:1027600046D040280AD13BE060282FD070280DD0F9
:10277000B0F5805F03D0B0F5005F12D0012584F87A
:102780003D60002084F83C00284670BDCB68D1E94C
:102790000121206801F04CF92068816841F077013F
:1027A00009E0CB68D1E90121206801F041F92068F6
:1027B000816841F480418160E1E719E0CA684968B5
:1027C000206801F009FA5021206806E0CA684968CB
:1027D000206801F053FA6021206801F033F9CEE758
:1027E000CA684968206801F0F7F940212068F4E7D9
:1027F000226801461046F0E770472DE9F041054692
:1028000090F83C0000260C46012810D0012085F8E5
:102810003C0072B1042A1CD0082A2CD00C2A50D0BB
:102820000126002085F83C003046BDE8F0810220FA
:10283000FBE7D4E90012E368286801F0DFF92868B3
:10284000816921F00C01816128688169A2681143C6
:102850000FE0D4E90012E368286801F021FA286843
:10286000816921F44061816128688169A26841EA37
:1028700002218161D5E72868D4E9002C277B016A11
:1028800021F480710162C169036A21F0030141EA08
:102890000C0121F0F00C39074FF420674CEA11616C
:1028A00023F4206307EA02221A43C1610262286806
:1028B000C16921F00C01C1612868C169A268114396
:1028C00028E02868D4E90027E168036A23F48053EC
:1028D0000362D0F81CC0036A2CF4407C4CEA072742
:1028E0004FF6FF7C27F470470CEA013139434FF46F
:1028F000204723F4204307EA02321A43C1610262EF
:102900002868C16921F44061C1612868C169A26871
:1029100041EA0221C16184E710B5040003D094F8B4
:102920003D0010B107E0012010BD002084F83C00FC
:10293000204600F01EF8022084F83D00211D20688A
:1029400001F012F8012084F8460084F83E0084F873
:102950003F0084F8400084F8410084F8420084F885
:10296000430084F8440084F8450084F83D000020CA
:1029700010BD704770B50446006801694FF000054E
:10298000C943890715D4C168C943890711D4E91E11
:10299000016101202077206880698007204602D0ED
:1029A000FFF72AFF04E000F0C3F8204600F055F9D5
:1029B000257720680169C943490717D4C168C9430D
:1029C000490713D46FF004010161022020772068C9
:1029D000806910F4407F204602D0FFF70DFF04E02D
:1029E00000F0A6F8204600F038F925772068016944
:1029F000C943090716D4C168C943090712D46FF047
:102A000008010161042020772068C0698007204602
:102A100002D0FFF7F1FE04E000F08AF8204600F053
:102A20001CF9257720680169C943C90617D4C16814
:102A3000C943C90613D46FF0100101610820207743
:102A40002068C06910F4407F204602D0FFF7D4FE12
:102A500004E000F06DF8204600F0FFF825772068CC
:102A60000169C943C90708D1C168C943C90704D16D
:102A7000891E0161204600F0F1F820680169C94310
:102A8000090609D4C168C943090605D46FF080015D
:102A900001612046FFF73BFD20680169C9434906F3
:102AA00009D4C168C943490605D46FF040010161EA
:102AB000204600F0D4F820680169C94389060BD488
:102AC000C168C943890607D46FF02001016120461F
:102AD000BDE87040FFF71CBD70BD000010B586B0AA
:102AE000044614216846FDF7B5FB0E49206888426C
:102AF00015D10D480021026842F00802026000680A
:102B000000F0080005904FF4805000900220CDE9BD
:102B10000101CDE9031069460448FEF777FB06B0D2
:102B200010BD00000008004030380240000C024098
:102B3000704770B5044690F83C0000260D46012809
:102B40000FD0012084F83C006AB1042A1DD0082A65
:102B50002FD00C2A3FD00126002084F83C003046BC
:102B600070BD022070BD206800F074FF206881698C
:102B700041F0080181612068816921F004018161CF
:102B8000206881692A69114311E0206800F092FFF2
:102B90002068816941F4006181612068816921F4C4
:102BA00080618161206881692A6941EA022181612D
:102BB000D2E7206800F0B4FF2068C16941F0080145
:102BC000C1612068C16921F00401C1612068C16947
:102BD0002A69114311E0206800F0D6FF2068C1691E
:102BE00041F40061C1612068C16921F48061C16163
:102BF0002068C1692A6941EA0221C161ACE710B5C8
:102C0000040003D094F83D0010B107E0012010BD8E
:102C1000002084F83C00204600F01EF8022084F8D2
:102C20003D00211D206800F09FFE012084F8460031
:102C300084F83E0084F83F0084F8400084F84100A6
:102C400084F8420084F8430084F8440084F8450086
:102C500084F83D00002010BD7047704770477047F2
:102C600070477047F8B5016804460868CA684B6940
:102C700010F00F0F4FF0000559D003F0010602F4D9
:102C80009077374365D0C10705D0D10503D5216CB6
:102C900041F001012164410705D5D90703D0216C1A
:102CA00041F002012164810705D5D90703D0216CC9
:102CB00041F004012164010707D502F020013143EE
:102CC00003D0216C41F008012164216C00293AD025
:102CD000800604D5900602D5204601F02BF8206826
:102CE0004069216CC0F38010090700D460B320460E
:102CF00000F0F9FF20684069400621D520681430B3
:102D000050E8001F21F0400140E80012002AF5D1F0
:102D1000A06BA8B16C490165A06BFEF7CEF8002846
:102D200011D0A06B016D01B0BDE8F04008478306EB
:102D30000FD593060DD52046BDE8F84000F0FABF48
:102D40002046FFF78EFFF8BD2046FFF78AFF256477
:102D5000F8BD266B2023012E79D1C60677D5D6067D
:102D600075D50868486800904869400640D5A16B51
:102D7000086840680004000CEAD0A28D8242E7D9BE
:102D8000E085C869B0F5807F2DD020680C3050E810
:102D9000001F21F4807140E80012002AF5D120685C
:102DA000143050E8001F21F0010140E80012002A11
:102DB000F5D12068143050E8001F21F0400140E8B0
:102DC0000012002AF5D184F83E30256320680C30CB
:102DD00050E8001F21F0100140E80012002AF5D150
:102DE000A06BFEF721F8A08DE18D401A81B229E099
:102DF000A08DE18D401A81B2E08D0028A8D0002975
:102E0000A6D020680C3050E8002F22F4907240E8E1
:102E10000026002EF5D12068143050E8002F22F053
:102E2000010240E80026002EF5D184F83E302563EB
:102E300020680C3050E8002F22F0100240E80023F8
:102E4000002BF5D12046FFF70BFFF8BDFFE7050685
:102E50002BD5150629D594F83D002128F5D1A06879
:102E6000B0F5805F01D12069B0B1206A411C2162B8
:102E7000216800784860E08C401E0004000CE0846B
:102E8000E3D12068C16821F08001C1602068C16879
:102E900041F04001C160D8E7206A0088C0F3080013
:102EA0004860206A801C2062E5E74006CDD55006C8
:102EB000CBD5CA68204622F04002CA6084F83D3073
:102EC00000F0CFF8C1E70000D73C000870B504005F
:102ED00004D094F83D00002510B106E0012070BD3B
:102EE00084F83C50204600F023F8242084F83D006C
:102EF0002068C16821F40051C160204600F07AFFCB
:102F00002068016921F4904101612068416921F044
:102F10002A0141612068C16841F40051C160256403
:102F2000202084F83D0084F83E00002070BD0000A1
:102F300010B586B0044614216846FDF78BF9184990
:102F40002068884229D117480021026842F4802273
:102F50000260006800F48020059012481038026872
:102F600042F002020260006800F0020005904FF497
:102F7000406000900220CDE901010320039007206A
:102F8000049069460848FEF741F9002211462720BF
:102F9000FEF710FC2720FEF7FFFB06B010BD000077
:102FA00000480040403802400004024070470000E2
:102FB0002DE9F843044690F83D001F4616460D469D
:102FC00020284CD1C5B1BEB194F83C00012846D0B0
:102FD000012084F83C004FF00008C4F84080212014
:102FE00084F83D00FEF73EFAA6848146E684A06898
:102FF000B0F5805F03D004E00120BDE8F8832069CC
:1030000028B12E465FF0000584F83C800EE00026D3
:10301000FAE78021204600F073FFA0B9AEB116F8A0
:10302000010B21684860E08C401EE084E08C4B4638
:103030004FF0000200970028EBD14FF040012046EE
:1030400000F05EFF30B10320D7E735F8020BC0F384
:103050000800E6E7202084F83D000020CDE70220AC
:10306000CBE77047FEE7000010B5012204210748B6
:10307000FEF7F3F90A240648FEF7A7FE012804D05C
:10308000641E14F0FF04F6D1002010BD000C0240B5
:10309000040100202DE9F0410F4C164688460546F4
:1030A0001F46002204212046FEF7D7F9284600F0EB
:1030B0008DFB0421404600F093FB304600F086FB78
:1030C0003146384600F08CFB2046BDE8F041012235
:1030D0000421FEF7C2B90000000C024070B50B4D90
:1030E0000446002204212846FEF7B7F9032000F029
:1030F0006DFB204600F06AFB00F05CFB04460122F9
:1031000004212846FEF7A9F9204670BD000C0240B4
:1031100070B5094D002204212846FEF79EF9A02033
:1031200000F054FB00F046FB04460122042128462F
:10313000FEF793F9204670BD000C024070B5084CB4
:103140000546002204212046FEF787F9284600F0B4
:103150003DFB2046BDE8704001220421FEF77DB909
:10316000000C024070B580210F2000F023F80A24E3
:1031700004250E20FFF7B2FFB5EB501F01D101204F
:1031800070BD641E14F0FF04F3D1002070BD10B5B3
:1031900000210F2000F00EF80A240E20FFF79EFFFA
:1031A000400905D0641E14F0FF04F6D1002010BDC4
:1031B000012010BD70B50C4C0E46054600220421BE
:1031C0002046FEF74AF9022000F000FB284600F0F6
:1031D000FDFA304600F0FAFA2046BDE870400122C0
:1031E0000421FEF73AB90000000C02402DE9F0413D
:1031F0000D4E17460C460546002204213046FEF7C8
:103200002CF9022000F0E2FA284600F0DFFA601BF9
:10321000401CC1B2384600F0E3FA3046BDE8F04148
:1032200001220421FEF719B9000C02400D4808B52F
:10323000016841F4001101600068002200F40010F0
:10324000009011461020FEF7B5FA1020FEF7A4FA00
:10325000002211462F20FEF7ADFABDE808402F20CE
:10326000FEF79ABA303802402DE9F04F87B01421AA
:103270006846FCF7EFFF67480024016841F0100141
:103280000160016801F010010591016841F004013D
:103290000160016801F004010591016841F08001BD
:1032A0000160016801F080010591016841F00101B0
:1032B0000160016801F001010591016841F002011E
:1032C0000160016801F002010591016841F0080107
:1032D0000160016801F008010591016841F04001B9
:1032E00001600068002200F04000059081214A48FA
:1032F000FEF7B3F84FF4827A012251464748FEF7B1
:10330000ACF8002240214648FEF7A7F808204FF409
:103310008818CDE900080125694602954148FDF766
:1033200075FF6803CDE90008DFF8FCB06946029438
:103330005846FDF76BFF32200226CDE9000602AAAF
:1033400003274FF00B0982E8900269465846FDF7C3
:103350005DFF8620CDE9000602AADFF8D0B082E842
:10336000900269465846FDF751FF81200090CDE953
:103370000154694628480394FDF748FFCDF800A0A2
:10338000CDE90154694625480395FDF73FFFA802A2
:10339000CDE90008694602952048FDF737FF402037
:1033A0000090CDE9015469461D480394FDF72EFFB6
:1033B0008020CDE90004694619480294FDF726FFF4
:1033C0004FF4E850CDE9000602940A20CDE90370DD
:1033D00069465846FDF71AFF6802CDE900046946C0
:1033E00058460294FDF712FF4FF42050CDE9000635
:1033F00002AA694682E890020948FDF707FF002209
:1034000011462820FEF7D6F92820FEF7C5F907B0A7
:10341000BDE8F08F3038024000040240000C02404A
:103420000018024000100240000802400000024064
:10343000144810B5124901601349416000214FF44E
:1034400080428160C0E9031241618161C161016212
:10345000FEF74EF808B1FDF7E5FC00210948FEF73C
:1034600007F808B1FDF7DEFC00210648FEF721F859
:10347000002803D0BDE81040FDF7D4BC10BD00000B
:103480000054004058000020A0860100104810B5EC
:103490000E4901604FF48271416000218160C1607A
:1034A0004FF400720161C0E905120822C0E907214A
:1034B000416281620A21C162FEF708FD002803D043
:1034C000BDE81040FDF7AEBC10BD00000038004064
:1034D000AC000020104810B50E4901604FF4827115
:1034E000416000218160C1604FF400720161C0E958
:1034F00005121022C0E90721416281620A21C162DE
:10350000FEF7E4FC002803D0BDE81040FDF78ABCBC
:1035100010BD0000003C00400401002010B58AB03E
:103520000024274804940594069407940894099469
:103530000094019402942149039401601D21C0E983
:1035400001144EF65F21C0E9031480218161FFF769
:1035500029F808B1FDF766FC4FF48050049004A9E7
:103560001748FFF7DBF808B1FDF75CFC1448FFF7DC
:10357000D3F908B1FDF756FC089408A9104809943E
:10358000FEF7C8FF08B1FDF74DFC0120CDE9004072
:103590000F20CDE90240042269460948FFF72DF9C2
:1035A00008B1FDF73FFC082269460548FFF725F9F9
:1035B000002801D0FDF736FC0AB010BD0004004021
:1035C0005C01002010B58EB0002407940894099483
:1035D0000A940B941C2168460C94FCF73BFE1F4890
:1035E0001D4901604A21C0E901144EF65F21C0E97E
:1035F000031480218161FEF7D5FF08B1FDF712FCAD
:103600004FF48050079007A91448FFF787F808B1D6
:10361000FDF708FC1148FFF7F2FA08B1FDF702FCCC
:103620000B940BA90D480C94FEF774FF08B1FDF73D
:10363000F9FB6020CDE900040294002269460748A6
:103640000494FFF776FA08B1FDF7ECFB0348FFF7A7
:1036500045FA0EB010BD000000080040A401002093
:103660001CB500240E4800940C490194C0E90014D4
:103670004FF6FF71C0E902418461FEF793FF08B184
:10368000FDF7D0FB0094694605480194FEF742FF20
:10369000002801D0FDF7C6FB1CBD0000001400404F
:1036A000EC0100200C4810B50A4901604FF4E131EB
:1036B0004160002181600C22C160C0E90412816177
:1036C000C161FFF703FC002803D0BDE81040FDF7FF
:1036D000A9BB10BD00480040F4020020FEE7FEE751
:1036E000704700000148FEF773BB00000401002092
:1036F00010B5806B0021C187C186FEF765FB10BD48
:10370000F8B5044640684FF48273984221D1A0680E
:103710004FF48065B0F5004F01D0A8420AD120686F
:10372000066826F0400606606068984211D1A068DD
:10373000A8420ED000920B4600228021204600F0C5
:1037400057F8002804D0606D40F020006065032029
:10375000F8BD00920B4600220121EFE738B5044680
:103760001248134B0068B0FBF3F04FF47A735843E0
:1037700000906068B0F5827F0DD10B460092002268
:103780008021204600F034F870B1606D40F02000D8
:103790006065032038BD009830B1401E009020685D
:1037A0008068C0430006F6D5002038BD2C000020FC
:1037B00000366E0108B50A23012269460248FEF769
:1037C00041FC9DF8000008BD0401002001B50A235A
:1037D000012269460148FEF7E2FC08BD0401002011
:1037E0000A4601460A230148FEF7D9BC040100201D
:1037F0002DE9F8431E46914688460446089DFDF78C
:1038000031FE401B351AFDF72DFE0746254800689E
:10381000C0F3CB30684338E0701C37D0FDF722FE90
:10382000C01BA84203D215B1009860B32CE02068F9
:10383000416821F0E00141606068B0F5827F0BD102
:10384000A068B0F5004F02D0B0F5806F04D12068B9
:10385000016821F040010160A06AB0F5005F09D164
:103860002068016821F4005101602068016841F47A
:1038700000510160012084F85100002084F85000BC
:103880000320BDE8F8830025401E00902068816871
:1038900038EA010004D000214945BDD10020F0E7FD
:1038A0000121F9E72C0000207047FDF71BBF000045
:1038B00030B593B030216846FCF7CCFC14210CA83D
:1038C000FCF7C8FC1F480025016841F080510160E9
:1038D000006800F0805011901B48016841F440419D
:1038E00001600068022400F4404011900120009023
:1038F000000401908001CDE9064008AA0420B4210B
:1039000082E813000B906846FEF7A8F808B172B67B
:10391000FEE7FDF781FF08B172B6FEE70CA90F20A4
:1039200081E831004FF4A0500F904FF48050109078
:1039300005210CA8FDF7A8FF002801D072B6FEE70C
:1039400013B030BD403802400070004002480168AA
:1039500041F470010160704788ED00E00148FFF715
:1039600009B800005C010020F0B50268254C264D26
:10397000264E274F274B4FF0804CA04209D0604580
:1039800007D0A84205D0B04203D0B84201D0984237
:1039900004D122F0700E4A6842EA0E02A0421BD007
:1039A000604519D0A84217D0B04215D0B84213D004
:1039B000984211D0184DA8420ED0184DA8420BD0F5
:1039C000174DA84208D0174DA84205D0164DA84261
:1039D00002D0164DA84203D122F44075CA682A438A
:1039E0004D6922F080022A4302608A68C2620A6836
:1039F0008262A04201D0984201D10969016301218C
:103A00004161F0BD0000014000040040000800409A
:103A1000000C00400004014000400140004401400F
:103A20000048014000180040001C004000200040F9
:103A300010B5846842EA032224F47F440A432243F7
:103A4000826010BD826822F070020A4342F00701D2
:103A500081607047F0B5026A22F001020262036AD7
:103A600042688469124E24F073050C682C4323F0DD
:103A700002058B682B430D4DA84201D0B04205D101
:103A800023F00807CB683B4323F00403A84201D08E
:103A9000B04205D14D6922F4407215438A692A4328
:103AA00042608461496841630362F0BD00000140E7
:103AB00000040140F0B5026A22F010020262026ABC
:103AC000436884690D6824F4E64444EA05248D685B
:103AD00022F0200242EA05120F4D104EA84201D0FA
:103AE000B04206D1CF6822F0800242EA071222F0EB
:103AF0004002A84201D0B04207D14D6923F440638F
:103B000043EA85038D6943EA85034360846149681C
:103B100081630262F0BD000000000140000401402A
:103B2000F0B5026A22F480720262026A4368C469D4
:103B300022F4007224F073050C68124E2C438D6839
:103B400042EA05220E4DA84201D0B04206D1CF680C
:103B500022F4006242EA072222F48062A84201D0E5
:103B6000B04207D14D6923F4405343EA05138D69F0
:103B700043EA05134360C4614968C1630262F0BD52
:103B8000000001400004014030B5026A22F4805276
:103B90000262046A4268C3690D6823F4E64343EA9B
:103BA00005238D6824F4005444EA0534084DA842E6
:103BB00002D0084DA84204D14D6922F4804242EA65
:103BC00085124260C36149680164046230BD00002F
:103BD000000001400004014010B5036A046A24F0AB
:103BE00001040462846924F0F00444EA021423F01E
:103BF0000A020A438461026210BD000070B5046AC3
:103C000024F0010404628469056A154EB04214D0A0
:103C1000B0F1804F11D0134EB0420ED0124EB042D0
:103C20000BD0124EB04208D0114EB04205D0114E0A
:103C3000B04202D0104EB04203D124F0030414432A
:103C400001E044F001041A0724F0F00444EA12628F
:103C500025F00A0301F00A0119438261016270BD77
:103C6000000001400004004000080040000C00403B
:103C700000040140004001400018004010B5036AF4
:103C800023F0100303628369046A23F4704343EA58
:103C9000023224F0A00343EA01118261016210BDE7
:103CA00030B5046A24F0100404628469056A24F4BF
:103CB000407444EA022222F470444FF6FF7202EA92
:103CC00003322243A02425F0A00304EA0111194382
:103CD0008261016230BD10B5806B0021C185C18455
:103CE000FEF7BFFF10BD01680C3151E8002F22F430
:103CF000907241E80023002BF5D10168143151E89E
:103D0000002F22F0010241E80023002BF5D1016BC6
:103D1000012909D101680C3151E8002F22F010026D
:103D200041E80023002BF5D1202180F83E1000212E
:103D30000163704708B590F83E10222901D0022097
:103D400008BD82684FF480539A4201D1016921B1C4
:103D5000816A9A421BD04AB10AE00268816A5268BD
:103D6000C2F308020A80816A891C08E0026972B104
:103D70000268526802F07F020A70816A491C8162FF
:103D8000C18D491E0904090CC18503D019E00268E0
:103D90005268F1E70168CA6822F02002CA6001682F
:103DA000CA6822F48072CA6001684A6922F001027E
:103DB0004A61202180F83E10016B012903D0FFF7F2
:103DC000F5F8002008BD0021016301680C3151E8BD
:103DD000002F22F0100241E80023002BF5D10168EA
:103DE0000A68D20602D50A6849680091818DFEF7FB
:103DF00037FFE6E770B5044600680169E26821F420
:103E00004051114301612169A068E2690843616979
:103E1000114308432168CA6849F20C639A4302437C
:103E2000CA6020684169A26921F44071114341616F
:103E300031492068884202D03049884202D1FDF7DA
:103E4000CDFD01E0FDF7BAFDE269002319216425EB
:103E50003226B2F5004F626828D0A0FB0101930F13
:103E60009200FCF7BFF90146B0FBF5F06FF01802C5
:103E7000504301EB800006EB0010B0FBF5F000F0C2
:103E8000F002B1FBF5F002EB0012B1FBF5F06FF0C0
:103E90001803584301EB800006EB0010B0FBF5F06F
:103EA00000F00F0021681044886070BDA0FB010184
:103EB00092185B41FCF796F90146B0FBF5F0020160
:103EC000B1FBF5F06FF01803584301EB800006EBEF
:103ED000C000B0FBF5F000F0F80002EB4002B1FBCF
:103EE000F5F0584301EB800006EBC000B0FBF5F0A5
:103EF00000F00700D6E70000001001400014014068
:103F00002DE9F041984617460E460446069D27E0E7
:103F1000681C25D02DB1FDF7A5FAA0EB0800A8423A
:103F20001ED920680C3050E8001F21F4D07140E801
:103F30000012002AF5D12068143050E8001F21F04B
:103F4000010140E80012002AF5D1202084F83D004C
:103F500084F83E00002084F83C000320BDE8F08196
:103F60002068006836EA000004D00020B842CFD0B4
:103F70000020F3E70120F9E70148FEF773BE0000D7
:103F8000F4020020FEE700000FB4054B10B503A9B2
:103F9000044A029800F0EAF810BC5DF814FB000037
:103FA000D14800081C0000200907090E002804DB86
:103FB00000F1E02080F80014704700F00F0000F1DD
:103FC000E02080F8141D704702E008C8121F08C1E5
:103FD000002AFAD170477047002001E001C1121F8A
:103FE000002AFBD1704700002DE9FF5F82B000215D
:103FF000DDE90430020DDDF840B0034318D044F68B
:104000001050A2F2FF3242431514119801281FD01C
:10401000A5EB0B00401C5FEA000A4FF000064E4F74
:10402000DFF83891B046504615D5CAF1000413E0C8
:10403000119801244AA3012801D16FEA0B010298CB
:10404000119AC0E90031C0E9024206B0BDE8F09F14
:10405000CBF10000DFE704460021404A491842EB5B
:104060000450CDE9001012E0E00707D032463B468D
:1040700040464946FCF7F9F88046894632463B46B9
:1040800010461946FCF7F1F806460F466410002C5E
:10409000EAD1DDE90401DDE90023BAF1000F06DA17
:1040A000FCF7E3F842464B46FCF7DFF805E0FCF787
:1040B000ADFA42464B46FCF7A9FA04460E460022EA
:1040C000284BFCF72BFB03D84FF0FF30014607E0ED
:1040D0000022254B20463146FCF7F1F9FCF705FBA1
:1040E000102409E0002C0ADB0A220023FCF77AF8EE
:1040F000039B30321A55641E50EA0102F2D1641C4F
:10410000039AC4F111031444119A012A03D0012225
:1041100008430DD10AE0084304D000204FF0110BF2
:10412000119072E7A3EB0B056D1E0DE05B4504DDFE
:104130004FF0000205F1010504E003DA4FF0000240
:10414000A5F10105002AECD002981199C0E90231CD
:10415000C0E9004579E70000000014400000F03F8E
:10416000300000000000F0430000E03F2DE9FF4F69
:1041700095B09B468946064600250FE2252877D153
:1041800000242746F84A0121059400E0044316F86C
:10419000013F203B01FA03F01042F7D130782A2882
:1041A00011D06FF02F033078A0F13002092A16D811
:1041B000059A44F0020402EB820203EB420210442F
:1041C000761C0590EFE759F8042B0592002A03DAD4
:1041D000504244F40054059044F00204761C3078B8
:1041E0002E2816D116F8010F44F004042A280DD009
:1041F0006FF02F023078A0F13003092B09D807EBBC
:10420000870302EB4303C718761CF3E759F8047BD6
:10421000761C30786C280FD006DC4C2817D0682824
:104220000DD06A2814D104E0742810D07A280FD158
:104230000DE044F400140AE044F4801401E044F476
:1042400040147278824202D104F58014761C761CE8
:10425000307866280BD013DC582877D009DC00288A
:1042600075D04528F6D04628F4D047281AD19DE1CC
:1042700018E0632835D0642879D0652812D195E1FB
:10428000702873D008DC6728F1D069286FD06E28B9
:104290000DD06F2806D1B5E073282CD0752875D0C5
:1042A000782874D05A46179990476D1C75E1C4F36D
:1042B0000250022809D003280DD0D9F80010042894
:1042C0000DD00D6009F1040967E1D9F80010EA1773
:1042D000C1E90052F6E7D9F800100D80F2E70D7041
:1042E000F0E719F8041B8DF8001000208DF801008C
:1042F000EA46012003E059F804AB4FF0FF306107B4
:104300004FF0000102D40DE008F101018846B942E6
:104310000FDA8045F8DB1AF808100029F4D108E01C
:1043200008F1010188468142FADB1AF808100029D9
:10433000F6D105985B46A0EB080721463846179A48
:1043400000F094FA284400EB080507E04DE029E16D
:104350000DE01AF8010B5A4617999047B8F1010879
:10436000F7D25B4621463846179A13E142E00A220B
:104370000092C4F302524FF0000A022A08D059F802
:1043800004CB032A4FEAEC710AD00DE029E02AE0C1
:1043900009F1070121F00702F2E802C1914609E0A4
:1043A0000FFA8CFC4FEAEC71042A03D14FFA8CFC13
:1043B0004FEAEC71002907DA0A460021DCF1000C13
:1043C00061EB02012D2202E0220504D52B228DF89B
:1043D0000420012203E0E20701D02022F7E7904603
:1043E00059E00A2102E010220DE010214FF0000AEE
:1043F00000910BE010224FF0000A44F0040408275B
:10440000009203E008224FF0000A0092C4F3025227
:10441000022A05D059F804CB0021032A08D009E06C
:1044200009F1070121F00702F2E802C1914605E017
:104430001FFA8CFC042A01D10CF0FF0C4FF000088D
:10444000220728D5702806D0009B83F0100353EA7A
:104450000A0305D00EE040228DF80420012208E076
:104460005CEA010206D030228DF804208DF80500A8
:1044700002229046009B83F0080353EA0A030AD104
:104480005CEA010201D1620705D530228DF80420D3
:104490004FF001087F1E582804D034A003900EA8C6
:1044A00002900DE036A0F9E753466046009AFBF70C
:1044B00099FE84460398825C0298401E0290027026
:1044C0005CEA0100F0D1029806A9081A00F1200A5E
:1044D000600702D524F4803400E00127574502DD4F
:1044E000A7EB0A0000E0002000EB0A01009005980D
:1044F0004144401A0590E00306D45B462146179AD2
:10450000059800F0B3F90544002706E001A85A46D3
:10451000C05D179990476D1C7F1C4745F6DBE00393
:104520000CD55B462146179A059800F09FF9054483
:1045300004E030205A46179990476D1C0099481E98
:1045400000900029F5DC08E0029802995A460078AC
:10455000491C0291179990476D1CBAF10001AAF10C
:10456000010AF1DC65E10000092801003031323335
:10457000343536373839616263646566000000009F
:104580003031323334353637383941424344454689
:104590000000000000F058F90544761C307800282F
:1045A0007FF4ECAD19B02846BDE8F08F620700D467
:1045B000062709F1070222F0070CFCE80223E14676
:1045C00003F000485FEA080C02D00FF2702C0DE0F7
:1045D0005FEA045C02D50FF2682C07E05FEAC47C56
:1045E00002D00FF2602C01E0AFF2700C4FF0FF38F8
:1045F00023F00043CDF850C065280CD006DC4528D8
:1046000009D046281DD047283DD13DE0662818D066
:1046100067287ED138E00021112F01DB112000E056
:10462000781CCDE9000106A90EA8FFF7DDFCDDE945
:104630000F010E9A03910021009207F1010A0491E3
:104640004DE04FF000400097CDE9011006A90EA8FB
:10465000FFF7CAFCDDE90F0203920E9B11990022BD
:10466000DDF80CA00093049211B9791C00EB010A4B
:10467000B7EB0A0004D4C0F1FF3007F1010A04903F
:10468000AAEB0700019044E0012F00DA0127002186
:10469000112F01DD112000E03846CDE9000106A907
:1046A0000EA8FFF7A1FCDDE90F010E9A039100218E
:1046B00004910092BA4621070CD40399514500DABF
:1046C0008A46BAF1010F05DD009AAAF10101515C99
:1046D000302908D0B84202DA10F1040F06DA0121BD
:1046E000CDE9011015E0AAF10101E9E7002805DC98
:1046F000049901440491AAEB000102E0411C5145D8
:1047000000DD8A460499401A401C01904FF0004099
:104710000290200704D40198504501DBCDF80480B5
:1047200000208DF84F0002980DF14F07B0F1004FB7
:1047300025D02B200E9002984FF0020800280CDAAA
:10474000404202902D200E9007E00A210298FBF7CC
:1047500024FE3031029007F8011DB8F10001A8F1E4
:104760000108F2DC02980028EFD1791E0E9808703B
:10477000307800F0200040F0450007F8020D12A844
:10478000C01B00F107081498007800B1012000EB6D
:104790000A01019801EBE07105984144401A401E5E
:1047A0000590E00306D45B462146179A059800F071
:1047B0005DF805441498007818B15A461799904747
:1047C0006D1CE00324D55B462146179A059800F03E
:1047D0004DF805441CE00498002807DBDDE90301DF
:1047E000884203DD0098405C179901E0179930205A
:1047F0005A469047049805F10105401C0490019821
:10480000401E019004D12E205A46179990476D1CE6
:10481000BAF10001AAF1010ADDDC05E017F8010B8D
:104820005A46179990476D1CB8F10001A8F101088C
:10483000F4DC5B462146179A0598ABE62D00000094
:104840002B000000200000002DE9F0410446002567
:104850001E461746880404D405E039462020B04798
:104860006D1C641EF9D52846BDE8F0812DE9F041A4
:10487000044600251E469046C80301D5302700E0B7
:104880002027880404D505E041463846B0476D1C12
:10489000641EF9D52846BDE8F081022907D0002121
:1048A0009170D17040015070000A10707047D07044
:1048B000000A9070000A00F00303C10001F0E0005C
:1048C0001844083000F0EB005070080AEDE70000D3
:1048D00013B54FF6FF73012269460248FEF768FBE5
:1048E00000981CBDF4020020FCF704FFFEF7E0FF77
:1048F000FEF7BAFCFEF7CAFDFEF710FEFEF7B0FEAB
:10490000FEF794FCFEF7CEFEFEF75CFEFEF7E2FD3E
:10491000FEF78EFD4FF4FA710020FBF73DFF1548BE
:1049200001210A22017042600822027200234372B0
:1049300081720221C1720321017304214173052197
:1049400081730621C173027440F2EF14002240F219
:10495000E775234629461046FCF714F82346022241
:1049600029460120FCF70EF84FF47A742046FCF734
:10497000F1FBFBE7300000200006101600061016C1
:1049800000000000000000000102030406070809FF
:1049900000000000010203046E756D6265724F66CF
:1049A00074712020203A2025640D0A53414D504C4B
:1049B000455F504F494E54203A2025640D0A50520D
:1049C0004F505F74712020202020203A2025640D54
:1049D0000A505331202020202020202020203A205F
:1049E00025640D0A50533220202020202020202032
:1049F000203A2025640D0A00184A00080000002013
:104A000030000000C83F0008484A0008300000207D
:104A100008070000D83F0008000000000000000068
:104A20000000000000000000000000000000000086
:104A30000000000000000000010000001000000065
:084A4000000000000024F40056
:04000005080001AD41
:00000001FF
