:020000040800F2
:10000000A00700204D020008571600084D130008F5
:100010005516000843040008D51A00080000000027
:100020000000000000000000000000005B16000857
:100030004504000800000000591600085D1600087D
:1000400067020008670200086702000867020008EC
:1000500067020008670200086702000867020008DC
:1000600067020008670200086702000867020008CC
:1000700067020008670200086702000867020008BC
:1000800067020008670200086702000867020008AC
:10009000670200086702000867020008670200089C
:1000A000670200086702000867020008670200088C
:1000B000670200086702000867020008670200087C
:1000C000670200086702000867020008670200086C
:1000D000670200086702000867020008670200085C
:1000E000470400086702000867020008670200086A
:1000F000670200086702000867020008670200083C
:10010000670200086702000867020008670200082B
:10011000670200086702000867020008670200081B
:10012000670200086702000867020008670200080B
:1001300067020008670200086702000867020008FB
:1001400067020008670200086702000867020008EB
:1001500067020008670200086702000867020008DB
:1001600067020008670200086702000867020008CB
:10017000670200086702000867020008000000002C
:1001800067020008670200086702000867020008AB
:10019000670200086702000867020008670200089B
:1001A00067020008670200086702000800F002F812
:1001B00000F03CF80AA090E8000C82448344AAF1C5
:1001C0000107DA4501D100F031F8AFF2090EBAE8C3
:1001D0000F0013F0010F18BFFB1A43F0010318477B
:1001E0005819000078190000103A24BF78C878C167
:1001F000FAD8520724BF30C830C144BF04680C602D
:10020000704700000023002400250026103A28BF74
:1002100078C1FBD8520728BF30C148BF0B60704778
:100220001FB501F077FC1FBD10B510BD00F0CFF871
:100230001146FFF7F5FF01F05EFC00F0EDF803B4A6
:10024000FFF7F2FF03BC00F0F5F800000948804713
:1002500009480047FEE7FEE7FEE7FEE7FEE7FEE7A8
:10026000FEE7FEE7FEE7FEE704480549054A064BC0
:100270007047000001170008AD010008A001002030
:10028000A0070020A0030020A003002053EA020CD6
:1002900000F069802DE9F04B4FF00006002B1FBFE6
:1002A000B3FA83F503FA05F424FA05F65E4012BFAB
:1002B0001643B2FA82F502FA05F4C5F120051EBF15
:1002C00022FA05FC44EA0C04203556EA044C4FEAB5
:1002D000144418BF641C4FF000084FF0000990420E
:1002E00071EB030C39D3002919BFB1FA81F701FA78
:1002F00007F6B0FA80F700FA07F6C7F120071EBF2D
:1003000020FA07FC46EA0C062037B6FBF4FCA7EB04
:100310000507103F07F01F0BCBF120060CFA0BFB73
:100320002CFA06F644BFB3460026202FA4BF5E4633
:100330004FF0000B5BEA060C08BF4FF0010B19EB06
:100340000B09ABFB027C48EB0608C01B06FB02CC8A
:100350000BFB03CC71EB0C01C1E70B460246414697
:100360004846BDE8F08B13B54FF000004FF0000198
:10037000AFF30080BDE81C4070474FF0000200B5AD
:10038000134694469646203922BFA0E80C50A0E8B8
:100390000C50B1F12001BFF4F7AF090728BFA0E866
:1003A0000C5048BF0CC05DF804EB890028BF40F832
:1003B000042B08BF704748BF20F8022B11F0804F74
:1003C00018BF00F8012B704770477047704775469B
:1003D00000F02CF8AE4605006946534620F00700B1
:1003E000854618B020B5FFF73FFFBDE820404FF02D
:1003F00000064FF000074FF000084FF0000B21F00F
:100400000701AC46ACE8C009ACE8C009ACE8C009DB
:10041000ACE8C0098D46704710B50446AFF30080C4
:100420002046BDE81040FFF70ABF000000487047B3
:100430003C01002001491820ABBEFEE72600020067
:100440007047FEE7704710B54FF4806000F00AF87F
:10045000BDE810404FF4005000F004B872B6FEE75B
:1004600070470000044910B50A68024202D00860D3
:10047000FFF7F6FF10BD0000143C01402DE9F84FD6
:10048000DFF8F8A1002201240AF1040B03254FF044
:100490000F090BF1040E00BF0B6804FA02F633409B
:1004A000B34270D10F7907F00307012F01D0022F5B
:1004B00016D187684FEA420805FA08FC27EA0C07BC
:1004C000D1F80CC00CFA08FC4CEA070CC0F808C0C4
:1004D0004768B7430E79C6F3001696403E43466020
:1004E0000E79F643B6070AD0C7684FEA420C05FA00
:1004F0000CF6B7438E6806FA0CF63E43C6600E79DA
:1005000006F00306022E10D1D60800EB8608D8F8B4
:10051000206057074FEAD76C09FA0CF7BE430F6902
:1005200007FA0CF73743C8F8207006684FEA420C08
:1005300005FA0CF7BE430F7907F0030707FA0CF72B
:10054000374307604E6816F4403F1CD04C4E376866
:1005500047F480473760366822F0030706F4804688
:100560000096484E07EB060CDCF8086897073F0F2B
:1005700009FA07F826EA0806DFF80C81404503D19E
:100580004FF0000841E072E0DFF80081404502D101
:100590004FF0010839E0DFF8F880404502D14FF014
:1005A000020832E0DFF8EC80404502D14FF003084A
:1005B0002BE0DFF8E480404502D14FF0040824E04E
:1005C000DFF8D880404502D14FF005081DE0DFF884
:1005D000D080404502D14FF0060816E0DFF8C48015
:1005E000404502D14FF007080FE0DFF8BC804045DE
:1005F00002D14FF0080808E0DFF8B080404502D192
:100600004FF0090801E04FF00A0808FA07F848EA35
:100610000608CCF80888DAF800605746D1F804C01C
:100620009E435FEACC3C00D51E433E60DBF8006091
:100630005F46D1F804C09E435FEA8C3C00D51E4360
:100640003E60DEF800607746D1F804C09E435FEA62
:10065000CC2C00D51E433E60084F0C373E68D1F8C5
:1006600004C09E435FEA8C2C00D51E433E60521CA2
:10067000102AFFF411AFBDE8F88F0000003C0140E4
:1006800044380240003001400000024000040240B3
:1006900000080240000C024000100240001402401A
:1006A00000180240001C02400020024000240240CA
:1006B0000AB1816170470904FBE7000001488068C6
:1006C0007047000000000020024881680278114451
:1006D00081607047000000200B4810B5016841F4AC
:1006E00000710160016841F480610160016841F4BA
:1006F00080710160032000F06FF8002000F006F820
:1007000000F024F8002010BD003C024070B50D4DF3
:1007100004464FF47A712878B1FBF0F00A49096871
:10072000B1FBF0F000F0D6FB48B9102C07D2002244
:100730002146501E00F030F800206C6070BD012092
:1007400070BD0000000000200C0000200A4808B521
:10075000016841F480410160006800F4804000902D
:100760000548001F016841F080510160006800F0F9
:100770008050009008BD000044380240002809DB8A
:1007800000F01F02012191404009800000F1E020AB
:10079000C0F8001170470000F0B40E4B1B680C4607
:1007A000C3F30223C3F10705042D00D90425191D45
:1007B000072901D2002300E0DB1E012606FA05F11D
:1007C000491E214099409E40761E16403143F0BCA0
:1007D00001F081B90CED00E0064900F0070208685D
:1007E0004FF6FF03184040EA0220034A1043086016
:1007F000704700000CED00E00000FA052DE9F84319
:100800001748016841F0805101600068154F00F001
:100810008050012600903E64FFF750FF05464FF4DC
:100820007A78114C05E000BFFFF748FF401B4045B8
:100830000DD86068C003F7D57E64FFF73FFF05461B
:10084000464607E0FFF73AFF401BB04202D90320BB
:10085000BDE8F88360688003F4D50020F8E7000065
:100860004038024000000E42007000402DE9F04781
:100870000E46050065D0DFF81481D8F80000F7B205
:1008800000F00F00B04207D288F80070D8F80000DE
:1008900000F00F00B04254D128683D4C810712D5BA
:1008A000400703D5206840F4E05020602878000716
:1008B00003D5206840F4604020602068A96820F0DB
:1008C000F000084320602878C0072DD030496868C0
:1008D0000839012812D0022813D0032811D0096842
:1008E000890700292DDA216821F0030101432160E5
:1008F000FFF7E4FE814641F2883A0EE00968890379
:10090000EFE709688901ECE7FFF7D8FEA0EB0901E2
:10091000514502D90320BDE8F0872068696800F0DE
:100920000C00B0EB810FEFD1D8F80010404601F079
:100930000F01B14207D90770006800F00F00B04204
:1009400001D00120E7E72878400705D52068E9684D
:1009500020F4E050084320602878000706D520687E
:10096000296920F4604040EAC100206000F038F8B6
:100970002168084AC1F30311515CC8400649086068
:1009800006480068FFF7C2FE0020C4E7003C0240B2
:10099000083802401E1B00080C0000200400002044
:1009A0000448054900680968044AC1F38221515C82
:1009B000C84070470C000020083802402E1B000879
:1009C0000448054900680968044AC1F34231515C92
:1009D000C84070470C000020083802402E1B000859
:1009E000154810B5006810F00C02144813D04110DF
:1009F000042A0FD0082A0ED10F4C241F2268236826
:100A000002F03F025B0207D52068C0F38810A0FB0C
:100A1000010106E0084610BD2168C1F38811A1FB61
:100A200000010023FFF732FC2168C1F30141491C9A
:100A30004900B0FBF1F010BD083802400024F4007A
:100A40002DE9F84F04006ED02078DFF84C93C007F2
:100A5000A9F104054AD009F104000168C1F381013C
:100A6000012908D00068C0F3810002280AD1D9F812
:100A70000000400206D52868800337D5606800284A
:100A8000E1D033E06068B0F5803F10D0B0F5A02F22
:100A9000286810D020F480302860286820F4802056
:100AA00028606068A8B1FFF709FE06460DE02868D7
:100AB00040F48030F4E740F480202860F7E700BF7E
:100AC000FFF7FCFD801B642873D828688003F7D5E6
:100AD0000CE0FFF7F3FD064605E000BFFFF7EEFD73
:100AE000801B6428F0D828688003F7D42078DFF8CA
:100AF000AC8280074FF0000A3ED5A748001D016870
:100B000011F00C0F08D00068C0F3810002280BD14F
:100B1000D9F80000400207D42868800716D5E0689D
:100B2000012800D112E033E1E068B8B10120C8F833
:100B30000000FFF7C3FD064605E000BFFFF7BEFD5E
:100B4000801B0228C0D828688007F7D5286821694B
:100B500020F0F80040EAC10028600DE0C8F800A0CD
:100B6000FFF7ACFD064604E0FFF7A8FD801B022856
:100B70001FD828688007F7D42078000722D5864F31
:100B800087486169703771B101210160FFF796FDF7
:100B9000064604E0FFF792FD801B022809D838685A
:100BA0008007F7D50EE0C0F800A0FFF787FD0646E6
:100BB00005E082E0FFF782FD801B02287DD83868BF
:100BC0008007F7D42078400768D5DFF8CCB100273C
:100BD0000BF13C0BDBF80000C0000BD4DBF800107D
:100BE00041F08051CBF80010DBF80000012700F045
:100BF000805000906B4E3068C00510D4306840F4CF
:100C000080703060FFF75AFD009005E0FFF756FD59
:100C10000099401A022850D83068C005F6D55E4EBB
:100C2000A0686C3601280FD00528306810D020F05D
:100C300001003060306820F004003060A068B8B176
:100C4000FFF73CFD00900FE0306840F00100F4E752
:100C500040F004003060F7E7FFF730FD0099411ADB
:100C600041F28830814266D830688007F4D50EE0C2
:100C7000FFF724FD009007E0FFF720FD0099411ADF
:100C800041F28830814256D830688007F4D42FB1C1
:100C9000DBF8001021F08051CBF80010A069C8B338
:100CA0003D49091D0968C1F3810102294AD0022882
:100CB000504607D0C8F8600000E03CE0FFF7FEFCBB
:100CC00004463BE04746C8F86000FFF7F7FC0646DD
:100CD00005E000BFFFF7F2FC801B02282BD8286834
:100CE0008001F7D4D4E907010843A16A2E4A4908D4
:100CF00002EB0141626A41EA8211084394F82C1028
:100D000040EA0161C9F8001001203866FFF7D6FCFF
:100D1000044606E03EE000BFFFF7D0FC001B0228BF
:100D200009D828688001F7D534E000BFFFF7C6FC7A
:100D3000001B022802D90320BDE8F88F2868800133
:100D4000F4D427E00128F7D0D9F80000E26900F4D4
:100D5000800191421CD1226A00F03F01914217D1DB
:100D600047F6C071626A0140B1EB821F10D1A26ADE
:100D70004FF0FF3300F4403103EB5202B1EB024F6E
:100D800006D194F82C1000F07060B0EB016F01D028
:100D90000120D1E70020CFE704380240000047429D
:100DA000800E4742007000400000FFFF70B5040055
:100DB00009D0606A002540B125616561A56294F89B
:100DC000510040B10CE0012070BD6068B0F5827F39
:100DD000F4D0E561F2E784F85050204600F044F882
:100DE000022084F851002068016821F04001016070
:100DF000A088218900F4827001F404410843A1898C
:100E000001F400610843217C01F002010843217DC7
:100E100001F001010843218B01F400710843217F97
:100E200001F03801084394F8201001F080010843D4
:100E3000218D01F40051084321680860A069042154
:100E400001EA104094F8241001F0100108432168D1
:100E500048602068C16921F40061C16165650120B5
:100E600084F85100002070BD10B586B004461421EE
:100E70006846FFF782FA14492068884221D1134856
:100E80000021026842F480420260006800F4804061
:100E900005900E481038026842F0020202600068B5
:100EA00000F0020005904FF4604000900220CDE970
:100EB0000101032003900520049069460448FFF7D0
:100EC000DDFA06B010BD0000003800404038024096
:100ED0000004024010B5401EB0F1807F01D3012014
:100EE00010BD4FF0E02460610F21601700F0F3FDAA
:100EF0000020A06107202061002010BD70B590F88F
:100F00003C20012A32D0012480F83C40022280F8A3
:100F10003D2003685A689D6822F070060A683243D3
:100F20005A60134B02689A4214D0B2F1804F11D02C
:100F3000104B9A420ED0104B9A420BD00F4B9A4254
:100F400008D00F4B9A4205D00E4B9A4202D00E4B5E
:100F50009A4204D1496825F080031943916080F8D2
:100F60003D40002180F83C10084670BD022070BD55
:100F7000000001400004004000080040000C004058
:100F800000040140004001400018004010B504007A
:100F900003D094F83D0010B107E0012010BD0020FF
:100FA00084F83C00204600F01FF8022084F83D0041
:100FB000211D206800F0ACFB012084F8460084F875
:100FC0003E0084F83F0084F8400084F8410084F833
:100FD000420084F8430084F8440084F8450084F813
:100FE0003D00002010BD000008B50C4A01680C4807
:100FF000914207D1016841F002010160006800F0F0
:10100000020009E0074A914207D1016841F020013E
:101010000160006800F02000009008BD000400405E
:10102000403802400014004070B5044690F83C007F
:101030000025012817D0012684F83C60022084F89E
:101040003D002068826822F0770222F47F428260AD
:101050000868502838D00DDC20284FD005DC90B32C
:10106000102811D14AE0022070BD302846D0402817
:101070000AD13BE060282FD070280DD0B0F5805FFA
:1010800003D0B0F5005F12D0012584F83D60002048
:1010900084F83C00284670BDCB68D1E90121206866
:1010A00000F09AFB2068816841F0770109E0CB6885
:1010B000D1E90121206800F08FFB2068816841F4AC
:1010C00080418160E1E719E0CA684968206800F062
:1010D00057FC5021206806E0CA684968206800F083
:1010E00060FC6021206800F081FBCEE7CA68496897
:1010F000206800F045FC40212068F4E722680146A2
:101100001046F0E710B586B0044614216846FFF794
:1011100034F90D492068884214D10C480021026836
:1011200042F001020260006800F0010005904020DA
:1011300000900220CDE90101CDE903106946044881
:10114000FFF79CF906B010BD0004004030380240A3
:101150000000024070B5044690F83C0000260D46A1
:1011600001280FD0012084F83C006AB1042A1DD068
:10117000082A2FD00C2A3FD00126002084F83C00FA
:10118000304670BD022070BD206800F037FB20683B
:10119000816941F0080181612068816921F00401C1
:1011A0008161206881692A69114311E0206800F09B
:1011B00055FB2068816941F4006181612068816983
:1011C00021F480618161206881692A6941EA0221F4
:1011D0008161D2E7206800F077FB2068C16941F0A7
:1011E0000801C1612068C16921F00401C161206862
:1011F000C1692A69114311E0206800F099FB206859
:10120000C16941F40061C1612068C16921F4806154
:10121000C1612068C1692A6941EA0221C161ACE764
:1012200010B5040003D094F83D0010B107E0012090
:1012300010BD002084F83C00204600F01EF802207B
:1012400084F83D00211D206800F062FA012084F836
:10125000460084F83E0084F83F0084F8400084F89B
:10126000410084F8420084F8430084F8440084F884
:10127000450084F83D00002010BD704770B50400A3
:1012800004D094F83D00002510B106E0012070BDA7
:1012900084F83C50204600F023F8242084F83D00D8
:1012A0002068C16821F40051C160204600F08CFB29
:1012B0002068016921F4904101612068416921F0B1
:1012C0002A0141612068C16841F40051C160256470
:1012D000202084F83D0084F83E00002070BD00000E
:1012E00010B586B0044614216846FFF746F8144945
:1012F0002068884221D113480021026842F48022EC
:101300000260006800F4802005900E4810380268E2
:1013100042F002020260006800F0020005904FF403
:10132000406000900220CDE90101032003900720D6
:10133000049069460448FFF7A1F806B010BD00000C
:10134000004800404038024000040240FEE7000030
:101350002DE9F04F87B014216846FFF70EF860487A
:101360000024016841F004010160016801F00401FA
:101370000591016841F080010160016801F0800180
:101380000591016841F001010160016801F001016E
:101390000591016841F002010160016801F002015C
:1013A0000591016841F008010160016801F0080140
:1013B0000591016841F0400101600068002200F0E1
:1013C0004000059081214748FFF772F9DFF818B116
:1013D0004FF4807A002251465846FFF769F90022FF
:1013E00040214248FFF764F94FF400504FF4881948
:1013F000CDE90009DFF8F880694602944046FFF71E
:101400003DF832200225CDE9000502AA03260B276C
:1014100082E8D00069464046FFF730F88620CDE9E3
:10142000000502AA694682E8D0003248FFF726F894
:10143000812000904FF00108CDE9018469462948D8
:101440000394FFF71BF8CDF800A0CDE901846946AD
:1014500058460394FFF712F86802CDE9000969467F
:1014600002945846FFF70AF840200090CDE9018425
:1014700069461E480394FFF701F88020CDE9000477
:1014800069461A480294FEF7F9FF4FF4E850CDE997
:10149000000502940A20CDE9036069461548FEF76D
:1014A000EDFF2802CDE90004694612480294FEF7D8
:1014B000E5FF4FF42050CDE9000502AA694682E815
:1014C000D0000A48FEF7DAFF002211462820FFF775
:1014D00063F92820FFF752F907B0BDE8F08F00004C
:1014E0003038024000040240000C02400018024064
:1014F0000008024000000240104810B50E4901608B
:101500004FF48271416000218160C1604FF400722C
:101510000161C0E905120822C0E907214162816228
:101520000A21C162FFF742FC002803D0BDE8104049
:10153000FEF794BF10BD00000038004010000020EE
:1015400010B58EB000240794089409940A940B9463
:101550001C2168460C94FEF710FF1E481C49C0E988
:1015600000144FF6FF71C0E9024104618461FFF786
:101570000DFD08B1FEF772FF4FF48050079007A9E8
:101580001448FFF751FD08B1FEF768FF1148FFF757
:1015900047FE08B1FEF762FF0B940BA90D480C94AF
:1015A000FFF7ACFC08B1FEF759FF6020CDE900045D
:1015B00002940022694607480494FFF7CBFD08B166
:1015C000FEF74CFF0348FFF79DFD0EB010BD000075
:1015D00000040040680000201CB500240E48009460
:1015E0000C490194C0E900144FF6FF71C0E90241B3
:1015F0008461FFF7CBFC08B1FEF730FF0094694629
:1016000005480194FFF77AFC002801D0FEF726FF79
:101610001CBD000000140040B00000200C4810B5B4
:101620000A4901604FF4E1314160002181600C22E0
:10163000C160C0E904128161C161FFF71FFE00288B
:1016400003D0BDE81040FEF709BF10BD00480040C0
:10165000F8000020FEE7FEE770477047FFF734B858
:1016600030B593B030216846FEF787FE14210CA8F0
:10167000FEF783FE20480025016841F0805101609B
:10168000006800F0805011901C48016841F440410E
:1016900001600068022400F4404011900120009095
:1016A0004FF4A02001906005CDE9064008AA04206F
:1016B000B42182E813000B906846FFF7C1F908B126
:1016C00072B6FEE7FFF79AF808B172B6FEE70CA90A
:1016D0000F2081E831004FF4A0500F904FF480505C
:1016E000109005210CA8FFF7C1F8002801D072B6B0
:1016F000FEE713B030BD00004038024000700040EB
:101700000248016841F470010160704788ED00E013
:10171000F0B50268254C264D264E274F274B4FF03B
:10172000804CA04209D0604507D0A84205D0B04205
:1017300003D0B84201D0984204D122F0700E4A681A
:1017400042EA0E02A0421BD0604519D0A84217D031
:10175000B04215D0B84213D0984211D0184DA842CB
:101760000ED0184DA8420BD0174DA84208D0174DE7
:10177000A84205D0164DA84202D0164DA84203D16A
:1017800022F44075CA682A434D6922F080022A4338
:1017900002608A68C2620A688262A04201D09842EE
:1017A00001D10969016301214161F0BD00000140DF
:1017B0000004004000080040000C0040000401400C
:1017C0000040014000440140004801400018004032
:1017D000001C00400020004010B5846842EA03224B
:1017E00024F47F440A432243826010BD826822F0C1
:1017F00070020A4342F0070181607047F0B5026A47
:1018000022F001020262036A42688469124E24F0E7
:1018100073050C682C4323F002058B682B430D4D98
:10182000A84201D0B04205D123F00807CB683B4362
:1018300023F00403A84201D0B04205D14D6922F43F
:10184000407215438A692A43426084614968416352
:101850000362F0BD0000014000040140F0B5026ADF
:1018600022F010020262026A436884690D6824F45F
:10187000E64444EA05248D6822F0200242EA05127B
:101880000F4D104EA84201D0B04206D1CF6822F0D1
:10189000800242EA071222F04002A84201D0B04280
:1018A00007D14D6923F4406343EA85038D6943EA18
:1018B000850343608461496881630262F0BD000072
:1018C0000000014000040140F0B5026A22F4807279
:1018D0000262026A4368C46922F4007224F073054C
:1018E0000C68124E2C438D6842EA05220E4DA84228
:1018F00001D0B04206D1CF6822F4006242EA07224A
:1019000022F48062A84201D0B04207D14D6923F48D
:10191000405343EA05138D6943EA05134360C461EC
:101920004968C1630262F0BD00000140000401404B
:1019300030B5026A22F480520262046A4268C369C6
:101940000D6823F4E64343EA05238D6824F400542C
:1019500044EA0534084DA84202D0084DA84204D1FB
:101960004D6922F4804242EA85124260C3614968AF
:101970000164046230BD0000000001400004014029
:1019800010B5036A046A24F001040462846924F037
:10199000F00444EA021423F00A020A43846102625A
:1019A00010BD10B5036A23F0100303628369046A53
:1019B00023F4704343EA023224F0A00343EA011106
:1019C0008261016210BD000070B5044600680169C3
:1019D000E26821F44051114301612169A068E26984
:1019E00008436169114308432168CA6849F20C63DE
:1019F0009A430243CA6020684169A26921F4407198
:101A00001143416131492068884202D030498842FF
:101A100002D1FEF7D5FF01E0FEF7C2FFE269002325
:101A2000192164253226B2F5004F626828D0A0FB48
:101A30000101930F9200FEF729FC0146B0FBF5F07F
:101A40006FF01802504301EB800006EB0010B0FB72
:101A5000F5F000F0F002B1FBF5F002EB0012B1FB83
:101A6000F5F06FF01803584301EB800006EB00100F
:101A7000B0FBF5F000F00F0021681044886070BDE5
:101A8000A0FB010192185B41FEF700FC0146B0FB90
:101A9000F5F00201B1FBF5F06FF01803584301EBCC
:101AA000800006EBC000B0FBF5F000F0F80002EBA0
:101AB0004002B1FBF5F0584301EB800006EBC0009B
:101AC000B0FBF5F000F00700D6E700000010014081
:101AD00000140140FEE70907090E002804DB00F1AD
:101AE000E02080F80014704700F00F0000F1E020C3
:101AF00080F8141D7047FEF7EFFDFFF7B1FDFFF70B
:101B000027FCFFF7F9FCFFF71BFDFFF765FDFFF76B
:101B100085FDFEE74FF04070E1EE100A70470000CF
:101B2000000000000000010203040607080900008D
:101B30000000010203040000581B00080000002000
:101B400010000000E8010008681B000810000020D9
:101B500090070000040200080100000010000000CF
:081B6000000000000024F40065
:04000005080001AD41
:00000001FF
