:020000040800F2
:10000000500900204D02000867210008D51C000897
:100010006521000843040008A9260008000000002C
:100020000000000000000000000000006B2100083C
:10003000D904000800000000692100086D210008B3
:1000400067020008670200086702000867020008EC
:1000500067020008670200086702000867020008DC
:1000600067020008670200086702000867020008CC
:1000700067020008670200086702000867020008BC
:1000800045040008670200086702000867020008CC
:10009000670200086702000867020008670200089C
:1000A000670200086702000867020008670200088C
:1000B00067020008212200086702000867020008A2
:1000C000670200086702000867020008670200086C
:1000D000670200086702000867020008670200085C
:1000E000DB040008670200086702000867020008D6
:1000F0006702000867020008670200085104000850
:10010000670200086702000867020008670200082B
:10011000670200086702000867020008670200081B
:10012000670200086702000867020008670200080B
:1001300067020008670200086702000867020008FB
:1001400067020008670200086702000867020008EB
:1001500067020008670200086702000867020008DB
:1001600067020008670200086702000867020008CB
:10017000670200086702000867020008000000002C
:1001800067020008670200086702000867020008AB
:10019000670200086702000867020008670200089B
:1001A00067020008670200086702000800F002F812
:1001B00000F03CF80AA090E8000C82448344AAF1C5
:1001C0000107DA4501D100F031F8AFF2090EBAE8C3
:1001D0000F0013F0010F18BFFB1A43F0010318477B
:1001E0004425000064250000103A24BF78C878C177
:1001F000FAD8520724BF30C830C144BF04680C602D
:10020000704700000023002400250026103A28BF74
:1002100078C1FBD8520728BF30C148BF0B60704778
:100220001FB502F069FA1FBD10B510BD00F0CFF880
:100230001146FFF7F5FF02F048FA00F0EDF803B4BD
:10024000FFF7F2FF03BC00F0F5F800000948804713
:1002500009480047FEE7FEE7FEE7FEE7FEE7FEE7A8
:10026000FEE7FEE7FEE7FEE704480549054A064BC0
:100270007047000011220008AD0100085003002063
:1002800050090020500500205005002053EA020CC0
:1002900000F069802DE9F04B4FF00006002B1FBFE6
:1002A000B3FA83F503FA05F424FA05F65E4012BFAB
:1002B0001643B2FA82F502FA05F4C5F120051EBF15
:1002C00022FA05FC44EA0C04203556EA044C4FEAB5
:1002D000144418BF641C4FF000084FF0000990420E
:1002E00071EB030C39D3002919BFB1FA81F701FA78
:1002F00007F6B0FA80F700FA07F6C7F120071EBF2D
:1003000020FA07FC46EA0C062037B6FBF4FCA7EB04
:100310000507103F07F01F0BCBF120060CFA0BFB73
:100320002CFA06F644BFB3460026202FA4BF5E4633
:100330004FF0000B5BEA060C08BF4FF0010B19EB06
:100340000B09ABFB027C48EB0608C01B06FB02CC8A
:100350000BFB03CC71EB0C01C1E70B460246414697
:100360004846BDE8F08B13B54FF000004FF0000198
:10037000AFF30080BDE81C4070474FF0000200B5AD
:10038000134694469646203922BFA0E80C50A0E8B8
:100390000C50B1F12001BFF4F7AF090728BFA0E866
:1003A0000C5048BF0CC05DF804EB890028BF40F832
:1003B000042B08BF704748BF20F8022B11F0804F74
:1003C00018BF00F8012B704770477047704775469B
:1003D00000F02CF8AE4605006946534620F00700B1
:1003E000854618B020B5FFF73FFFBDE820404FF02D
:1003F00000064FF000074FF000084FF0000B21F00F
:100400000701AC46ACE8C009ACE8C009ACE8C009DB
:10041000ACE8C0098D46704710B50446AFF30080C4
:100420002046BDE81040FFF70ABF000000487047B3
:10043000F002002001491820ABBEFEE726000200B2
:100440007047FEE7014800F055B80000EC010020BD
:10045000014800F04FB800004C020020016818234A
:10046000CAB2103AB2FBF3F2054B6FF30901032A4B
:100470009B5CC36500D9091D816508467047000073
:100480000227000810B5014600208B698A6A4FF0E8
:10049000C07453B1B3F5005F15D072B1012A0CD00E
:1004A000022A0AD0032A09D104E01AB1012A06D08F
:1004B000022A03D1C96AC90100D5012010BDC96A49
:1004C000A142FAD010BD002AF7D0012AF2D0022AA8
:1004D000F3D0032AF3D010BD704710B54FF48060FD
:1004E00000F044F9BDE810404FF4005000F03EB970
:1004F00072B6FEE72DE9F84304464FF00009CDF847
:10050000009063484FF41651A56D0068B0FBF1F7F9
:100510002E6894F85C10082000FA01F131420FD0E7
:1005200021680A6852070BD50A6822F004020A60A3
:1005300094F85C108840A860606D40F00100606530
:1005400094F85C104FF0010808FA01F0304208D02E
:1005500021684969090604D5A860606D40F0020071
:10056000606594F85C1004208840304208D021680F
:100570000968890704D5A860606D40F004006065D3
:1005800094F85C1010208840304218D02168096827
:10059000090714D5A86020680168490304D50068DC
:1005A000000308D5A16C07E00168C90503D4016800
:1005B00021F008010160216C09B12046884794F8B8
:1005C0005C1020208840304231D021680968C9067B
:1005D0002DD5A86094F8350005282068016806D05C
:1005E000490347D5006800031DD4616C1CE021F06D
:1005F000160101602068416921F080014161206C91
:1006000008B9A06C20B12068016821F008010160E0
:1006100094F85C103F208840A86084F8358084F806
:100620003490216D1FE0E16B09B120468847606D71
:1006300000282BD0606DC00714D0052084F8350049
:100640002068016821F0010101600098401C0090C1
:10065000B84203D820680068C007F6D184F8358016
:1006600084F83490E16C002910D001B02046BDE838
:10067000F04308470168C905D5D4016821F010018D
:10068000016084F8358084F83490CCE7BDE8F883C5
:100690000C0000202DE9F041044600F093F90646D5
:1006A0005CB1022084F83500002584F834502068BD
:1006B000016821F0010101600DE00120BDE8F08139
:1006C00000F080F9801B052805D9202060650320F3
:1006D00084F83500F2E720680068C007F0D122688E
:1006E000116820480140D4E901031843D4E90336D6
:1006F0003343184363691843A3691843E3691843F4
:10070000236A18430843616A042903D1D4E90B130F
:1007100019430843106020684069666A20F00701A9
:1007200030460E43012704280CD1A06A0643E06A34
:1007300040B12046FFF7A6FE20B14020606584F856
:100740003570BAE7206846612046FFF787FE94F8C7
:100750005C203F2191408160656584F83570002000
:10076000ACE700003F8010F070470000044910B56E
:100770000A68024202D00860FFF7F6FF10BD0000D1
:10078000143C01402DE9F84FDFF8F8A100220124C4
:100790000AF1040B03254FF00F090BF1040E00BF03
:1007A0000B6804FA02F63340B34270D10F7907F0B8
:1007B0000307012F01D0022F16D187684FEA4208A4
:1007C00005FA08FC27EA0C07D1F80CC00CFA08FC63
:1007D0004CEA070CC0F808C04768B7430E79C6F367
:1007E000001696403E4346600E79F643B6070AD09F
:1007F000C7684FEA420C05FA0CF6B7438E6806FA52
:100800000CF63E43C6600E7906F00306022E10D1A8
:10081000D60800EB8608D8F8206057074FEAD76C57
:1008200009FA0CF7BE430F6907FA0CF73743C8F80B
:10083000207006684FEA420C05FA0CF7BE430F79A8
:1008400007F0030707FA0CF7374307604E6816F402
:10085000403F1CD04C4E376847F4804737603668BD
:1008600022F0030706F480460096484E07EB060C7C
:10087000DCF8086897073F0F09FA07F826EA080628
:10088000DFF80C81404503D14FF0000841E072E0F1
:10089000DFF80081404502D14FF0010839E0DFF870
:1008A000F880404502D14FF0020832E0DFF8EC80DA
:1008B000404502D14FF003082BE0DFF8E4804045CB
:1008C00002D14FF0040824E0DFF8D880404502D17F
:1008D0004FF005081DE0DFF8D080404502D14FF011
:1008E000060816E0DFF8C480404502D14FF0070843
:1008F0000FE0DFF8BC80404502D14FF0080808E067
:10090000DFF8B080404502D14FF0090801E04FF018
:100910000A0808FA07F848EA0608CCF80888DAF85E
:1009200000605746D1F804C09E435FEACC3C00D536
:100930001E433E60DBF800605F46D1F804C09E4372
:100940005FEA8C3C00D51E433E60DEF800607746CF
:10095000D1F804C09E435FEACC2C00D51E433E6014
:10096000084F0C373E68D1F804C09E435FEA8C2CD8
:1009700000D51E433E60521C102AFFF411AFBDE8A3
:10098000F88F0000003C0140443802400030014034
:10099000000002400004024000080240000C024037
:1009A000001002400014024000180240001C0240E7
:1009B00000200240002402400AB18161704709040E
:1009C000FBE700000148806870470000000000203D
:1009D00090F83D20202A01D002207047242280F880
:1009E0003D200268136823F0010313600268536A14
:1009F00023F0100353620268536A0B435362016889
:100A00000A6842F001020A60202180F83D100020AF
:100A1000704790F83D20202A01D002207047242200
:100A200080F83D200268136823F001031360036817
:100A30005A6A22F00F020A4391B2596201680A68A9
:100A400042F001020A60202180F83D10002070472A
:100A500070B5040025D094F83D00002520B984F835
:100A60003C50204600F0B8F8242084F83D0020686F
:100A7000016821F0010101602068016841F4004132
:100A800001602068016821F40041016000F046FA2D
:100A90004D4A6168914201D84C4900E04C49884276
:100AA00001D2012070BD4B492368B0FBF1F15E68B3
:100AB00026F03F060E435E606368934206D94FF40A
:100AC000967359434FF47A73B1FBF3F12368491CD1
:100AD0001E6A26F03F06314319626168914210D8C0
:100AE0004900401EB0FBF1F2521CC2F30B02042A73
:100AF00001D2042022E0B0FBF1F0401CC0F30B0057
:100B00001CE0A268F2B301EBC10303EB0116431E24
:100B1000B3FBF6F35B1C43F480431B0549D092B34F
:100B200001EBC10202EB0111401EB0FBF1F0401CD1
:100B3000C0F30B0040F4804040F400402168CA69D3
:100B40004CF6FF739A431043C861D4E90710014380
:100B50002068026822F0C00211430160D4E9030159
:100B600001432068826848F2FF339A431143816051
:100B7000D4E9050108432168CA6822F0FF02104346
:100B8000C86001E00EE016E02068016841F0010154
:100B900001602564202084F83D00256384F83E50E0
:100BA000002070BD01EB4106431EB3FBF6F35B1C56
:100BB000B3E70120C2E701EB4101401EB0FBF1F0B9
:100BC000401CC0F30B00B7E7A086010080841E0024
:100BD00000093D0040420F0010B586B004461421C4
:100BE0006846FFF7CAFB14492068884221D11348A0
:100BF0000021026842F002020260006800F0020078
:100C000005904FF4407000901220CDE901010320BF
:100C100003900420049069460948FFF7B3FD074894
:100C20001030016841F400110160006800F4001008
:100C3000059006B010BD000000540040303802405E
:100C400000040240024881680278114481607047C4
:100C5000000000200B4810B5016841F400710160EC
:100C6000016841F480610160016841F480710160B4
:100C7000032000F06FF8002000F006F800F024F8E0
:100C8000002010BD003C024070B50D4D04464FF4ED
:100C90007A712878B1FBF0F00A490968B1FBF0F0ED
:100CA00000F0F4FB48B9102C07D200222146501E58
:100CB00000F030F800206C6070BD012070BD0000B5
:100CC000000000200C0000200A4808B5016841F42B
:100CD00080410160006800F4804000900548001FDA
:100CE000016841F080510160006800F08050009080
:100CF00008BD000044380240002809DB00F01F0254
:100D0000012191404009800000F1E020C0F800116D
:100D100070470000F0B40E4B1B680C46C3F302236F
:100D2000C3F10705042D00D90425191D072901D297
:100D3000002300E0DB1E012606FA05F1491E2140D2
:100D400099409E40761E16403143F0BC01F0ADBC88
:100D50000CED00E0064900F0070208684FF6FF03BB
:100D6000184040EA0220034A104308607047000020
:100D70000CED00E00000FA052DE9F8431748016882
:100D800041F0805101600068154F00F0805001264D
:100D900000903E64FFF716FE05464FF47A78114C3A
:100DA00005E000BFFFF70EFE401B40450DD8606810
:100DB000C003F7D57E64FFF705FE0546464607E00B
:100DC000FFF700FE401BB04202D90320BDE8F883C4
:100DD00060688003F4D50020F8E700004038024046
:100DE00000000E42007000402DE9F0470E4605005D
:100DF00065D0DFF81481D8F80000F7B200F00F00DA
:100E0000B04207D288F80070D8F8000000F00F0058
:100E1000B04254D128683D4C810712D5400703D514
:100E2000206840F4E05020602878000703D520684F
:100E300040F4604020602068A96820F0F00008437A
:100E400020602878C0072DD030496868083901280B
:100E500012D0022813D0032811D00968890700296D
:100E60002DDA216821F0030101432160FFF7AAFD7B
:100E7000814641F2883A0EE009688903EFE7096884
:100E80008901ECE7FFF79EFDA0EB0901514502D96E
:100E90000320BDE8F0872068696800F00C00B0EB23
:100EA000810FEFD1D8F80010404601F00F01B14298
:100EB00007D90770006800F00F00B04201D0012090
:100EC000E7E72878400705D52068E96820F4E05076
:100ED000084320602878000706D52068296920F497
:100EE000604040EAC100206000F038F82168084AFC
:100EF000C1F30311515CC840064908600648006808
:100F0000FFF7C2FE0020C4E7003C02400838024060
:100F10000A2700080C0000200400002004480549AE
:100F200000680968044AC1F38221515CC8407047D7
:100F30000C000020083802401A2700080448054920
:100F400000680968044AC1F34231515CC8407047E7
:100F50000C000020083802401A270008154810B578
:100F6000006810F00C02144813D04110042A0FD06E
:100F7000082A0ED10F4C241F2268236802F03F027A
:100F80005B0207D52068C0F38810A0FB010106E0D2
:100F9000084610BD2168C1F38811A1FB00010023A0
:100FA000FFF774F92168C1F30141491C4900B0FB06
:100FB000F1F010BD083802400024F4002DE9F84F8C
:100FC00004006ED02078DFF84C93C007A9F1040527
:100FD0004AD009F104000168C1F38101012908D058
:100FE0000068C0F3810002280AD1D9F8000040024D
:100FF00006D52868800337D560680028E1D033E043
:101000006068B0F5803F10D0B0F5A02F286810D0F0
:1010100020F480302860286820F4802028606068F0
:10102000A8B1FFF7CFFC06460DE0286840F48030F9
:10103000F4E740F480202860F7E700BFFFF7C2FC28
:10104000801B642873D828688003F7D50CE0FFF76D
:10105000B9FC064605E000BFFFF7B4FC801B64281E
:10106000F0D828688003F7D42078DFF8AC828007B6
:101070004FF0000A3ED5A748001D016811F00C0F83
:1010800008D00068C0F3810002280BD1D9F8000015
:10109000400207D42868800716D5E068012800D1EF
:1010A00012E033E1E068B8B10120C8F80000FFF7B2
:1010B00089FC064605E000BFFFF784FC801B022880
:1010C000C0D828688007F7D52868216920F0F80083
:1010D00040EAC10028600DE0C8F800A0FFF772FCEC
:1010E000064604E0FFF76EFC801B02281FD8286824
:1010F0008007F7D42078000722D5864F874861699A
:10110000703771B101210160FFF75CFC064604E015
:10111000FFF758FC801B022809D838688007F7D5EC
:101120000EE0C0F800A0FFF74DFC064605E082E0A7
:10113000FFF748FC801B02287DD838688007F7D469
:101140002078400768D5DFF8CCB100270BF13C0BC5
:10115000DBF80000C0000BD4DBF8001041F0805138
:10116000CBF80010DBF80000012700F08050009061
:101170006B4E3068C00510D4306840F48070306029
:10118000FFF720FC009005E0FFF71CFC0099401AD7
:10119000022850D83068C005F6D55E4EA0686C367F
:1011A00001280FD00528306810D020F001003060F1
:1011B000306820F004003060A068B8B1FFF702FC8E
:1011C00000900FE0306840F00100F4E740F00400C8
:1011D0003060F7E7FFF7F6FB0099411A41F28830DB
:1011E000814266D830688007F4D50EE0FFF7EAFB4D
:1011F000009007E0FFF7E6FB0099411A41F28830C2
:10120000814256D830688007F4D42FB1DBF8001043
:1012100021F08051CBF80010A069C8B33D49091DE9
:101220000968C1F3810102294AD00228504607D03B
:10123000C8F8600000E03CE0FFF7C4FB04463BE078
:101240004746C8F86000FFF7BDFB064605E000BF53
:10125000FFF7B8FB801B02282BD828688001F7D441
:10126000D4E907010843A16A2E4A490802EB01416B
:10127000626A41EA8211084394F82C1040EA016145
:10128000C9F8001001203866FFF79CFB044606E011
:101290003EE000BFFFF796FB001B022809D8286834
:1012A0008001F7D534E000BFFFF78CFB001B02285C
:1012B00002D90320BDE8F88F28688001F4D427E024
:1012C0000128F7D0D9F80000E26900F480019142CA
:1012D0001CD1226A00F03F01914217D147F6C0713C
:1012E000626A0140B1EB821F10D1A26A4FF0FF3356
:1012F00000F4403103EB5202B1EB024F06D194F8F7
:101300002C1000F07060B0EB016F01D00120D1E72C
:101310000020CFE70438024000004742800E4742D9
:10132000007000400000FFFF70B5040009D0606A43
:10133000002540B125616561A56294F8510040B176
:101340000CE0012070BD6068B0F5827FF4D0E561EB
:10135000F2E784F85050204600F044F8022084F868
:1013600051002068016821F040010160A0882189B6
:1013700000F4827001F404410843A18901F4006182
:101380000843217C01F002010843217D01F00101A5
:101390000843218B01F400710843217F01F03801DB
:1013A000084394F8201001F080010843218D01F4D6
:1013B0000051084321680860A069042101EA104037
:1013C00094F8241001F01001084321684860206857
:1013D000C16921F40061C1616565012084F8510093
:1013E000002070BD70B586B0044614216846FEF733
:1013F000C4FF2248204E25680024204910380222CC
:101400000323B54218D10D6845F480450D60096885
:1014100001F480410591016841F00201016000681A
:10142000694600F002000590B0008DE81500052027
:10143000CDE9033012481BE0124EB5421AD10D68B7
:1014400045F400450D60096801F40041059101680B
:1014500041F0040101600068694600F00400059055
:101460004FF4E0508DE815000620CDE90330064822
:10147000FFF788F906B070BD0038004040380240E0
:1014800000040240003C00400008024010B5401E2D
:10149000B0F1807F01D3012010BD4FF0E0246061E6
:1014A0000F21601701F001F90020A06107202061E1
:1014B000002010BD7047704770B590F83C20012A9D
:1014C00032D0012480F83C40022280F83D2003689D
:1014D0005A689D6822F070060A6832435A60134BBE
:1014E00002689A4214D0B2F1804F11D0104B9A4248
:1014F0000ED0104B9A420BD00F4B9A4208D00F4B94
:101500009A4205D00E4B9A4202D00E4B9A4204D119
:10151000496825F080031943916080F83D4000211F
:1015200080F83C10084670BD022070BD00000140EC
:101530000004004000080040000C0040000401408E
:10154000004001400018004010B5040003D094F89A
:101550003D0010B107E0012010BD002084F83C00E0
:10156000204600F01FF8022084F83D00211D20686D
:1015700000F05CFE012084F8460084F83E0084F808
:101580003F0084F8400084F8410084F8420084F869
:10159000430084F8440084F8450084F83D000020AE
:1015A00010BD00002DE9F04786B0064614216846BC
:1015B000FEF7E3FE3B4A31683B48002491425AD192
:1015C000016841F002010160006800F0020005902E
:1015D00035481038016841F004010160006869462F
:1015E00000F0040005904FF4C07000900220CDE997
:1015F0000104CDE903402D48FFF7C4F82D4D2C48D8
:101600004FF020672860C5E9017405F10C014FF423
:1016100080684FF400694FF4005A81E81007EC61CC
:101620002C6228466C62FFF735F808B1FEF760FFC0
:10163000B562AE631F4D1E48603530302860C5E985
:10164000017405F10C01284681E81007EC612C6259
:101650006C62FFF71FF808B1FEF74AFFF56200223F
:1016600011461D20AE63FFF755FB1D20FFF744FB1D
:1016700006B0BDE8F087104A914207D1016841F0F9
:1016800004010160006800F0040009E00B4A914287
:10169000EED1016841F020010160006800F02000F7
:1016A0000590E5E700040040403802400008024091
:1016B00088600240EC010020000800400014004057
:1016C00070B5044690F83C000025012817D001268B
:1016D00084F83C60022084F83D002068826822F093
:1016E000770222F47F4282600868502838D00DDCEF
:1016F00020284FD005DC90B3102811D14AE00220F9
:1017000070BD302846D040280AD13BE060282FD059
:1017100070280DD0B0F5805F03D0B0F5005F12D017
:10172000012584F83D60002084F83C00284670BD07
:10173000CB68D1E90121206800F0DCFD20688168D8
:1017400041F0770109E0CB68D1E90121206800F080
:10175000D1FD2068816841F480418160E1E719E0B2
:10176000CA684968206800F099FE5021206806E0A8
:10177000CA684968206800F0E3FE6021206800F034
:10178000C3FDCEE7CA684968206800F087FE4021A3
:101790002068F4E7226801461046F0E770472DE91B
:1017A000F041054690F83C0000260C46012810D078
:1017B000012085F83C0072B1042A1CD0082A2CD0E4
:1017C0000C2A50D00126002085F83C003046BDE8A8
:1017D000F0810220FBE7D4E90012E368286800F0FA
:1017E0006FFE2868816921F00C0181612868816998
:1017F000A26811430FE0D4E90012E368286800F002
:10180000B1FE2868816921F440618161286881699D
:10181000A26841EA02218161D5E72868D4E9002C59
:10182000277B016A21F480710162C169036A21F09A
:10183000030141EA0C0121F0F00C39074FF4206755
:101840004CEA116123F4206307EA02221A43C161C2
:1018500002622868C16921F00C01C1612868C16970
:10186000A268114328E02868D4E90027E168036AE8
:1018700023F480530362D0F81CC0036A2CF4407C2C
:101880004CEA07274FF6FF7C27F470470CEA01313A
:1018900039434FF4204723F4204307EA02321A4326
:1018A000C16102622868C16921F44061C161286890
:1018B000C169A26841EA0221C16184E710B5040050
:1018C00003D094F83D0010B107E0012010BD0020C6
:1018D00084F83C00204600F01EF8022084F83D0009
:1018E000211D206800F0A2FC012084F8460084F845
:1018F0003E0084F83F0084F8400084F8410084F8FA
:10190000420084F8430084F8440084F8450084F8D9
:101910003D00002010BD704770B5044600680169A5
:101920004FF00005C943890715D4C168C943890729
:1019300011D4E91E016101202077206880698007A9
:10194000204602D0FFF72AFF04E000F0C3F820464B
:1019500000F055F9257720680169C943490717D474
:10196000C168C943490713D46FF004010161022023
:1019700020772068806910F4407F204602D0FFF76E
:101980000DFF04E000F0A6F8204600F038F92577B6
:1019900020680169C943090716D4C168C94309070A
:1019A00012D46FF008010161042020772068C0691B
:1019B0008007204602D0FFF7F1FE04E000F08AF82D
:1019C000204600F01CF9257720680169C943C90643
:1019D00017D4C168C943C90613D46FF0100101615F
:1019E000082020772068C06910F4407F204602D08C
:1019F000FFF7D4FE04E000F06DF8204600F0FFF899
:101A0000257720680169C943C90708D1C168C9435E
:101A1000C90704D1891E0161204600F0F1F8206851
:101A20000169C943090609D4C168C943090605D437
:101A30006FF0800101612046FFF73CFD20680169DD
:101A4000C943490609D4C168C943490605D46FF0A2
:101A500040010161204600F0D4F820680169C943C3
:101A600089060BD4C168C943890607D46FF02001E9
:101A700001612046BDE87040FFF71DBD70BD00004C
:101A800010B586B0044614216846FEF776FC0E4970
:101A90002068884215D10D480021026842F00802F2
:101AA0000260006800F0080005904FF4805000903C
:101AB0000220CDE90101CDE9031069460448FEF793
:101AC00061FE06B010BD0000000800403038024042
:101AD000000C0240704770B5044690F83C000026A8
:101AE0000D4601280FD0012084F83C006AB1042A79
:101AF0001DD0082A2FD00C2A3FD00126002084F8C0
:101B00003C00304670BD022070BD206800F004FC2F
:101B10002068816941F0080181612068816921F0B4
:101B200004018161206881692A69114311E02068FC
:101B300000F022FC2068816941F400618161206825
:101B4000816921F480618161206881692A6941EAA3
:101B500002218161D2E7206800F044FC2068C1695D
:101B600041F00801C1612068C16921F00401C1612F
:101B70002068C1692A69114311E0206800F066FC01
:101B80002068C16941F40061C1612068C16921F424
:101B90008061C1612068C1692A6941EA0221C1618D
:101BA000ACE710B5040003D094F83D0010B107E095
:101BB000012010BD002084F83C00204600F01EF8F3
:101BC000022084F83D00211D206800F02FFB012039
:101BD00084F8460084F83E0084F83F0084F8400012
:101BE00084F8410084F8420084F8430084F84400FB
:101BF00084F8450084F83D00002010BD7047704710
:101C00007047704770B5040004D094F83D0000257B
:101C100010B106E0012070BD84F83C50204600F071
:101C200023F8242084F83D002068C16821F4005185
:101C3000C160204600F0B2FC2068016921F49041A7
:101C400001612068416921F02A0141612068C16871
:101C500041F40051C1602564202084F83D0084F8DF
:101C60003E00002070BD000010B586B0044614216F
:101C70006846FEF782FB14492068884221D1134848
:101C80000021026842F480220260006800F4802093
:101C900005900E481038026842F0020202600068A7
:101CA00000F0020005904FF4406000900220CDE962
:101CB0000101032003900720049069460448FEF7C1
:101CC00061FD06B010BD00000048004040380240F1
:101CD00000040240FEE700000D4808B5016841F429
:101CE000001101600068002200F40010009011460D
:101CF0001020FFF70FF81020FEF7FEFF002211461C
:101D00002F20FFF707F8BDE808402F20FEF7F4BFAB
:101D1000303802402DE9F04F87B014216846FEF7B5
:101D20002CFB5F480024016841F004010160016858
:101D300001F004010591016841F080010160016832
:101D400001F080010591016841F001010160016825
:101D500001F001010591016841F002010160016893
:101D600001F002010591016841F00801016001687C
:101D700001F008010591016841F04001016000682F
:101D8000002200F04000059081214648FEF714FE35
:101D9000DFF814B14FF4827A012251465846FEF71B
:101DA0000BFE002240214148FEF706FE4FF4005092
:101DB0004FF48819CDE900093D4F69460294384631
:101DC000FEF7E0FC32200225CDE9000502AA032639
:101DD0004FF00B0882E8500169463846FEF7D2FC06
:101DE0008620CDE9000502AA694682E85001314803
:101DF000FEF7C8FC812000900127CDE901746946F7
:101E000028480394FEF7BEFCCDF800A0CDE901748C
:101E1000694658460397FEF7B5FC6802CDE900090C
:101E2000694602945846FEF7ADFC40200090CDE98B
:101E3000017469461D480394FEF7A4FC8020CDE997
:101E40000004694619480294FEF79CFC4FF4E850E0
:101E5000CDE9000502940A20CDE9036069461548E2
:101E6000FEF790FC2802CDE900046946114802946F
:101E7000FEF788FC4FF42050CDE9000502AA694620
:101E800082E850010948FEF77DFC00221146282017
:101E9000FEF740FF2820FEF72FFF07B0BDE8F08FC8
:101EA0003038024000040240000C0240001802409A
:101EB0000008024000000240144810B512490160B9
:101EC0001349416000214FF480428160C0E9031250
:101ED00041618161C1610162FEF7BAFD08B1FEF79F
:101EE00007FB00210948FEF773FD08B1FEF700FB70
:101EF00000210648FEF78DFD002803D0BDE8104004
:101F0000FEF7F6BA10BD000000540040100000209B
:101F1000A0860100104810B50E4901604FF482718F
:101F2000416000218160C1604FF400720161C0E92D
:101F300005120822C0E90721416281620A21C162BB
:101F4000FFF7F2F9002803D0BDE81040FEF7D0BA41
:101F500010BD00000038004064000020104810B59B
:101F60000E4901604FF48271416000218160C160BF
:101F70004FF400720161C0E905121022C0E9072187
:101F8000416281620A21C162FFF7CEF9002803D0C5
:101F9000BDE81040FEF7ACBA10BD0000003C0040A8
:101FA000BC00002010B58AB0002427480494059492
:101FB000069407940894099400940194029421498A
:101FC000039401601D21C0E901144EF65F21C0E9B0
:101FD000031480218161FFF7B7FA08B1FEF788FA90
:101FE0004FF48050049004A91748FFF769FB08B12B
:101FF000FEF77EFA1448FFF761FC08B1FEF778FAA5
:10200000089408A910480994FFF756FA08B1FEF79A
:102010006FFA0120CDE900400F20CDE902400422F3
:1020200069460948FFF7BBFB08B1FEF761FA0822D1
:1020300069460548FFF7B3FB002801D0FEF758FAC0
:102040000AB010BD000400401401002010B58EB08D
:1020500000240794089409940A940B941C21684660
:102060000C94FEF78AF91F481D4901604A21C0E916
:1020700001144EF65F21C0E9031480218161FFF74E
:1020800063FA08B1FEF734FA4FF48050079007A9BD
:102090001448FFF715FB08B1FEF72AFA1148FFF7BD
:1020A00080FD08B1FEF724FA0B940BA90D480C949F
:1020B000FFF702FA08B1FEF71BFA6020CDE9000431
:1020C00002940022694607480494FFF704FD08B112
:1020D000FEF70EFA0348FFF7D3FC0EB010BD000068
:1020E000000800405C0100201CB500240E4800944C
:1020F0000C490194C0E900144FF6FF71C0E9024198
:102100008461FFF721FA08B1FEF7F2F900946946FD
:1021100005480194FFF7D0F9002801D0FEF7E8F94F
:102120001CBD000000140040A40100200C4810B5A4
:102130000A4901604FF4E1314160002181600C22C5
:10214000C160C0E904128161C161FFF75BFD002835
:1021500003D0BDE81040FEF7CBB910BD00480040E9
:10216000AC020020FEE7FEE770477047FEF76ABD4D
:1021700030B593B030216846FEF7FFF814210CA863
:10218000FEF7FBF820480025016841F0805101600E
:10219000006800F0805011901C48016841F44041F3
:1021A00001600068022400F440401190012000907A
:1021B0004FF4A02001906005CDE9064008AA042054
:1021C000B42182E813000B906846FEF7F7FE08B1D1
:1021D00072B6FEE7FEF7D0FD08B172B6FEE70CA9B5
:1021E0000F2081E831004FF4A0500F904FF4805041
:1021F000109005210CA8FEF7F7FD002801D072B65B
:10220000FEE713B030BD00004038024000700040CF
:102210000248016841F470010160704788ED00E0F8
:102220000148FFF779BB000014010020F0B50268F7
:10223000254C264D264E274F274B4FF0804CA04271
:1022400009D0604507D0A84205D0B04203D0B842BB
:1022500001D0984204D122F0700E4A6842EA0E0280
:10226000A0421BD0604519D0A84217D0B04215D06B
:10227000B84213D0984211D0184DA8420ED0184D34
:10228000A8420BD0174DA84208D0174DA84205D040
:10229000164DA84202D0164DA84203D122F4407533
:1022A000CA682A434D6922F080022A4302608A6884
:1022B000C2620A688262A04201D0984201D10969D3
:1022C000016301214161F0BD0000014000040040B4
:1022D00000080040000C00400004014000400140A4
:1022E000004401400048014000180040001C00402C
:1022F0000020004010B5846842EA032224F47F44A1
:102300000A432243826010BD826822F070020A43B1
:1023100042F0070181607047F0B5026A22F00102C5
:102320000262036A42688469124E24F073050C68E5
:102330002C4323F002058B682B430D4DA84201D09E
:10234000B04205D123F00807CB683B4323F00403D8
:10235000A84201D0B04205D14D6922F44072154324
:102360008A692A4342608461496841630362F0BD1F
:102370000000014000040140F0B5026A22F01002A2
:102380000262026A436884690D6824F4E64444EA00
:1023900005248D6822F0200242EA05120F4D104EEE
:1023A000A84201D0B04206D1CF6822F0800242EAB2
:1023B000071222F04002A84201D0B04207D14D6975
:1023C00023F4406343EA85038D6943EA8503436050
:1023D0008461496881630262F0BD00000000014031
:1023E00000040140F0B5026A22F480720262026ABF
:1023F0004368C46922F4007224F073050C68124E1D
:102400002C438D6842EA05220E4DA84201D0B0420D
:1024100006D1CF6822F4006242EA072222F48062E9
:10242000A84201D0B04207D14D6923F4405343EA9A
:1024300005138D6943EA05134360C4614968C163AC
:102440000262F0BD000001400004014030B5026AA4
:1024500022F480520262046A4268C3690D6823F460
:10246000E64343EA05238D6824F4005444EA053426
:10247000084DA84202D0084DA84204D14D6922F46B
:10248000804242EA85124260C36149680164046285
:1024900030BD0000000001400004014010B5036A97
:1024A000046A24F001040462846924F0F00444EA1C
:1024B000021423F00A020A438461026210BD000084
:1024C00070B5046A24F0010404628469056A154E3B
:1024D000B04214D0B0F1804F11D0134EB0420ED0A4
:1024E000124EB0420BD0124EB04208D0114EB04244
:1024F00005D0114EB04202D0104EB04203D124F0AC
:102500000304144301E044F001041A0724F0F0042A
:1025100044EA126225F00A0301F00A0119438261BC
:10252000016270BD0000014000040040000800404E
:10253000000C004000040140004001400018004031
:1025400010B5036A23F0100303628369046A23F45D
:10255000704343EA023224F0A00343EA011182618E
:10256000016210BD30B5046A24F01004046284696D
:10257000056A24F4407444EA022222F470444FF6BF
:10258000FF7202EA03322243A02425F0A00304EAEA
:10259000011119438261016230BD000070B504462B
:1025A00000680169E26821F4405111430161216929
:1025B000A068E26908436169114308432168CA6859
:1025C00049F20C639A430243CA6020684169A269D8
:1025D00021F440711143416131492068884202D0A1
:1025E0003049884202D1FEF7A9FC01E0FEF796FCD3
:1025F000E2690023192164253226B2F5004F626892
:1026000028D0A0FB0101930F9200FDF73FFE014689
:10261000B0FBF5F06FF01802504301EB800006EBC1
:102620000010B0FBF5F000F0F002B1FBF5F002EBAA
:102630000012B1FBF5F06FF01803584301EB800076
:1026400006EB0010B0FBF5F000F00F00216810441D
:10265000886070BDA0FB010192185B41FDF716FE7A
:102660000146B0FBF5F00201B1FBF5F06FF0180385
:10267000584301EB800006EBC000B0FBF5F000F022
:10268000F80002EB4002B1FBF5F0584301EB80008B
:1026900006EBC000B0FBF5F000F00700D6E7000045
:1026A0000010014000140140FEE70907090E002850
:1026B00004DB00F1E02080F80014704700F00F0008
:1026C00000F1E02080F8141D7047FEF7C3FAFFF711
:1026D0004FFDFFF71FFBFFF71DFCFFF763FCFFF744
:1026E00003FDFFF7F9FAFFF721FDFFF7AFFCFFF756
:1026F00035FCFFF7E1FBFEE74FF04070E1EE100A1A
:1027000070470006101600061016000000000000BA
:10271000000001020304060708090000000001028E
:1027200003040000442700080000002010000000FF
:10273000E8010008542700081000002040090000AC
:10274000040200080100000010000000000000006A
:042750000024F4006D
:04000005080001AD41
:00000001FF
