:020000040800F2
:10000000880900204D0200084B2A00082924000816
:10001000492A0008430400083531000800000000A8
:10002000000000000000000000000000F92B0008A4
:10003000F9060008000000004D2A0008FB2B00080C
:1000400067020008670200086702000867020008EC
:1000500067020008670200086702000867020008DC
:1000600067020008670200086702000867020008CC
:1000700067020008670200086702000867020008BC
:1000800065060008670200086702000867020008AA
:10009000670200086702000867020008670200089C
:1000A000670200086702000867020008670200088C
:1000B00067020008AD2C000867020008670200080C
:1000C000670200086702000867020008670200086C
:1000D000670200086702000867020008670200085C
:1000E000FB060008670200086702000867020008B4
:1000F000670200086702000867020008710600082E
:10010000670200086702000867020008670200082B
:10011000670200086702000867020008670200081B
:10012000670200086702000867020008670200080B
:1001300067020008670200086702000867020008FB
:1001400067020008670200086702000867020008EB
:1001500067020008670200086702000867020008DB
:1001600067020008670200086702000867020008CB
:10017000670200086702000867020008000000002C
:1001800067020008670200086702000867020008AB
:10019000670200086702000867020008670200089B
:1001A00067020008670200086702000800F002F812
:1001B00000F03CF80AA090E8000C82448344AAF1C5
:1001C0000107DA4501D100F031F8AFF2090EBAE8C3
:1001D0000F0013F0010F18BFFB1A43F0010318477B
:1001E000EC3000000C310000103A24BF78C878C110
:1001F000FAD8520724BF30C830C144BF04680C602D
:10020000704700000023002400250026103A28BF74
:1002100078C1FBD8520728BF30C148BF0B60704778
:100220001FB503F03DF81FBD10B510BD00F0CFF8AD
:100230001146FFF7F5FF02F0A9FF00F0EDF803B457
:10024000FFF7F2FF03BC00F0F5F800000948804713
:1002500009480047FEE7FEE7FEE7FEE7FEE7FEE7A8
:10026000FEE7FEE7FEE7FEE704480549054A064BC0
:10027000704700009D2C0008AD0100088803002095
:1002800088090020880500208805002053EA020C18
:1002900000F069802DE9F04B4FF00006002B1FBFE6
:1002A000B3FA83F503FA05F424FA05F65E4012BFAB
:1002B0001643B2FA82F502FA05F4C5F120051EBF15
:1002C00022FA05FC44EA0C04203556EA044C4FEAB5
:1002D000144418BF641C4FF000084FF0000990420E
:1002E00071EB030C39D3002919BFB1FA81F701FA78
:1002F00007F6B0FA80F700FA07F6C7F120071EBF2D
:1003000020FA07FC46EA0C062037B6FBF4FCA7EB04
:100310000507103F07F01F0BCBF120060CFA0BFB73
:100320002CFA06F644BFB3460026202FA4BF5E4633
:100330004FF0000B5BEA060C08BF4FF0010B19EB06
:100340000B09ABFB027C48EB0608C01B06FB02CC8A
:100350000BFB03CC71EB0C01C1E70B460246414697
:100360004846BDE8F08B13B54FF000004FF0000198
:10037000AFF30080BDE81C4070474FF0000200B5AD
:10038000134694469646203922BFA0E80C50A0E8B8
:100390000C50B1F12001BFF4F7AF090728BFA0E866
:1003A0000C5048BF0CC05DF804EB890028BF40F832
:1003B000042B08BF704748BF20F8022B11F0804F74
:1003C00018BF00F8012B704770477047704775469B
:1003D00000F02CF8AE4605006946534620F00700B1
:1003E000854618B020B5FFF73FFFBDE820404FF02D
:1003F00000064FF000074FF000084FF0000B21F00F
:100400000701AC46ACE8C009ACE8C009ACE8C009DB
:10041000ACE8C0098D46704710B50446AFF30080C4
:100420002046BDE81040FFF70ABF000000487047B3
:100430002803002001491820ABBEFEE72600020079
:100440007047FEE710B588B0002106910791009132
:1004500004460191029103910491059101F0FCFF82
:10046000002852D002F096F800284ED006AA232188
:10047000202002F0D3F807AA2721242002F0CEF88A
:100480006A460321002002F0C9F801AA07210420CE
:1004900002F0C4F802AA0B21082002F0BFF803AA58
:1004A0001321102002F0BAF804AA1721142002F038
:1004B000B5F805AA1B21182002F0B0F8042160202D
:1004C00002F090F80121702002F08CF8012C01D08C
:1004D00054B115E000212A2002F084F8E5212920FA
:1004E00002F080F8832108E000212A2002F07AF847
:1004F000C921292002F076F88221282002F072F822
:1005000002F05DF8002800D0012008B010BD7FB5D2
:100510000446002601F08AFF60F3070515F0C00FBE
:1005200042D0C5F38110012809D00021032808D04A
:100530000022114307D00D226946902008E00121D6
:10054000F4E70122F5E7022804D10D226946942040
:1005500001F0D6FFC5F3C100022828D00120207089
:100560009DF800009DF80110C00000EB5110606084
:100570009DF8040020729DF8050060729DF8060049
:10058000A0729DF80700E0729DF8080020739DF8A6
:10059000090060739DF80A00A0739DF80B00E073DA
:1005A0009DF80C002074012604B0304670BD022076
:1005B00020709DF800309DF80100DB0000F0030280
:1005C0009DF8025003EB50109DF8031002EB8000E1
:1005D00005EB002001EB0020C9E7000070B52049C1
:1005E000002504460D704D708D70CD7001F0A8FF90
:1005F00001461B4804F109060838017000684107EC
:100600000CD42178164A606802F0A5FD227A3346A0
:100610001349402001F036FF81201CE0C1060CD4B4
:1006200021780F4A606802F096FD227A33460C4921
:10063000422001F027FF82200DE040060ED42178F1
:10064000074A606802F087FD227A33460449442055
:1006500001F018FF842001F089FF0125284670BDB4
:1006600008000020014800F055B800006802002092
:10067000014800F04FB80000C802002001681823AC
:10068000CAB2103AB2FBF3F2054B6FF30901032A29
:100690009B5CC36500D9091D816508467047000051
:1006A000AA32000810B5014600208B698A6A4FF013
:1006B000C07453B1B3F5005F15D072B1012A0CD0EC
:1006C000022A0AD0032A09D104E01AB1012A06D06D
:1006D000022A03D1C96AC90100D5012010BDC96A27
:1006E000A142FAD010BD002AF7D0012AF2D0022A86
:1006F000F3D0032AF3D010BD704710B54FF48060DB
:1007000000F07AF9BDE810404FF4005000F074B9E1
:1007100072B6FEE72DE9F84304464FF00009CDF824
:10072000009063484FF41651A56D0068B0FBF1F7D7
:100730002E6894F85C10082000FA01F131420FD0C5
:1007400021680A6852070BD50A6822F004020A6081
:1007500094F85C108840A860606D40F0010060650E
:1007600094F85C104FF0010808FA01F0304208D00C
:1007700021684969090604D5A860606D40F002004F
:10078000606594F85C1004208840304208D02168ED
:100790000968890704D5A860606D40F004006065B1
:1007A00094F85C1010208840304218D02168096805
:1007B000090714D5A86020680168490304D50068BA
:1007C000000308D5A16C07E00168C90503D40168DE
:1007D00021F008010160216C09B12046884794F896
:1007E0005C1020208840304231D021680968C90659
:1007F0002DD5A86094F8350005282068016806D03A
:10080000490347D5006800031DD4616C1CE021F04A
:10081000160101602068416921F080014161206C6E
:1008200008B9A06C20B12068016821F008010160BE
:1008300094F85C103F208840A86084F8358084F8E4
:100840003490216D1FE0E16B09B120468847606D4F
:1008500000282BD0606DC00714D0052084F8350027
:100860002068016821F0010101600098401C00909F
:10087000B84203D820680068C007F6D184F83580F4
:1008800084F83490E16C002910D001B02046BDE816
:10089000F04308470168C905D5D4016821F010016B
:1008A000016084F8358084F83490CCE7BDE8F883A3
:1008B0001C0000202DE9F041044600F0D5F9064661
:1008C0005CB1022084F83500002584F8345020689B
:1008D000016821F0010101600DE00120BDE8F08117
:1008E00000F0C2F9801B052805D92020606503208F
:1008F00084F83500F2E720680068C007F0D122686C
:10090000116820480140D4E901031843D4E90336B3
:100910003343184363691843A3691843E3691843D1
:10092000236A18430843616A042903D1D4E90B13ED
:1009300019430843106020684069666A20F0070187
:1009400030460E43012704280CD1A06A0643E06A12
:1009500040B12046FFF7A6FE20B14020606584F834
:100960003570BAE7206846612046FFF787FE94F8A5
:100970005C203F2191408160656584F835700020DE
:10098000ACE700003F8010F070B5044600F06CF951
:100990000546601C02D004480078044400F064F965
:1009A000401BA042FAD370BD1000002070B54FF478
:1009B0008065A84217D100F057F90B4C2168401A06
:1009C000642806D98021094800F041F90848FFF75A
:1009D00005FE084E2946304600F034F90028F9D0CB
:1009E00000F042F9206070BD0C00002000040240BD
:1009F00040020020000C0240044910B50A6802427F
:100A000002D00860FFF7D2FF10BD0000143C014087
:100A10002DE9F84FDFF8F8A1002201240AF1040BB8
:100A200003254FF00F090BF1040E00BF0B6804FA09
:100A300002F63340B34270D10F7907F00307012F5C
:100A400001D0022F16D187684FEA420805FA08FC48
:100A500027EA0C07D1F80CC00CFA08FC4CEA070C8A
:100A6000C0F808C04768B7430E79C6F30016964031
:100A70003E4346600E79F643B6070AD0C7684FEA90
:100A8000420C05FA0CF6B7438E6806FA0CF63E43A4
:100A9000C6600E7906F00306022E10D1D60800EBD0
:100AA0008608D8F8206057074FEAD76C09FA0CF788
:100AB000BE430F6907FA0CF73743C8F82070066881
:100AC0004FEA420C05FA0CF7BE430F7907F0030713
:100AD00007FA0CF7374307604E6816F4403F1CD006
:100AE0004C4E376847F480473760366822F003077A
:100AF00006F480460096484E07EB060CDCF80868C2
:100B000097073F0F09FA07F826EA0806DFF80C8175
:100B1000404503D14FF0000841E072E0DFF800816A
:100B2000404502D14FF0010839E0DFF8F880404538
:100B300002D14FF0020832E0DFF8EC80404502D1EC
:100B40004FF003082BE0DFF8E480404502D14FF07E
:100B5000040824E0DFF8D880404502D14FF00508B2
:100B60001DE0DFF8D080404502D14FF0060816E0C6
:100B7000DFF8C480404502D14FF007080FE0DFF8EE
:100B8000BC80404502D14FF0080808E0DFF8B08093
:100B9000404502D14FF0090801E04FF00A0808FA79
:100BA00007F848EA0608CCF80888DAF800605746E3
:100BB000D1F804C09E435FEACC3C00D51E433E60A2
:100BC000DBF800605F46D1F804C09E435FEA8C3CCE
:100BD00000D51E433E60DEF800607746D1F804C0C1
:100BE0009E435FEACC2C00D51E433E60084F0C3775
:100BF0003E68D1F804C09E435FEA8C2C00D51E43AA
:100C00003E60521C102AFFF411AFBDE8F88F0000BF
:100C1000003C0140443802400030014000000240E6
:100C20000004024000080240000C02400010024094
:100C30000014024000180240001C02400020024044
:100C4000002402400069084000D00120704742693A
:100C500021EA02030A4043EA0241816170470AB176
:100C6000816170470904FBE7014880687047000014
:100C70001000002090F83D20202A01D0022070476B
:100C8000242280F83D200268136823F001031360DA
:100C90000268536A23F0100353620268536A0B43DD
:100CA000536201680A6842F001020A60202180F85C
:100CB0003D100020704790F83D20202A01D00220EE
:100CC0007047242280F83D200268136823F0010356
:100CD000136003685A6A22F00F020A4391B2596204
:100CE00001680A6842F001020A60202180F83D1084
:100CF0000020704770B5040025D094F83D00002511
:100D000020B984F83C50204600F0B8F8242084F83C
:100D10003D002068016821F0010101602068016840
:100D200041F4004101602068016821F40041016044
:100D300000F046FA4D4A6168914201D84C4900E002
:100D40004C49884201D2012070BD4B492368B0FB59
:100D5000F1F15E6826F03F060E435E6063689342E1
:100D600006D94FF4967359434FF47A73B1FBF3F1FC
:100D70002368491C1E6A26F03F06314319626168E8
:100D8000914210D84900401EB0FBF1F2521CC2F350
:100D90000B02042A01D2042022E0B0FBF1F0401C37
:100DA000C0F30B001CE0A268F2B301EBC10303EB3C
:100DB0000116431EB3FBF6F35B1C43F480431B0593
:100DC00049D092B301EBC10202EB0111401EB0FB0E
:100DD000F1F0401CC0F30B0040F4804040F40040B0
:100DE0002168CA694CF6FF739A431043C861D4E97D
:100DF000071001432068026822F0C002114301601D
:100E0000D4E9030101432068826848F2FF339A4322
:100E100011438160D4E9050108432168CA6822F0C2
:100E2000FF021043C86001E00EE016E02068016890
:100E300041F0010101602564202084F83D00256314
:100E400084F83E50002070BD01EB4106431EB3FB09
:100E5000F6F35B1CB3E70120C2E701EB4101401E42
:100E6000B0FBF1F0401CC0F30B00B7E7A086010017
:100E700080841E0000093D0040420F0010B586B07E
:100E8000044614216846FFF778FA1449206888421E
:100E900021D113480021026842F00202026000687A
:100EA00000F0020005904FF4407000901220CDE950
:100EB0000101032003900420049069460948FFF7CC
:100EC000A7FD07481030016841F400110160006877
:100ED00000F40010059006B010BD00000054004062
:100EE0003038024000040240024881680278114410
:100EF00081607047100000200B4810B5016841F474
:100F000000710160016841F480610160016841F491
:100F100080710160032000F06FF8002000F006F8F7
:100F200000F024F8002010BD003C024070B50D4DCB
:100F300004464FF47A712878B1FBF0F00A49096849
:100F4000B1FBF0F000F049FE48B9102C07D20022A6
:100F50002146501E00F030F800206C6070BD01206A
:100F600070BD0000100000201C0000200A4808B5D9
:100F7000016841F480410160006800F48040009005
:100F80000548001F016841F080510160006800F0D1
:100F90008050009008BD000044380240002809DB62
:100FA00000F01F02012191404009800000F1E02083
:100FB000C0F8001170470000F0B40E4B1B680C46DF
:100FC000C3F30223C3F10705042D00D90425191D1D
:100FD000072901D2002300E0DB1E012606FA05F1F5
:100FE000491E214099409E40761E16403143F0BC78
:100FF00002F0A1B80CED00E0064900F00702086815
:101000004FF6FF03184040EA0220034A10430860ED
:10101000704700000CED00E00000FA052DE9F843F0
:101020001748016841F0805101600068154F00F0D9
:101030008050012600903E64FFF716FE05464FF4EF
:101040007A78114C05E000BFFFF70EFE401B4045CB
:101050000DD86068C003F7D57E64FFF705FE05462E
:10106000464607E0FFF700FE401BB04202D90320CE
:10107000BDE8F88360688003F4D50020F8E700003D
:101080004038024000000E42007000402DE9F04759
:101090000E46050065D0DFF81481D8F80000F7B2DD
:1010A00000F00F00B04207D288F80070D8F80000B6
:1010B00000F00F00B04254D128683D4C810712D592
:1010C000400703D5206840F4E050206028780007EE
:1010D00003D5206840F4604020602068A96820F0B3
:1010E000F000084320602878C0072DD03049686898
:1010F0000839012812D0022813D0032811D009681A
:10110000890700292DDA216821F0030101432160BC
:10111000FFF7AAFD814641F2883A0EE0096889038B
:10112000EFE709688901ECE7FFF79EFDA0EB0901F5
:10113000514502D90320BDE8F0872068696800F0B6
:101140000C00B0EB810FEFD1D8F80010404601F051
:101150000F01B14207D90770006800F00F00B042DC
:1011600001D00120E7E72878400705D52068E96825
:1011700020F4E050084320602878000706D5206856
:10118000296920F4604040EAC100206000F038F88E
:101190002168084AC1F30311515CC8400649086040
:1011A00006480068FFF7C2FE0020C4E7003C02408A
:1011B00008380240B23200081C0000201400002051
:1011C0000448054900680968044AC1F38221515C5A
:1011D000C84070471C00002008380240C232000896
:1011E0000448054900680968044AC1F34231515C6A
:1011F000C84070471C00002008380240C232000876
:10120000154810B5006810F00C02144813D04110B6
:10121000042A0FD0082A0ED10F4C241F22682368FD
:1012200002F03F025B0207D52068C0F38810A0FBE4
:10123000010106E0084610BD2168C1F38811A1FB39
:1012400000010023FFF722F82168C1F30141491C86
:101250004900B0FBF1F010BD083802400024F40052
:101260002DE9F84F04006ED02078DFF84C93C007CA
:10127000A9F104054AD009F104000168C1F3810114
:10128000012908D00068C0F3810002280AD1D9F8EA
:101290000000400206D52868800337D56068002822
:1012A000E1D033E06068B0F5803F10D0B0F5A02FFA
:1012B000286810D020F480302860286820F480202E
:1012C00028606068A8B1FFF7CFFC06460DE02868EB
:1012D00040F48030F4E740F480202860F7E700BF56
:1012E000FFF7C2FC801B642873D828688003F7D5F9
:1012F0000CE0FFF7B9FC064605E000BFFFF7B4FCC1
:10130000801B6428F0D828688003F7D42078DFF8A1
:10131000AC8280074FF0000A3ED5A748001D016847
:1013200011F00C0F08D00068C0F3810002280BD127
:10133000D9F80000400207D42868800716D5E06875
:10134000012800D112E033E1E068B8B10120C8F80B
:101350000000FFF789FC064605E000BFFFF784FCAC
:10136000801B0228C0D828688007F7D52868216923
:1013700020F0F80040EAC10028600DE0C8F800A0A5
:10138000FFF772FC064604E0FFF76EFC801B0228A4
:101390001FD828688007F7D42078000722D5864F09
:1013A00087486169703771B101210160FFF75CFC0A
:1013B000064604E0FFF758FC801B022809D838686D
:1013C0008007F7D50EE0C0F800A0FFF74DFC0646F9
:1013D00005E082E0FFF748FC801B02287DD83868D2
:1013E0008007F7D42078400768D5DFF8CCB1002714
:1013F0000BF13C0BDBF80000C0000BD4DBF8001055
:1014000041F08051CBF80010DBF80000012700F01C
:10141000805000906B4E3068C00510D4306840F4A6
:1014200080703060FFF720FC009005E0FFF71CFCA7
:101430000099401A022850D83068C005F6D55E4E93
:10144000A0686C3601280FD00528306810D020F035
:1014500001003060306820F004003060A068B8B14E
:10146000FFF702FC00900FE0306840F00100F4E765
:1014700040F004003060F7E7FFF7F6FB0099411AEF
:1014800041F28830814266D830688007F4D50EE09A
:10149000FFF7EAFB009007E0FFF7E6FB0099411A2F
:1014A00041F28830814256D830688007F4D42FB199
:1014B000DBF8001021F08051CBF80010A069C8B310
:1014C0003D49091D0968C1F3810102294AD002285A
:1014D000504607D0C8F8600000E03CE0FFF7C4FBCE
:1014E00004463BE04746C8F86000FFF7BDFB0646F0
:1014F00005E000BFFFF7B8FB801B02282BD8286847
:101500008001F7D4D4E907010843A16A2E4A4908AB
:1015100002EB0141626A41EA8211084394F82C10FF
:1015200040EA0161C9F8001001203866FFF79CFB12
:10153000044606E03EE000BFFFF796FB001B0228D2
:1015400009D828688001F7D534E000BFFFF78CFB8D
:10155000001B022802D90320BDE8F88F286880010B
:10156000F4D427E00128F7D0D9F80000E26900F4AC
:10157000800191421CD1226A00F03F01914217D1B3
:1015800047F6C071626A0140B1EB821F10D1A26AB6
:101590004FF0FF3300F4403103EB5202B1EB024F46
:1015A00006D194F82C1000F07060B0EB016F01D000
:1015B0000120D1E70020CFE7043802400000474275
:1015C000800E4742007000400000FFFF90F851007D
:1015D000704770B5040009D0606A002540B12561EC
:1015E0006561A56294F8510040B10CE0012070BD26
:1015F0006068B0F5827FF4D0E561F2E784F850507E
:10160000204600F045F8022084F851002068016867
:1016100021F040010160A088218900F4827001F46A
:1016200004410843A18901F400610843217C01F0D1
:1016300002010843217D01F001010843218B01F4DF
:1016400000710843217F01F03801084394F820100D
:1016500001F080010843218D01F400510843216805
:101660000860A069042101EA104094F8241001F0F8
:1016700010010843216848602068C16921F40061B5
:10168000C1616565012084F85100002070BD000033
:1016900070B586B0044614216846FEF76EFE2248F7
:1016A000204E256800242049103802220323B54229
:1016B00018D10D6845F480450D60096801F480413A
:1016C0000591016841F0020101600068694600F07F
:1016D00002000590B0008DE815000520CDE903302B
:1016E00012481BE0124EB5421AD10D6845F4004570
:1016F0000D60096801F400410591016841F00401A1
:1017000001600068694600F0040005904FF4E05065
:101710008DE815000620CDE903300648FFF778F97B
:1017200006B070BD0038004040380240000402405E
:10173000003C0040000802402DE9F84F0446406894
:101740000025984616460F464FF0040BB0F5827FF1
:1017500001D1A06888B194F85000012818D0012068
:1017600084F85000FFF780FA814694F851004FF05A
:10177000000A01280ED0022582E084F851B01346F9
:101780000A462046CDF8008000F036F9BDE8F88F13
:101790000220FBE7002F72D0002E70D084F851B0E9
:1017A000C4F854A0A763A687E687C4F830A0A4F8BD
:1017B00034A0A4F836A0C4F840A0C4F844A0A0689F
:1017C000B0F5004F09D12068016821F040010160A7
:1017D0002068016821F480410160206801684906A1
:1017E00003D4016841F040010160E068D8B139E0FC
:1017F00020688168C90709D0007BA16B0870A06BC5
:10180000401CA063E08F401EE0870CE0FFF72CFA3D
:10181000A0EB0901414503D3B8F1FF3F03D036E007
:10182000B8F1000F33D0E08F0028E1D11DE020682F
:101830008168C90709D0C068A16B0880A06B801CB3
:10184000A063E08F401EE0870CE0FFF70DFAA0EBED
:101850000901414503D3B8F1FF3F03D017E0B8F1C8
:10186000000F14D0E08F0028E1D14A4641462046BF
:1018700001F0EDF808B120206065606D00B1012530
:10188000012084F8510084F850A028467EE7032503
:10189000F6E72DE9F84F044690F8500000271D4662
:1018A0001646894601280DD04FF0010B84F850B040
:1018B000FFF7DAF9804694F85100BA46012804D0BF
:1018C000022793E00220BDE8F88FB9F1000F73D032
:1018D000002E71D0032084F85100C4F854A0C4F83D
:1018E0003090A686E686C4F838A0A4F83CA0A4F8F8
:1018F0003EA0C4F844A0C4F840A0A068B0F5004FD2
:1019000009D12068016821F0400101602068016868
:1019100041F48041016020680168490603D40168F0
:1019200041F040010160E068B0F5006F606803D0ED
:1019300030B3012E24D041E008B1012E1CD1206B20
:1019400021680088C86006E020688168890709D599
:10195000216B0988C160206B801C2063E08E401ED3
:10196000E08609E0FFF780F9A0EB0800A84202D367
:10197000681C01D031E07DB3E08E0028E4D120E086
:10198000206B21680078087306E020688168890769
:1019900009D5216B09780173206B401C2063E08E10
:1019A000401EE0860AE0FFF75FF9A0EB0800A842BE
:1019B00003D3681C02D010E017E06DB1E08E002860
:1019C000E3D142462946204601F070F808B12020B4
:1019D0006065A06818B106E0FFE7032706E020680D
:1019E000C16880680090606D00B1012784F851B033
:1019F00084F850A0384666E72DE9F84F044690F881
:101A0000500000270A9E1D4692468B464FF0010962
:101A100001280ED0012084F85000FFF725F98046F8
:101A200094F85100616801280CD0B1F5827F07D18C
:101A300002E00220BDE8F88FA16809B9042801D0AE
:101A40000227C2E0BBF1000F27D0BAF1000F24D06B
:101A50001DB394F85100042802D0052084F85100E9
:101A600000206065C4F838A0E587A587C4F830B0C9
:101A7000E586A5862064606420680168490603D471
:101A8000016841F040010160E068B0F5006F6068F6
:101A900005D0E8B3012D46D07FE0012795E008B1DD
:101AA000012D39D1206B21680088C860206B801C13
:101AB0002063E08E401EE0862EE020688168890762
:101AC0000FD5E18E69B1B9F1010F0AD1216B0988F7
:101AD000C160206B801C2063E08E401EE0864FF0CA
:101AE000000920688168C9070CD0E18F51B1C06836
:101AF000A16B0880A06B801CA063E08F401EE08774
:101B00004FF00109FFF7B0F8A0EB0800B04200E089
:101B100009E001D3701C50D1E08E0028CDD1E08FB8
:101B20000028CAD13FE0206B216800780873206B41
:101B3000401C2063E08E401EE0862EE02068816815
:101B400089070FD5E18E69B1B9F1010F0AD1216B77
:101B500009780173206B401C2063E08E401EE086F4
:101B60004FF0000920688168C9070CD0E18F51B19E
:101B7000C068A16B0870A06B401CA063E08F401E82
:101B8000E0874FF00109FFF76FF8A0EB0800B042C3
:101B900002D3701C01D010E07EB1E08E0028CDD1C0
:101BA000E08F0028CAD142463146204600F07EFF31
:101BB00028B101272020606507E0032705E0A06821
:101BC00018B92068C16880680090012084F851002D
:101BD000002084F8500038462CE710B5401EB0F1C4
:101BE000807F01D3012010BD4FF0E02460610F2100
:101BF000601701F0A0FA0020A061072020610020FA
:101C000010BD70477047000070B590F83C20012A65
:101C100032D0012480F83C40022280F83D20036845
:101C20005A689D6822F070060A6832435A60134B66
:101C300002689A4214D0B2F1804F11D0104B9A42F0
:101C40000ED0104B9A420BD00F4B9A4208D00F4B3C
:101C50009A4205D00E4B9A4202D00E4B9A4204D1C2
:101C6000496825F080031943916080F83D400021C8
:101C700080F83C10084670BD022070BD0000014095
:101C80000004004000080040000C00400004014037
:101C9000004001400018004010B5040003D094F843
:101CA0003D0010B107E0012010BD002084F83C0089
:101CB000204600F01FF8022084F83D00211D206816
:101CC00000F0FAFF012084F8460084F83E0084F812
:101CD0003F0084F8400084F8410084F8420084F812
:101CE000430084F8440084F8450084F83D00002057
:101CF00010BD00002DE9F04786B006461421684665
:101D0000FEF73BFB3B4A31683B480024914259D1E6
:101D1000016841F002010160006800F002000590D6
:101D200035481038016841F00401016000686946D7
:101D300000F0040005904FF4C07000900220CDE93F
:101D40000104CDE903402D48FEF762FE2D4D2C48DD
:101D50004FF020672860C5E9017405F10C014FF4CC
:101D600080684FF400694FF4005A81E81007EC6175
:101D70002C6228466C62FEF79DFD08B1FEF7C8FC98
:101D8000B562AE63204D1E4805F10C01303028606D
:101D9000C5E9017481E81007EC612C6228466C6289
:101DA000FEF788FD08B1FEF7B3FCF562002211468C
:101DB0001D20AE63FFF700F91D20FFF7EFF806B016
:101DC000BDE8F087114A914207D1016841F0040152
:101DD0000160006800F0040009E00D4A9142EED174
:101DE000016841F020010160006800F020000590CA
:101DF000E5E70000000400404038024000080240CF
:101E00008860024068020020C802002000080040EC
:101E10000014004070B5044690F83C0000250128ED
:101E200017D0012684F83C60022084F83D00206829
:101E3000826822F0770222F47F428260086850288C
:101E400038D00DDC20284FD005DC90B3102811D1FC
:101E50004AE0022070BD302846D040280AD13BE03D
:101E600060282FD070280DD0B0F5805F03D0B0F57A
:101E7000005F12D0012584F83D60002084F83C000A
:101E8000284670BDCB68D1E90121206800F078FFB9
:101E90002068816841F0770109E0CB68D1E9012130
:101EA000206800F06DFF2068816841F48041816006
:101EB000E1E719E0CA684968206801F035F8502167
:101EC000206806E0CA684968206801F07FF8602150
:101ED000206800F05FFFCEE7CA684968206801F01B
:101EE00023F840212068F4E7226801461046F0E715
:101EF00070472DE9F041054690F83C0000260C465D
:101F0000012810D0012085F83C0072B1042A1CD0B1
:101F1000082A2CD00C2A50D00126002085F83C003D
:101F20003046BDE8F0810220FBE7D4E90012E36807
:101F3000286801F00BF82868816921F00C018161A3
:101F400028688169A26811430FE0D4E90012E368B0
:101F5000286801F04DF82868816921F440618161A9
:101F600028688169A26841EA02218161D5E7286871
:101F7000D4E9002C277B016A21F480710162C169D8
:101F8000036A21F0030141EA0C0121F0F00C39074A
:101F90004FF420674CEA116123F4206307EA022220
:101FA0001A43C16102622868C16921F00C01C16154
:101FB0002868C169A268114328E02868D4E900278D
:101FC000E168036A23F480530362D0F81CC0036AFB
:101FD0002CF4407C4CEA07274FF6FF7C27F470472F
:101FE0000CEA013139434FF4204723F4204307EA38
:101FF00002321A43C16102622868C16921F440615A
:10200000C1612868C169A26841EA0221C16184E70F
:1020100010B5040003D094F83D0010B107E0012092
:1020200010BD002084F83C00204600F01EF802207D
:1020300084F83D00211D206800F03EFE012084F858
:10204000460084F83E0084F83F0084F8400084F89D
:10205000410084F8420084F8430084F8440084F886
:10206000450084F83D00002010BD704770B504465F
:10207000006801694FF00005C943890715D4C1689C
:10208000C943890711D4E91E016101202077206826
:1020900080698007204602D0FFF72AFF04E000F0A5
:1020A000C3F8204600F055F9257720680169C94337
:1020B000490717D4C168C943490713D46FF0040115
:1020C0000161022020772068806910F4407F20465B
:1020D00002D0FFF70DFF04E000F0A6F8204600F064
:1020E00038F9257720680169C943090716D4C16802
:1020F000C943090712D46FF0080101610420207759
:102100002068C0698007204602D0FFF7F1FE04E096
:1021100000F08AF8204600F01CF925772068016954
:10212000C943C90617D4C168C943C90613D46FF09F
:1021300010010161082020772068C06910F4407FF9
:10214000204602D0FFF7D4FE04E000F06DF82046F0
:1021500000F0FFF8257720680169C943C90708D155
:10216000C168C943C90704D1891E0161204600F036
:10217000F1F820680169C943090609D4C168C94357
:10218000090605D46FF0800101612046FFF739FD93
:1021900020680169C943490609D4C168C943490691
:1021A00005D46FF040010161204600F0D4F82068AA
:1021B0000169C94389060BD4C168C943890607D49C
:1021C0006FF0200101612046BDE87040FFF71ABDA5
:1021D00070BD000010B586B0044614216846FEF7B5
:1021E000CCF80E492068884215D10D4800210268BC
:1021F00042F008020260006800F0080005904FF409
:10220000805000900220CDE90101CDE9031069461C
:102210000448FEF7FDFB06B010BD000000080040BA
:1022200030380240000C0240704770B5044690F808
:102230003C0000260D4601280FD0012084F83C0008
:102240006AB1042A1DD0082A2FD00C2A3FD00126BB
:10225000002084F83C00304670BD022070BD20682C
:1022600000F0A0FD2068816941F0080181612068CB
:10227000816921F004018161206881692A69114323
:1022800011E0206800F0BEFD2068816941F4006122
:1022900081612068816921F48061816120688169A0
:1022A0002A6941EA02218161D2E7206800F0E0FD5D
:1022B0002068C16941F00801C1612068C16921F04D
:1022C0000401C1612068C1692A69114311E02068D5
:1022D00000F002FE2068C16941F40061C16120681C
:1022E000C16921F48061C1612068C1692A6941EA3C
:1022F0000221C161ACE710B5040003D094F83D00A1
:1023000010B107E0012010BD002084F83C002046F9
:1023100000F01EF8022084F83D00211D206800F026
:10232000CBFC012084F8460084F83E0084F83F008E
:1023300084F8400084F8410084F8420084F84300A7
:1023400084F8440084F8450084F83D00002010BD66
:10235000704770477047704770B5040004D094F818
:102360003D00002510B106E0012070BD84F83C500E
:10237000204600F023F8242084F83D002068C1683E
:1023800021F40051C160204600F04EFE2068016932
:1023900021F4904101612068416921F02A014161E5
:1023A0002068C16841F40051C1602564202084F890
:1023B0003D0084F83E00002070BD000010B586B0DE
:1023C000044614216846FDF7D8FF14492068884266
:1023D00021D113480021026842F480220260006883
:1023E00000F4802005900E481038026842F0020286
:1023F0000260006800F0020005904FF44060009019
:102400000220CDE9010103200390072004906946D2
:102410000448FEF7FDFA06B010BD00000048004079
:102420004038024000040240FEE7000070B5094D4C
:10243000002204212846FEF712FCB02000F06EFBBB
:1024400000F060FB0446012204212846FEF707FC49
:10245000204670BD000C024010B50122042107483F
:10246000FEF7FDFB0A240648FFF7B0F8012804D068
:10247000641E14F0FF04F6D1002010BD000C0240D1
:10248000CC0000202DE9F0410F4C16468846054649
:102490001F46002204212046FEF7E1FB284600F0FB
:1024A0003DFB0421404600F043FB304600F036FB84
:1024B0003146384600F03CFB2046BDE8F0410122A1
:1024C0000421FEF7CCBB0000000C024070B50B4DA0
:1024D0000446002204212846FEF7C1FB032000F039
:1024E0001DFB204600F01AFB00F00CFB0446012205
:1024F00004212846FEF7B3FB204670BD000C0240C5
:102500002DE9F0410C4E14460D46074600220421E9
:102510003046FEF7A4FB384600F000FB2946224671
:102520000A230648FFF708F93046BDE8F0410122CA
:102530000421FEF794BB0000000C0240CC000020F8
:1025400070B5094D002204212846FEF788FBA02023
:1025500000F0E4FA00F0D6FA0446012204212846ED
:10256000FEF77DFB204670BD000C024070B5084CA4
:102570000546002204212046FEF771FB284600F0A4
:10258000CDFA2046BDE8704001220421FEF767BB6A
:10259000000C024070B580210F2000F023F80A24BF
:1025A00004250E20FFF792FFB5EB501F01D101204B
:1025B00070BD641E14F0FF04F3D1002070BD10B58F
:1025C00000210F2000F00EF80A240E20FFF77EFFF6
:1025D000400905D0641E14F0FF04F6D1002010BDA0
:1025E000012010BD70B50C4C0E460546002204219A
:1025F0002046FEF734FB022000F090FA284600F057
:102600008DFA304600F08AFA2046BDE8704001227B
:102610000421FEF724BB0000000C02402DE9F0412C
:102620000D4E17460C460546002204213046FEF7A3
:1026300016FB022000F072FA284600F06FFA601BC9
:10264000401CC1B2384600F073FA3046BDE8F04194
:1026500001220421FEF703BB000C02402DE9F04FDC
:1026600087B014216846FDF788FE6748002401689A
:1026700041F010010160016801F01001059101684D
:1026800041F004010160016801F004010591016855
:1026900041F080010160016801F08001059101684D
:1026A00041F001010160016801F00101059101683B
:1026B00041F002010160016801F002010591016829
:1026C00041F008010160016801F00801059101680D
:1026D00041F0400101600068002200F040000590D8
:1026E00081214A48FEF7BBFA4FF4827A0122514613
:1026F0004748FEF7B4FA002240214648FEF7AFFAF9
:1027000008204FF48818CDE9000801256946029594
:102710004148FEF77DF96803CDE90008DFF8FCB019
:10272000694602945846FEF773F932200226CDE935
:10273000000602AA03274FF00B0982E890026946BF
:102740005846FEF765F98620CDE9000602AADFF8B3
:10275000D0B082E8900269465846FEF759F98120C8
:102760000090CDE90154694628480394FEF750F9DA
:10277000CDF800A0CDE90154694625480395FEF740
:1027800047F9A802CDE90008694602952048FEF7FE
:102790003FF940200090CDE9015469461D4803945B
:1027A000FEF736F98020CDE9000469461948029405
:1027B000FEF72EF94FF4E850CDE9000602940A2006
:1027C000CDE9037069465846FEF722F96802CDE963
:1027D0000004694658460294FEF71AF94FF4205057
:1027E000CDE9000602AA694682E890020948FEF790
:1027F0000FF9002211462820FEF7DEFB2820FEF705
:10280000CDFB07B0BDE8F08F303802400004024035
:10281000000C024000180240001002400008024074
:1028200000000240134810B511490160124941608F
:1028300000214FF480428160C0E90312416181614F
:10284000C1610162FEF756FA08B172B6FEE70021D7
:102850000848FEF70FFA08B172B6FEE700210548F6
:10286000FEF729FA002801D072B6FEE710BD00007D
:102870000054004020000020A08601000F4810B541
:102880000D4901604FF48271416000218160C16097
:102890004FF400720161C0E905120822C0E9072166
:1028A000416281620A21C162FEF793FE002801D0D5
:1028B00072B6FEE710BD0000003800407400002032
:1028C0000F4810B50D4901604FF48271416000213D
:1028D0008160C1604FF400720161C0E905121022ED
:1028E000C0E90721416281620A21C162FEF771FEDF
:1028F000002801D072B6FEE710BD0000003C004089
:10290000CC00002010B58AB0002427480494059418
:102910000694079408940994009401940294214920
:10292000039401601D21C0E901144EF65F21C0E946
:10293000031480218161FFF7AFF908B172B6FEE799
:102940004FF48050049004A91748FFF763FA08B1C8
:1029500072B6FEE71448FFF75BFB08B172B6FEE7FC
:10296000089408A910480994FFF74EF908B172B607
:10297000FEE70120CDE900400F20CDE9024004220E
:1029800069460948FFF7B5FA08B172B6FEE70822B2
:1029900069460548FFF7ADFA002801D072B6FEE798
:1029A0000AB010BD000400402401002010B58EB014
:1029B00000240794089409940A940B941C216846F7
:1029C0000C94FDF7DAFC1F481D4901604A21C0E95B
:1029D00001144EF65F21C0E9031480218161FFF7E5
:1029E0005BF908B172B6FEE74FF48050079007A973
:1029F0001448FFF70FFA08B172B6FEE71148FFF767
:102A00007AFC08B172B6FEE70B940BA90D480C9442
:102A1000FFF7FAF808B172B6FEE76020CDE90004CE
:102A200002940022694607480494FFF7FEFB08B1B0
:102A300072B6FEE70348FFF7CDFB0EB010BD0000F5
:102A4000000800406C010020FEE7FEE77047F8B583
:102A5000044640684FF48273984221D1A0684FF435
:102A60008065B0F5004F01D0A8420AD12068066801
:102A700026F0400606606068984211D1A068A8421E
:102A80000ED000920B4600228021204600F058F81C
:102A9000002804D0606D40F0200060650320F8BD80
:102AA00000920B4600220121EFE7000038B50446F2
:102AB0001248134B0068B0FBF3F04FF47A7358439D
:102AC00000906068B0F5827F0DD10B460092002225
:102AD0008021204600F034F870B1606D40F0200095
:102AE0006065032038BD009830B1401E009020681A
:102AF0008068C0430006F6D5002038BD1C000020C9
:102B000000366E0108B50A23012269460248FEF725
:102B100013FE9DF8000008BDCC00002001B50A237B
:102B2000012269460148FEF7B4FE08BDCC00002032
:102B30000A4601460A230148FEF7ABBECC0000203E
:102B40002DE9F8431E46914688460446089DFEF747
:102B50008BF8401B351AFEF787F8074625480068B2
:102B6000C0F3CB30684338E0701C37D0FEF77CF8F8
:102B7000C01BA84203D215B1009860B32CE02068B6
:102B8000416821F0E00141606068B0F5827F0BD1BF
:102B9000A068B0F5004F02D0B0F5806F04D1206876
:102BA000016821F040010160A06AB0F5005F09D121
:102BB0002068016821F4005101602068016841F437
:102BC00000510160012084F85100002084F8500079
:102BD0000320BDE8F8830025401E0090206881682E
:102BE00038EA010004D000214945BDD10020F0E7BA
:102BF0000121F9E71C0000207047FEF775B90000BD
:102C000030B593B030216846FDF7B7FB14210CA80E
:102C1000FDF7B3FB1F480025016841F080510160BA
:102C2000006800F0805011901B48016841F4404159
:102C300001600068022400F44040119001200090DF
:102C4000000401908001CDE9064008AA0420B421C7
:102C500082E813000B906846FEF702FB08B172B6DB
:102C6000FEE7FEF7DBF908B172B6FEE70CA90F200C
:102C700081E831004FF4A0500F904FF48050109035
:102C800005210CA8FEF702FA002801D072B6FEE773
:102C900013B030BD40380240007000400248016867
:102CA00041F470010160704788ED00E00148FFF7D2
:102CB000DDB9000024010020F0B50268254C264D46
:102CC000264E274F274B4FF0804CA04209D060453D
:102CD00007D0A84205D0B04203D0B84201D09842F4
:102CE00004D122F0700E4A6842EA0E02A0421BD0C4
:102CF000604519D0A84217D0B04215D0B84213D0C1
:102D0000984211D0184DA8420ED0184DA8420BD0B1
:102D1000174DA84208D0174DA84205D0164DA8421D
:102D200002D0164DA84203D122F44075CA682A4346
:102D30004D6922F080022A4302608A68C2620A68F2
:102D40008262A04201D0984201D109690163012148
:102D50004161F0BD00000140000400400008004057
:102D6000000C0040000401400040014000440140CC
:102D70000048014000180040001C004000200040B6
:102D800010B5846842EA032224F47F440A432243B4
:102D9000826010BD826822F070020A4342F007018F
:102DA00081607047F0B5026A22F001020262036A94
:102DB00042688469124E24F073050C682C4323F09A
:102DC00002058B682B430D4DA84201D0B04205D1BE
:102DD00023F00807CB683B4323F00403A84201D04B
:102DE000B04205D14D6922F4407215438A692A43E5
:102DF00042608461496841630362F0BD00000140A4
:102E000000040140F0B5026A22F010020262026A78
:102E1000436884690D6824F4E64444EA05248D6817
:102E200022F0200242EA05120F4D104EA84201D0B6
:102E3000B04206D1CF6822F0800242EA071222F0A7
:102E40004002A84201D0B04207D14D6923F440634B
:102E500043EA85038D6943EA8503436084614968D9
:102E600081630262F0BD00000000014000040140E7
:102E7000F0B5026A22F480720262026A4368C46991
:102E800022F4007224F073050C68124E2C438D68F6
:102E900042EA05220E4DA84201D0B04206D1CF68C9
:102EA00022F4006242EA072222F48062A84201D0A2
:102EB000B04207D14D6923F4405343EA05138D69AD
:102EC00043EA05134360C4614968C1630262F0BD0F
:102ED000000001400004014030B5026A22F4805233
:102EE0000262046A4268C3690D6823F4E64343EA58
:102EF00005238D6824F4005444EA0534084DA842A3
:102F000002D0084DA84204D14D6922F4804242EA21
:102F100085124260C36149680164046230BD0000EB
:102F2000000001400004014010B5036A046A24F067
:102F300001040462846924F0F00444EA021423F0DA
:102F40000A020A438461026210BD000070B5046A7F
:102F500024F0010404628469056A154EB04214D05D
:102F6000B0F1804F11D0134EB0420ED0124EB0428D
:102F70000BD0124EB04208D0114EB04205D0114EC7
:102F8000B04202D0104EB04203D124F003041443E7
:102F900001E044F001041A0724F0F00444EA12624C
:102FA00025F00A0301F00A0119438261016270BD34
:102FB000000001400004004000080040000C0040F8
:102FC00000040140004001400018004010B5036AB1
:102FD00023F0100303628369046A23F4704343EA15
:102FE000023224F0A00343EA01118261016210BDA4
:102FF00030B5046A24F0100404628469056A24F47C
:10300000407444EA022222F470444FF6FF7202EA4E
:1030100003322243A02425F0A00304EA011119433E
:103020008261016230BD000070B50446006801692C
:10303000E26821F44051114301612169A068E2690D
:1030400008436169114308432168CA6849F20C6367
:103050009A430243CA6020684169A26921F4407121
:103060001143416131492068884202D03049884289
:1030700002D1FEF7B5F801E0FEF7A2F8E2690023FD
:10308000192164253226B2F5004F626828D0A0FBD2
:103090000101930F9200FDF7F9F80146B0FBF5F03E
:1030A0006FF01802504301EB800006EB0010B0FBFC
:1030B000F5F000F0F002B1FBF5F002EB0012B1FB0D
:1030C000F5F06FF01803584301EB800006EB001099
:1030D000B0FBF5F000F00F0021681044886070BD6F
:1030E000A0FB010192185B41FDF7D0F80146B0FB4F
:1030F000F5F00201B1FBF5F06FF01803584301EB56
:10310000800006EBC000B0FBF5F000F0F80002EB29
:103110004002B1FBF5F0584301EB800006EBC00024
:10312000B0FBF5F000F00700D6E70000001001400A
:1031300000140140FEE70907090E002804DB00F136
:10314000E02080F80014704700F00F0000F1E0204C
:1031500080F8141D7047022907D000219170D170AA
:1031600040015070000A10707047D070000A9070D3
:10317000000A00F00303C10001F0E0001844083029
:1031800000F0EB005070080AEDE700001CB5FDF7F9
:10319000B3FEFFF735FDFFF761FAFFF76FFBFFF7AF
:1031A000B1FB00243A48009438490194C0E9001466
:1031B0004FF6FF71C0E902418461FEF76DFD08B171
:1031C00072B6FEE70094694631480194FEF71CFD93
:1031D00008B172B6FEE72F48016841F400110160A2
:1031E0000068002200F40010009011461020FDF746
:1031F000E3FE1020FDF7D2FE002211462F20FDF73E
:10320000DBFE2F20FDF7CAFE21482349483001602C
:103210004FF4E131C0E901140C21C460C0E904415C
:103220008461C461FFF798F808B172B6FEE7FFF752
:10323000BDFBFFF745FBFFF7F5FA0020FDF702F9AC
:10324000134801218C300A22017042600822027268
:10325000447281720221C1720321017304214173FE
:10326000052181730621C17307210C4C01744FF4B1
:103270007A750748A030FDF74AF918B101212046B8
:10328000FDF7E5FC2846FDF77FFBF2E70014004060
:10329000B4010020303802400048004000040240E1
:1032A0004FF04070E1EE100A70470006101600065D
:1032B00010160000000000000000010203040607D1
:1032C000080900000000010203040000EC320008BD
:1032D0000000002020000000E80100080C33000876
:1032E000200000206809000004020008000000001F
:1032F00000000000000000000000000001000000CD
:0C33000010000000000000000024F40099
:04000005080001AD41
:00000001FF
