:020000040800F2
:100000000808002061020008472A00087D26000831
:10001000452A0008FF0700084932000800000000D8
:100020000000000000000000000000004B2A000853
:10003000F508000800000000492A00084D2A0008C1
:100040007B0200087B0200087B0200087B0200089C
:100050007B0200087B0200087B0200087B0200088C
:100060007B0200087B0200087B0200087B0200087C
:100070007B0200087B0200087B0200087B0200086C
:100080007B0200087B0200087B0200087B0200085C
:100090007B0200087B0200087B0200087B0200084C
:1000A0007B0200087B0200087B0200087B0200083C
:1000B0007B020008012B00080D2B00087B020008C2
:1000C0007B0200087B0200087B0200087B0200081C
:1000D0007B0200087B0200087B0200083D3200081A
:1000E0007B0200087B0200087B0200087B020008FC
:1000F0007B0200087B0200087B0200080108000860
:100100007B0200087B0200087B0200087B020008DB
:100110007B0200087B0200087B0200087B020008CB
:100120007B0200087B0200087B0200087B020008BB
:100130007B0200087B0200087B0200087B020008AB
:100140007B0200087B0200087B0200087B0200089B
:100150007B0200087B0200087B0200087B0200088B
:100160007B0200087B0200087B0200087B0200087B
:100170007B0200087B0200087B02000800000000F0
:100180007B0200087B0200087B0200087B0200085B
:100190007B0200087B0200087B0200087B0200084B
:1001A0007B0200087B0200087B02000800F002F8D6
:1001B00000F047F80AA090E8000C82448344AAF1BA
:1001C0000107DA4501D100F03CF8AFF2090EBAE8B8
:1001D0000F0013F0010F18BFFB1A43F0010318477B
:1001E0002032000040320000103A24BF78C878C1A5
:1001F000FAD8520724BF30C830C144BF04680C602D
:10020000704700000023002400250026103A28BF74
:1002100078C1FBD8520728BF30C148BF0B60704778
:10022000642900F0E980752900F0E680782900F063
:100230001F81002070471FB503F0B8F81FBD10B52F
:1002400010BD00F0A3FA1146FFF7F5FF03F020F808
:1002500000F0C1FA03B4FFF7F2FF03BC00F0C8FAE4
:100260000948804709480047FEE7FEE7FEE7FEE74A
:10027000FEE7FEE7FEE7FEE7FEE7FEE70448054986
:10028000054A064B70470000F12A0008AD0100083E
:1002900008020020080800200804002008040020AC
:1002A00053EA020C00F069802DE9F04B4FF0000694
:1002B000002B1FBFB3FA83F503FA05F424FA05F601
:1002C0005E4012BF1643B2FA82F502FA05F4C5F198
:1002D00020051EBF22FA05FC44EA0C04203556EA2C
:1002E000044C4FEA144418BF641C4FF000084FF050
:1002F0000009904271EB030C39D3002919BFB1FA00
:1003000081F701FA07F6B0FA80F700FA07F6C7F1AD
:1003100020071EBF20FA07FC46EA0C062037B6FB72
:10032000F4FCA7EB0507103F07F01F0BCBF12006ED
:100330000CFA0BFB2CFA06F644BFB3460026202F1E
:10034000A4BF5E464FF0000B5BEA060C08BF4FF0FF
:10035000010B19EB0B09ABFB027C48EB0608C01B39
:1003600006FB02CC0BFB03CC71EB0C01C1E70B4687
:10037000024641464846BDE8F08B13B54FF00000F9
:100380004FF00001AFF30080BDE81C407047000053
:100390000FB4044910B503AA029800F0C9F910BCC3
:1003A0005DF814FB1400002070B5044685690068F0
:1003B000C10601D5302600E02026C00707D070BD59
:1003C000D4E9012130469047206A401C20626D1E0E
:1003D000F6D570BD70B5044685690078C00707D1B1
:1003E00070BDD4E9012120209047206A401C206282
:1003F0006D1EF6D570BD00002DE9F04106460024C3
:1004000010687529314616A510D0AFF3008000287A
:1004100002DA404213A507E031688A0701D512A528
:1004200002E0490704D511A5012401E0AFF30080E3
:1004300000210A2206F1240709E0B0FBF2FCB0FB20
:10044000F2F302FB1C00303078541846491C002897
:10045000F3D123462A463046BDE8F04100F00EB9FC
:10046000000000002D0000002B0000002000000014
:1004700070B504460D4621461068AFF30080218810
:10048000090502D50F4A7A4402E00E4A7A440E3238
:10049000002104F1240305E000F00F060009965D39
:1004A0005E54491C0028F7D120780023000704D5AA
:1004B000702D02D009B1022311322046BDE87040F0
:1004C00000F0DCB84C2F00002DE9F0474FF0000A97
:1004D00089460446C0F820A02046E16888470028E5
:1004E00076D0252806D0D4E901219047206A401C07
:1004F0002062F1E7E168204600268847C4F81CA086
:1005000005460027C4F818A02A2D09D0284602F075
:10051000ACFE38B304EB8708303DC8F8185019E03A
:1005200059F8041B204604EB87029161E168884773
:10053000012F054618D1E069002820DA26F02006B0
:100540001DE0D8F8180000EB800005EB40003038C3
:10055000C8F818002046E1688847054602F085FE85
:100560000028EED1012F0AD02E2D08D12046E168B7
:1005700088477F1C0546022F46F02006C4DBA06991
:10058000002803DA404246F00106A061F00701D0DE
:1005900026F010066C2D0AD0682D08D04C2D39D0CD
:1005A0006A2D35D0742D35D07A2D33D016E0E16820
:1005B0002F4620468847B84205460AD16C2F27D0DF
:1005C0004FF48060E168064320468847054605E011
:1005D00027E06C2F1AD04FF4807006430DB3A5F1BD
:1005E0004100192802D8203546F400664A462946BB
:1005F000204626604E46FFF713FE80B101280BD03F
:10060000F61D26F0070000F1080965E74020E4E741
:100610008020D7E70020D5E706F104095CE72846EB
:1006200061E7206ABDE8F0874FF0000200B513468D
:1006300094469646203922BFA0E80C50A0E80C5002
:10064000B1F12001BFF4F7AF090728BFA0E80C50B3
:1006500048BF0CC05DF804EB890028BF40F8042BAC
:1006600008BF704748BF20F8022B11F0804F18BF19
:1006700000F8012B70477047704770472DE9F0472D
:100680000D4699469246044600F124080168880602
:1006900004D5E06921F01001216000E00120A842AA
:1006A00001DD471B00E00027A1697A1902EB090070
:1006B000081AA0612078C00602D42046FFF774FE15
:1006C000002608E0D4E901211AF806009047206AC4
:1006D000401C761C20624E45F4DB2078C0060AD50B
:1006E0002046FFF761FE06E0D4E901213020904763
:1006F000206A401C2062381EA7F10107F4DC07E0E5
:10070000D4E9012118F805009047206A401C2062B6
:10071000281EA5F10105F3DC2046FFF75BFE2078DB
:10072000000602D50220BDE8F0870120FBE70000AB
:10073000074B70B50D467B4400F011F8044628467F
:1007400000F020F810B14FF0FF3070BD204670BDB2
:100750003F2B000001694A1C02610878704700B510
:100760008FB0CDE901310021059105497944CDE9EA
:10077000031011466846FFF7A7FE0FB000BD00004A
:10078000E5FFFFFF007B00F080007047754600F03A
:100790002BF8AE4605006946534620F00700854613
:1007A00018B020B5FFF76AFDBDE820404FF0000605
:1007B0004FF000074FF000084FF0000B21F0070149
:1007C000AC46ACE8C009ACE8C009ACE8C009ACE88C
:1007D000C0098D46704710B50446AFF3008020462F
:1007E000BDE81040FFF736BD00487047A401002067
:1007F00001491820ABBEFEE7260002007047FEE765
:10080000014800F0D5B8000000010020016818235D
:10081000CAB2103AB2FBF3F2054B6FF30901032A97
:100820009B5CC36500D9091D8165084670470000BF
:10083000B633000810B5014600208B698A6A4FF074
:10084000C07453B1B3F5005F15D072B1012A0CD05A
:10085000022A0AD0032A09D104E01AB1012A06D0DB
:10086000022A03D1C96AC90100D5012010BDC96A95
:10087000A142FAD010BD002AF7D0012AF2D0022AF4
:10088000F3D0032AF3D010BD30B50468256825F4F1
:1008900080252560046863608368402B036803D06B
:1008A00099600068C26030BD9A600068C16030BD68
:1008B0000E48016821F080710160016841F080718B
:1008C00001600B48016821F001010160016841F0FD
:1008D000010101600021416000BF00BF00BF40680E
:1008E00008B100207047012070470000FCED00E0D7
:1008F000001000E0704772B6FEE72DE9F0410446B3
:10090000876D00F0F9FA064694F8350000250228B4
:1009100006D08020606584F834500120BDE8F08165
:100920002068016821F0160101602068416921F00A
:1009300080014161206C08B9A06C20B12068016879
:1009400021F0080101602068016821F001010160C7
:100950000CE000F0D1FA801B052807D92020606543
:10096000032084F8350084F83450D7E72068006805
:10097000C007EED194F85C103F208840B860012099
:1009800084F8350084F834500020C7E790F835101B
:10099000022903D08021416501207047052180F89C
:1009A00035100068016821F00101016000207047E6
:1009B0002DE9F84304464FF00009CDF80090634854
:1009C0004FF41651A56D0068B0FBF1F72E6894F84E
:1009D0005C10082000FA01F131420FD021680A684A
:1009E00052070BD50A6822F004020A6094F85C10E2
:1009F0008840A860606D40F00100606594F85C106C
:100A00004FF0010808FA01F0304208D02168496926
:100A1000090604D5A860606D40F00200606594F896
:100A20005C1004208840304208D02168096889079A
:100A300004D5A860606D40F00400606594F85C1017
:100A400010208840304218D021680968090714D561
:100A5000A86020680168490304D50068000308D530
:100A6000A16C07E00168C90503D4016821F0080101
:100A70000160216C09B12046884794F85C10202061
:100A80008840304231D021680968C9062DD5A86058
:100A900094F8350005282068016806D0490347D539
:100AA000006800031DD4616C1CE021F01601016098
:100AB0002068416921F080014161206C08B9A06C77
:100AC00020B12068016821F00801016094F85C10F1
:100AD0003F208840A86084F8358084F83490216DE8
:100AE0001FE0E16B09B120468847606D00282BD0DC
:100AF000606DC00714D0052084F8350020680168B7
:100B000021F0010101600098401C0090B84203D818
:100B100020680068C007F6D184F8358084F83490E6
:100B2000E16C002910D001B02046BDE8F043084731
:100B30000168C905D5D4016821F01001016084F86D
:100B4000358084F83490CCE7BDE8F8832400002099
:100B50002DE9F041044600F0CFF906465CB10220D1
:100B600084F83500002584F834502068016821F0AD
:100B7000010101600DE00120BDE8F08100F0BCF949
:100B8000801B052805D920206065032084F83500E6
:100B9000F2E720680068C007F0D122681168204899
:100BA0000140D4E901031843D4E903363343184321
:100BB00063691843A3691843E3691843236A184318
:100BC0000843616A042903D1D4E90B13194308438C
:100BD000106020684069666A20F0070130460E43C5
:100BE000012704280CD1A06A0643E06A40B12046E0
:100BF000FFF720FE20B14020606584F83570BAE729
:100C0000206846612046FFF701FE94F85C203F21F2
:100C100091408160656584F835700020ACE7000084
:100C20003F8010F02DE9F0410446866D90F83400C5
:100C3000002501280DD0012084F8340094F8357087
:100C40000020012F07D084F8340002252846BDE893
:100C5000F0810220FBE7022784F8357060652046AA
:100C6000FFF712FE94F85C103F208840B0602068C7
:100C7000016841F016010160206C20B12068016814
:100C800041F0080101602068016841F00101016044
:100C9000DCE7000070B5044600F02EF90546601C44
:100CA00002D004480078044400F026F9401BA0421A
:100CB000FAD370BD180000202DE9F84FDFF8F8A135
:100CC000002201240AF1040B03254FF00F090BF158
:100CD000040E00BF0B6804FA02F63340B34270D131
:100CE0000F7907F00307012F01D0022F16D1876873
:100CF0004FEA420805FA08FC27EA0C07D1F80CC0B5
:100D00000CFA08FC4CEA070CC0F808C04768B74367
:100D10000E79C6F3001696403E4346600E79F643C0
:100D2000B6070AD0C7684FEA420C05FA0CF6B7437B
:100D30008E6806FA0CF63E43C6600E7906F003068E
:100D4000022E10D1D60800EB8608D8F8206057078D
:100D50004FEAD76C09FA0CF7BE430F6907FA0CF794
:100D60003743C8F8207006684FEA420C05FA0CF7C2
:100D7000BE430F7907F0030707FA0CF73743076004
:100D80004E6816F4403F1CD04C4E376847F48047FD
:100D90003760366822F0030706F480460096484E16
:100DA00007EB060CDCF8086897073F0F09FA07F80D
:100DB00026EA0806DFF80C81404503D14FF0000811
:100DC00041E072E0DFF80081404502D14FF00108B8
:100DD00039E0DFF8F880404502D14FF0020832E0F8
:100DE000DFF8EC80404502D14FF003082BE0DFF83C
:100DF000E480404502D14FF0040824E0DFF8D880B9
:100E0000404502D14FF005081DE0DFF8D080404595
:100E100002D14FF0060816E0DFF8C480404502D149
:100E20004FF007080FE0DFF8BC80404502D14FF0DB
:100E3000080808E0DFF8B080404502D14FF009080B
:100E400001E04FF00A0808FA07F848EA0608CCF86B
:100E50000888DAF800605746D1F804C09E435FEA7C
:100E6000CC3C00D51E433E60DBF800605F46D1F805
:100E700004C09E435FEA8C3C00D51E433E60DEF812
:100E800000607746D1F804C09E435FEACC2C00D5C1
:100E90001E433E60084F0C373E68D1F804C09E43A5
:100EA0005FEA8C2C00D51E433E60521C102AFFF4D2
:100EB00011AFBDE8F88F0000003C0140443802400B
:100EC00000300140000002400004024000080240DF
:100ED000000C0240001002400014024000180240C2
:100EE000001C024000200240002402400AB181613F
:100EF00070470904FBE70000014880687047000064
:100F0000180000200248816802781144816070470F
:100F1000180000200B4810B5016841F40071016011
:100F2000016841F480610160016841F480710160F1
:100F3000032000F06FF8002000F006F800F024F81D
:100F4000002010BD003C024070B50D4D04464FF42A
:100F50007A712878B1FBF0F00A490968B1FBF0F02A
:100F600000F042FB48B9102C07D200222146501E47
:100F700000F030F800206C6070BD012070BD0000F2
:100F800018000020240000200A4808B5016841F438
:100F900080410160006800F4804000900548001F17
:100FA000016841F080510160006800F080500090BD
:100FB00008BD000044380240002809DB00F01F0291
:100FC000012191404009800000F1E020C0F80011AB
:100FD00070470000F0B40E4B1B680C46C3F30223AD
:100FE000C3F10705042D00D90425191D072901D2D5
:100FF000002300E0DB1E012606FA05F1491E214010
:1010000099409E40761E16403143F0BC02F01DB957
:101010000CED00E0064900F0070208684FF6FF03F8
:10102000184040EA0220034A10430860704700005D
:101030000CED00E00000FA052DE9F84317480168BF
:1010400041F0805101600068154F00F0805001268A
:1010500000903E64FFF750FF05464FF47A78114C3C
:1010600005E000BFFFF748FF401B40450DD8606812
:10107000C003F7D57E64FFF73FFF0546464607E00D
:10108000FFF73AFF401BB04202D90320BDE8F883C6
:1010900060688003F4D50020F8E700004038024083
:1010A00000000E42007000402DE9F0470E4605009A
:1010B00065D0DFF81481D8F80000F7B200F00F0017
:1010C000B04207D288F80070D8F8000000F00F0096
:1010D000B04254D128683D4C810712D5400703D552
:1010E000206840F4E05020602878000703D520688D
:1010F00040F4604020602068A96820F0F0000843B8
:1011000020602878C0072DD0304968680839012848
:1011100012D0022813D0032811D0096889070029AA
:101120002DDA216821F0030101432160FFF7E4FE7D
:10113000814641F2883A0EE009688903EFE70968C1
:101140008901ECE7FFF7D8FEA0EB0901514502D970
:101150000320BDE8F0872068696800F00C00B0EB60
:10116000810FEFD1D8F80010404601F00F01B142D5
:1011700007D90770006800F00F00B04201D00120CD
:10118000E7E72878400705D52068E96820F4E050B3
:10119000084320602878000706D52068296920F4D4
:1011A000604040EAC100206000F038F82168084A39
:1011B000C1F30311515CC840064908600648006845
:1011C000FFF7C2FE0020C4E7003C0240083802409E
:1011D000BE330008240000201C00002004480549FC
:1011E00000680968044AC1F38221515CC840704715
:1011F0002400002008380240CE3300080448054986
:1012000000680968044AC1F34231515CC840704724
:101210002400002008380240CE330008154810B5DD
:10122000006810F00C02144813D04110042A0FD0AB
:10123000082A0ED10F4C241F2268236802F03F02B7
:101240005B0207D52068C0F38810A0FB010106E00F
:10125000084610BD2168C1F38811A1FB00010023DD
:10126000FFF71EF82168C1F30141491C4900B0FB9A
:10127000F1F010BD083802400024F4002DE9F84FC9
:1012800004006ED02078DFF84C93C007A9F1040564
:101290004AD009F104000168C1F38101012908D095
:1012A0000068C0F3810002280AD1D9F8000040028A
:1012B00006D52868800337D560680028E1D033E080
:1012C0006068B0F5803F10D0B0F5A02F286810D02E
:1012D00020F480302860286820F48020286060682E
:1012E000A8B1FFF709FE06460DE0286840F48030FB
:1012F000F4E740F480202860F7E700BFFFF7FCFD2B
:10130000801B642873D828688003F7D50CE0FFF7AA
:10131000F3FD064605E000BFFFF7EEFD801B6428E5
:10132000F0D828688003F7D42078DFF8AC828007F3
:101330004FF0000A3ED5A748001D016811F00C0FC0
:1013400008D00068C0F3810002280BD1D9F8000052
:10135000400207D42868800716D5E068012800D12C
:1013600012E033E1E068B8B10120C8F80000FFF7EF
:10137000C3FD064605E000BFFFF7BEFD801B022847
:10138000C0D828688007F7D52868216920F0F800C0
:1013900040EAC10028600DE0C8F800A0FFF7ACFDEE
:1013A000064604E0FFF7A8FD801B02281FD8286826
:1013B0008007F7D42078000722D5864F87486169D7
:1013C000703771B101210160FFF796FD064604E018
:1013D000FFF792FD801B022809D838688007F7D5EF
:1013E0000EE0C0F800A0FFF787FD064605E082E0AA
:1013F000FFF782FD801B02287DD838688007F7D46C
:101400002078400768D5DFF8CCB100270BF13C0B02
:10141000DBF80000C0000BD4DBF8001041F0805175
:10142000CBF80010DBF80000012700F0805000909E
:101430006B4E3068C00510D4306840F48070306066
:10144000FFF75AFD009005E0FFF756FD0099401A9E
:10145000022850D83068C005F6D55E4EA0686C36BC
:1014600001280FD00528306810D020F0010030602E
:10147000306820F004003060A068B8B1FFF73CFD90
:1014800000900FE0306840F00100F4E740F0040005
:101490003060F7E7FFF730FD0099411A41F28830DC
:1014A000814266D830688007F4D50EE0FFF724FD4E
:1014B000009007E0FFF720FD0099411A41F28830C3
:1014C000814256D830688007F4D42FB1DBF8001081
:1014D00021F08051CBF80010A069C8B33D49091D27
:1014E0000968C1F3810102294AD00228504607D079
:1014F000C8F8600000E03CE0FFF7FEFC04463BE07B
:101500004746C8F86000FFF7F7FC064605E000BF55
:10151000FFF7F2FC801B02282BD828688001F7D443
:10152000D4E907010843A16A2E4A490802EB0141A8
:10153000626A41EA8211084394F82C1040EA016182
:10154000C9F8001001203866FFF7D6FC044606E013
:101550003EE000BFFFF7D0FC001B022809D8286836
:101560008001F7D534E000BFFFF7C6FC001B02285E
:1015700002D90320BDE8F88F28688001F4D427E061
:101580000128F7D0D9F80000E26900F48001914207
:101590001CD1226A00F03F01914217D147F6C07179
:1015A000626A0140B1EB821F10D1A26A4FF0FF3393
:1015B00000F4403103EB5202B1EB024F06D194F834
:1015C0002C1000F07060B0EB016F01D00120D1E76A
:1015D0000020CFE70438024000004742800E474217
:1015E000007000400000FFFF10B5401EB0F1807F8A
:1015F00001D3012010BD4FF0E02460610F2160177E
:1016000001F023FE0020A06107202061002010BD12
:101610007047704770B590F83C20012A32D0012401
:1016200080F83C40022280F83D2003685A689D689B
:1016300022F070060A6832435A60134B02689A42DD
:1016400014D0B2F1804F11D0104B9A420ED0104BF3
:101650009A420BD00F4B9A4208D00F4B9A4205D0BA
:101660000E4B9A4202D00E4B9A4204D1496825F0A3
:1016700080031943916080F83D40002180F83C10C0
:10168000084670BD022070BD00000140000400400B
:1016900000080040000C00400004014000400140F0
:1016A0000018004010B5040003D094F83D0010B1BC
:1016B00007E0012010BD002084F83C00204600F027
:1016C0001FF8022084F83D00211D206801F024FA53
:1016D000012084F8460084F83E0084F83F0084F836
:1016E000400084F8410084F8420084F8430084F804
:1016F000440084F8450084F83D00002010BD00003F
:1017000070B586B0064614216846FEF78DFF3B4A49
:10171000306800253A4990424FD1086840F00200F5
:101720000860086800F0020005903548103801682C
:1017300041F001010160016801F0010105910168BA
:1017400041F0040101600068022400F004000590EB
:1017500040208DE83100CDE9035469462948FFF760
:10176000ABFA4FF4C0708DE83100CDE903546946FF
:101770002548FFF7A1FA264C244820604FF020604E
:10178000C4E901054FF48060C4E903504000606182
:101790008000A0614011C4E9070520466562FFF79B
:1017A000D7F908B1FFF7A7F8F462002211461D200F
:1017B000A663FFF70FFC1D2010E0164A904211D1DE
:1017C000086840F0040008600868002200F0040087
:1017D000059011461E20FFF7FDFB1E20FFF7ECFBD6
:1017E00006B070BD0C4A9042FAD1086840F0400043
:1017F0000860086800F040000590F1E70004004030
:10180000403802400000024000080240B860024038
:1018100000010020000800400018004090F83D1032
:10182000012901D001207047022180F83D10016894
:10183000CA6842F00102CA6000681149884214D0A7
:10184000B0F1804F11D00F4988420ED00E49884226
:101850000BD00E49884208D00D49884205D00D4969
:10186000884202D00C49884204D1816801F0070106
:10187000062903D0016841F0010101600020704792
:10188000000001400004004000080040000C00403F
:1018900000040140004001400018004070B50446BB
:1018A00090F83C000025012817D0012684F83C6000
:1018B000022084F83D002068826822F0770222F43A
:1018C0007F4282600868502838D00DDC20284FD035
:1018D00005DC90B3102811D14AE0022070BD3028F9
:1018E00046D040280AD13BE060282FD070280DD088
:1018F000B0F5805F03D0B0F5005F12D0012584F809
:101900003D60002084F83C00284670BDCB68D1E9DA
:101910000121206801F0EEF92068816841F077012B
:1019200009E0CB68D1E90121206801F0E3F92068E2
:10193000816841F480418160E1E719E0CA68496843
:10194000206801F0ABFA5021206806E0CA684968B7
:10195000206801F0F5FA6021206801F0D5F9CEE7A2
:10196000CA684968206801F099FA40212068F4E7C4
:10197000226801461046F0E7704700002DE9F04765
:1019800005460068294F2A4EB84207D1287F012812
:1019900004D10021284600F059FC3080244CDFF8A7
:1019A0008C802868083C08F12C084FF03A09B842AE
:1019B0001CD1287F022819D10421284600F046FCBA
:1019C00080B27080318881420AD9D8F80020511A3B
:1019D0000844A0801748016841F08001016001E0DF
:1019E000401AA080A188B1FBF9F0E0802868B842D5
:1019F0001AD1287F042817D10C48203001680168CB
:101A000041F4007101600A49091D0888498888422B
:101A100004D9D8F80020101A084400E0081A2080E1
:101A200081B2B1FBF9F06080BDE8F08700040040AE
:101A3000080000201404024070472DE9F0410546DB
:101A400090F83C0000260C46012810D0012085F8B3
:101A50003C0072B1042A1CD0082A2CD00C2A50D089
:101A60000126002085F83C003046BDE8F0810220C8
:101A7000FBE7D4E90012E368286801F021FA28683E
:101A8000816921F00C01816128688169A268114394
:101A90000FE0D4E90012E368286801F063FA2868CF
:101AA000816921F44061816128688169A26841EA05
:101AB00002218161D5E72868D4E9002C277B016ADF
:101AC00021F480710162C169036A21F0030141EAD6
:101AD0000C0121F0F00C39074FF420674CEA11613A
:101AE00023F4206307EA02221A43C16102622868D4
:101AF000C16921F00C01C1612868C169A268114364
:101B000028E02868D4E90027E168036A23F48053B9
:101B10000362D0F81CC0036A2CF4407C4CEA07270F
:101B20004FF6FF7C27F470470CEA013139434FF43C
:101B3000204723F4204307EA02321A43C1610262BC
:101B40002868C16921F44061C1612868C169A2683F
:101B500041EA0221C16184E710B5040003D094F882
:101B60003D0010B107E0012010BD002084F83C00CA
:101B7000204600F01EF8022084F83D00211D206858
:101B800000F0CAFF012084F8460084F83E0084F883
:101B90003F0084F8400084F8410084F8420084F853
:101BA000430084F8440084F8450084F83D00002098
:101BB00010BD70472DE9F0411F4690460D000446C8
:101BC0004FF000060ED0042D11D0082D14D094F83B
:101BD000410094F84510022813D0022911D00128A1
:101BE00012D0B1E094F83E0094F84210F3E794F874
:101BF0003F0094F84310EEE794F8400094F8441046
:101C0000E9E70220BDE8F08101297AD1B8F1000F9F
:101C100001D1002F75D10220DDB3042D40D0082D55
:101C200043D084F8410084F8450001222946206809
:101C300000F0D6FF48484949494A5DB3042D4CD0CD
:101C4000082D5FD00C2D71D00126464920688842AE
:101C500014D0B0F1804F11D0434988420ED043498F
:101C600088420BD04249884208D04249884205D078
:101C70004149884202D04149884204D1816801F03B
:101C80000701062903D0016841F0010101603046D7
:101C9000B8E700E00EE084F83E0084F84200C4E7B4
:101CA00084F83F0084F84300BFE784F8400084F8DC
:101CB0004400BAE7636AD863606A3B460164606ABD
:101CC000C264216842463431606AFEF7ABFFC0B996
:101CD0002068C16841F4007111E0A36AD863A06A6A
:101CE0003B460164A06AC264216842463831A06A5A
:101CF000FEF798FF28B92068C16841F48061C1608F
:101D0000A3E721E0E36AD863E06A3B460164E06A46
:101D1000C264216842463C31E06AFEF783FF98B90D
:101D20002068C16841F40061E9E7FFE7236BD863ED
:101D3000206B3B460164206BC264216842464031FF
:101D4000206BFEF76FFF08B101205BE72068C168D8
:101D500041F48051D3E70000FB2B0008692C0008F8
:101D6000A12C0008000001400004004000080040D1
:101D7000000C0040000401400040014000180040F9
:101D800030B50446002551B104290DD0082910D0E2
:101D900094F8410094F84520012811D10EE094F800
:101DA0003E0094F84220F7E794F83F0094F843206F
:101DB000F2E794F8400094F84420EDE7012A01D0BE
:101DC000012030BD022059B1042912D0082919D0B0
:101DD00084F8410084F845000C2944D0012540E0F6
:101DE00084F83E0084F842002068C26842F0020293
:101DF00010E084F83F0084F843002068C26842F095
:101E0000040207E084F8400084F844002068C268B7
:101E100042F00802C2600122206800F0E1FE14498D
:101E20002068884214D0B0F1804F11D01149884207
:101E30000ED0114988420BD01049884208D0104971
:101E4000884205D00F49884202D00F49884204D108
:101E5000816801F00701062903D0016841F0010102
:101E60000160284630BD2068C26842F01002D1E708
:101E7000000001400004004000080040000C004049
:101E800000040140004001400018004070B50446C5
:101E9000006801694FF00005C943890715D4C1687E
:101EA000C943890711D4E91E016101202077206808
:101EB00080698007204602D0FFF760FD04E000F053
:101EC00005F9204600F0B2F9257720680169C94379
:101ED000490717D4C168C943490713D46FF00401F7
:101EE0000161022020772068806910F4407F20463D
:101EF00002D0FFF743FD04E000F0E8F8204600F0D0
:101F000095F9257720680169C943090716D4C16886
:101F1000C943090712D46FF008010161042020773A
:101F20002068C0698007204602D0FFF727FD04E043
:101F300000F0CCF8204600F079F925772068016997
:101F4000C943C90617D4C168C943C90613D46FF081
:101F500010010161082020772068C06910F4407FDB
:101F6000204602D0FFF70AFD04E000F0AFF820465B
:101F700000F05CF9257720680169C943C90708D1D9
:101F8000C168C943C90704D1891E0161204600F018
:101F90004FF920680169C943090609D4C168C943DA
:101FA000090605D46FF0800101612046FFF730FB80
:101FB00020680169C943490609D4C168C943490673
:101FC00005D46FF040010161204600F054F920680B
:101FD0000169C94389060BD4C168C943890607D47E
:101FE0006FF0200101612046BDE87040FFF711BB92
:101FF00070BD000010B586B0044614216846FEF797
:1020000013FB2368174C002117480222A34210D16A
:10201000036843F008030360006800F008000590BF
:10202000D0020090CDE90121CDE9031269460F48A5
:1020300013E00F4CA34212D1036843F00203036084
:10204000006800F002000590E0130090CDE9012146
:102050000920CDE9031069460648FEF72DFE06B0BB
:1020600010BD00000008004030380240000C024063
:10207000001800400004024070B5044690F83C008F
:10208000002501280FD0012084F83C006AB1042A01
:102090000FD0082A11D00C2A13D00125002084F873
:1020A0003C00284670BD022070BD206800F034FE60
:1020B000F4E7206800F060FEF0E7206800F092FE90
:1020C000ECE7206800F0C2FEE8E700000248016883
:1020D00021F04001016070471404024010B5040073
:1020E00003D094F83D0010B107E0012010BD00209E
:1020F00084F83C00204600F01EF8022084F83D00E1
:10210000211D206800F008FD012084F8460084F8B5
:102110003E0084F83F0084F8400084F8410084F8D1
:10212000420084F8430084F8440084F8450084F8B1
:102130003D00002010BD704730B500250446022246
:1021400049B1042912D008294CD094F84100012843
:1021500053D0012030BD94F83E000128F9D184F815
:102160003E202068C26842F0020209E094F83F0075
:102170000128EED184F83F202068C26842F00402B2
:10218000C2600122206800F02BFD21492068214A0D
:10219000884201D0904203D1436C43F4004343642E
:1021A0002068884213D0B0F1804F10D01A4988427D
:1021B0000DD01A4988420AD01949884207D0904266
:1021C00005D01849884202D01749884204D1816855
:1021D00001F00701062903D0016841F00101016007
:1021E000284630BD94F840000128B2D184F8402040
:1021F0002068C26842F00802C2E784F841200C2936
:1022000001D00125ECE72068C26842F01002B7E770
:1022100000000140000401400004004000080040AC
:10222000000C0040004001400018004070470000D2
:1022300000680449884204D10348016841F0400124
:10224000016070470008004014040240024600206C
:1022500041B1042909D008290AD00C2901D11068FC
:10226000006C70471068406B70471068806B704757
:102270001068C06B7047704770477047F8B50168C9
:1022800004460868CA684B6910F00F0F4FF000054C
:1022900059D003F0010602F49077374365D0C107A7
:1022A00005D0D10503D5216C41F00101216441071E
:1022B00005D5D90703D0216C41F0020121648107C3
:1022C00005D5D90703D0216C41F004012164010731
:1022D00007D502F02001314303D0216C41F0080101
:1022E0002164216C00293AD0800604D5900602D5DD
:1022F000204600F081FE20684069216CC0F3801008
:10230000090700D460B3204600F04FFE2068406902
:10231000400621D52068143050E8001F21F040010C
:1023200040E80012002AF5D1A06BA8B16C49016504
:10233000A06BFEF72BFB002811D0A06B016D01B044
:10234000BDE8F040084783060FD593060DD520461B
:10235000BDE8F84000F050BE2046FFF78EFFF8BD04
:102360002046FFF78AFF2564F8BD266B2023012E47
:1023700079D1C60677D5D60675D508684868009025
:102380004869400640D5A16B086840680004000C0D
:10239000EAD0A28D8242E7D9E085C869B0F5807F96
:1023A0002DD020680C3050E8001F21F4807140E8E7
:1023B0000012002AF5D12068143050E8001F21F0E7
:1023C000010140E80012002AF5D12068143050E8DD
:1023D000001F21F0400140E80012002AF5D184F8E6
:1023E0003E30256320680C3050E8001F21F01001BA
:1023F00040E80012002AF5D1A06BFEF77EFAA08D0E
:10240000E18D401A81B229E0A08DE18D401A81B2A0
:10241000E08D0028A8D00029A6D020680C3050E814
:10242000002F22F4907240E80026002EF5D120689B
:10243000143050E8002F22F0010240E80026002E60
:10244000F5D184F83E30256320680C3050E8002F29
:1024500022F0100240E80023002BF5D12046FFF7C0
:102460000BFFF8BDFFE705062BD5150629D594F817
:102470003D002128F5D1A068B0F5805F01D1206929
:10248000B0B1206A411C2162216800784860E08C6C
:10249000401E0004000CE084E3D12068C16821F0F4
:1024A0008001C1602068C16841F04001C160D8E787
:1024B000206A0088C0F308004860206A801C2062FF
:1024C000E5E74006CDD55006CBD5CA68204622F0B8
:1024D0004002CA6084F83D3000F0CFF8C1E7000048
:1024E0009B2F000870B5040004D094F83D0000252F
:1024F00010B106E0012070BD84F83C50204600F089
:1025000023F8242084F83D002068C16821F400519C
:10251000C160204600F0D0FD2068016921F490419F
:1025200001612068416921F02A0141612068C16888
:1025300041F40051C1602564202084F83D0084F8F6
:102540003E00002070BD000010B586B00446142186
:102550006846FEF769F818492068884229D117486B
:102560000021026842F480220260006800F48020AA
:10257000059012481038026842F0020202600068BA
:1025800000F0020005904FF4406000900220CDE979
:102590000101032003900720049069460848FEF7D4
:1025A0008BFB002211462720FEF714FD2720FEF7A3
:1025B00003FD06B010BD0000004800404038024056
:1025C00000040240704700002DE9F843044690F8EB
:1025D0003D001F4616460D4620284CD1C5B1BEB160
:1025E00094F83C00012846D0012084F83C004FF0CC
:1025F0000008C4F84080212084F83D00FEF77CFCF0
:10260000A6848146E684A068B0F5805F03D004E02C
:102610000120BDE8F883206928B12E465FF000054F
:1026200084F83C800EE00026FAE78021204600F086
:10263000C9FDA0B9AEB116F8010B21684860E08C65
:10264000401EE084E08C4B464FF0000200970028CB
:10265000EBD14FF04001204600F0B4FD30B1032033
:10266000D7E735F8020BC0F30800E6E7202084F82E
:102670003D000020CDE70220CBE77047FEE70000D9
:10268000094808B5016841F40011016000680022A2
:1026900000F40010009011462F20FEF79BFCBDE8CF
:1026A00008402F20FEF788BC303802402DE9F04F5B
:1026B00087B014216846FDF7B7FF5748002401682A
:1026C00041F004010160016801F004010591016815
:1026D00041F080010160016801F08001059101680D
:1026E00041F001010160016801F0010105910168FB
:1026F00041F002010160016801F0020105910168E9
:1027000041F008010160016801F0080105910168CC
:1027100041F0400101600068DFF800B100F04000C6
:1027200044F2C1080590002241465846FEF7DEFB00
:10273000002240213A48FEF7D9FB4FF400594FF4EC
:102740008810CDF80090CDE90104DFF8D8A06946E3
:102750005046FEF7B1FA32200225CDE9000502AA63
:1027600003260B2782E8D00069465046FEF7A4FAFC
:102770008620CDE9000502AADFF8ACA082E8D000EF
:1027800069465046FEF798FACDF800804FF00108F0
:10279000CDE90184694658460394FEF78DFA02AAF2
:1027A000694682E8D000CDE900955846FEF784FAE4
:1027B00040200090CDE90184694619480394FEF752
:1027C0007BFA8020CDE90004694615480294FEF7A3
:1027D00073FA4FF4E850CDE9000502940A20CDE9E0
:1027E000036069465046FEF767FA2802CDE9000407
:1027F000694650460294FEF75FFA4FF42050CDE947
:10280000000502AA694682E8D0000548FEF754FA9E
:1028100007B0BDE8F08F00003038024000040240ED
:1028200000180240000802400000024010B58CB0C1
:1028300000240794089409941C2168460A94FDF723
:10284000F3FE1A481849016040F2DB51C0E9011457
:102850004EF65F21C0E903148461FEF723FF08B13F
:10286000FEF749F84FF48050079007A90F48FFF78B
:1028700015F808B1FEF73FF80C48FFF72FFC08B138
:10288000FEF739F80094019402940422694607483F
:102890000494FFF7F1FB08B1FEF72DF80348FFF7AA
:1028A000A9FB0CB010BD000000180040B8000020CB
:1028B00010B58AB000242D4804940594069407941A
:1028C00008940994009401940294274903940160A8
:1028D0005921C0E901144FF6FF71C0E903148021AA
:1028E0008161FEF7DFFE08B1FEF705F84FF4805076
:1028F000049004A91D48FEF7D1FF08B1FDF7FBFFC6
:102900001A48FFF729F908B1FDF7F5FF089408A95F
:1029100016480994FEF77EFE08B1FDF7ECFF012092
:10292000CDE900400F20CDE90240002269460F4862
:10293000FFF783F808B1FDF7DEFF022000900422C4
:1029400069460A48FFF779F808B1FDF7D4FF00940B
:102950000822694605480394FFF76FF8002801D064
:10296000FDF7C9FF0AB010BD000400402800002098
:1029700010B58EB000240794089409940A940B941F
:102980001C2168460C94FDF74FFE1F481D4901604D
:102990009521C0E901144EF65F21C0E9031480219E
:1029A0008161FEF77FFE08B1FDF7A5FF4FF480506F
:1029B000079007A91448FEF771FF08B1FDF79BFFC8
:1029C0001148FFF78BFB08B1FDF795FF0B940BA99E
:1029D0000D480C94FEF71EFE08B1FDF78CFF072092
:1029E000CDE9004002940022694607480494FFF7AD
:1029F00043FB08B1FDF77FFF0348FFF7FBFA0EB07A
:102A000010BD000000080040700000200C4810B508
:102A10000A4901604FF4E1314160002181600C22DC
:102A2000C160C0E904128161C161FFF75BFD00284C
:102A300003D0BDE81040FDF75EBF10BD0048004068
:102A400060010020FEE7FEE770477047FEF75ABAC4
:102A500030B593B030216846FDF7E6FD14210CA88F
:102A6000FDF7E2FD20480025016841F0805101603A
:102A7000006800F0805011901C48016841F440410A
:102A800001600068022400F4404011900120009091
:102A90004FF4A02001906005CDE9064008AA04206B
:102AA000B42182E813000B906846FEF7E7FB08B1FB
:102AB00072B6FEE7FEF7C0FA08B172B6FEE70CA9DF
:102AC0000F2081E831004FF4A0500F904FF4805058
:102AD000109005210CA8FEF7E7FA002801D072B685
:102AE000FEE713B030BD00004038024000700040E7
:102AF0000248016841F470010160704788ED00E010
:102B00000148FFF7C3B90000280000200148FFF783
:102B1000BDB9000070000020F0B50268254C264DBC
:102B2000264E274F274B4FF0804CA04209D06045DE
:102B300007D0A84205D0B04203D0B84201D0984295
:102B400004D122F0700E4A6842EA0E02A0421BD065
:102B5000604519D0A84217D0B04215D0B84213D062
:102B6000984211D0184DA8420ED0184DA8420BD053
:102B7000174DA84208D0174DA84205D0164DA842BF
:102B800002D0164DA84203D122F44075CA682A43E8
:102B90004D6922F080022A4302608A68C2620A6894
:102BA0008262A04201D0984201D1096901630121EA
:102BB0004161F0BD000001400004004000080040F9
:102BC000000C00400004014000400140004401406E
:102BD0000048014000180040001C00400020004058
:102BE00010B501F01F030121046A99408C4304626F
:102BF000016A9A401143016210BD10B5846B012136
:102C0000626A824207D12177C06938BB84F83E10DE
:102C100084F8421022E0A26A824208D1022222777E
:102C2000C069D8B984F83F1084F8431016E0E26A0E
:102C3000824208D104222277C06978B984F8401012
:102C400084F844100AE0226B824207D108222277DE
:102C5000C06918B984F8411084F845102046FEF781
:102C60008DFE0020207710BD10B5846B616A814213
:102C700001D101200DE0A16A814201D1022008E0CA
:102C8000E16A814201D1042003E0216B814201D13C
:102C9000082020772046FEF7CFFE0020207710BDC9
:102CA00010B5846B0121626A824203D1217784F8D6
:102CB0003E1019E0A26A824204D10220207784F8F3
:102CC0003F1011E0E26A824204D10420207784F8A8
:102CD000401009E0226B824204D10820207784F85A
:102CE000411001E084F83D102046FEF745FE00202B
:102CF000207710BD10B5846842EA032224F47F4493
:102D00000A432243826010BD826822F070020A43A7
:102D100042F0070181607047F0B5026A22F00102BB
:102D20000262036A42688469124E24F073050C68DB
:102D30002C4323F002058B682B430D4DA84201D094
:102D4000B04205D123F00807CB683B4323F00403CE
:102D5000A84201D0B04205D14D6922F4407215431A
:102D60008A692A4342608461496841630362F0BD15
:102D70000000014000040140F0B5026A22F0100298
:102D80000262026A436884690D6824F4E64444EAF6
:102D900005248D6822F0200242EA05120F4D104EE4
:102DA000A84201D0B04206D1CF6822F0800242EAA8
:102DB000071222F04002A84201D0B04207D14D696B
:102DC00023F4406343EA85038D6943EA8503436046
:102DD0008461496881630262F0BD00000000014027
:102DE00000040140F0B5026A22F480720262026AB5
:102DF0004368C46922F4007224F073050C68124E13
:102E00002C438D6842EA05220E4DA84201D0B04203
:102E100006D1CF6822F4006242EA072222F48062DF
:102E2000A84201D0B04207D14D6923F4405343EA90
:102E300005138D6943EA05134360C4614968C163A2
:102E40000262F0BD000001400004014030B5026A9A
:102E500022F480520262046A4268C3690D6823F456
:102E6000E64343EA05238D6824F4005444EA05341C
:102E7000084DA84202D0084DA84204D14D6922F461
:102E8000804242EA85124260C3614968016404627B
:102E900030BD0000000001400004014010B5036A8D
:102EA000046A24F001040462846924F0F00444EA12
:102EB000021423F00A020A438461026210BD00007A
:102EC00070B5046A24F0010404628469056A154E31
:102ED000B04214D0B0F1804F11D0134EB0420ED09A
:102EE000124EB0420BD0124EB04208D0114EB0423A
:102EF00005D0114EB04202D0104EB04203D124F0A2
:102F00000304144301E044F001041A0724F0F00420
:102F100044EA126225F00A0301F00A0119438261B2
:102F2000016270BD00000140000400400008004044
:102F3000000C004000040140004001400018004027
:102F400010B5036A23F0100303628369046A23F453
:102F5000704343EA023224F0A00343EA0111826184
:102F6000016210BD30B5046A24F010040462846963
:102F7000056A24F4407444EA022222F470444FF6B5
:102F8000FF7202EA03322243A02425F0A00304EAE0
:102F9000011119438261016230BD10B5806B0021BF
:102FA000C185C184FFF769F910BD01680C3151E892
:102FB000002F22F4907241E80023002BF5D1016824
:102FC000143151E8002F22F0010241E80023002BC8
:102FD000F5D1016B012909D101680C3151E8002FAD
:102FE00022F0100241E80023002BF5D1202180F8C7
:102FF0003E1000210163704708B590F83E10222969
:1030000001D0022008BD82684FF480539A4201D15A
:10301000016921B1816A9A421BD04AB10AE0026873
:10302000816A5268C2F308020A80816A891C08E03A
:10303000026972B10268526802F07F020A70816A06
:10304000491C8162C18D491E0904090CC18503D048
:1030500019E002685268F1E70168CA6822F02002AC
:10306000CA600168CA6822F48072CA6001684A694D
:1030700022F001024A61202180F83E10016B0129F3
:1030800003D0FFF79FFA002008BD0021016301680B
:103090000C3151E8002F22F0100241E80023002BF0
:1030A000F5D101680A68D20602D50A68496800911C
:1030B000818DFFF7E1F8E6E770B504460068016925
:1030C000E26821F44051114301612169A068E2697D
:1030D00008436169114308432168CA6849F20C63D7
:1030E0009A430243CA6020684169A26921F4407191
:1030F0001143416131492068884202D030498842F9
:1031000002D1FEF77BF801E0FEF768F8E2690023E0
:10311000192164253226B2F5004F626828D0A0FB41
:103120000101930F9200FDF7BBF80146B0FBF5F0EB
:103130006FF01802504301EB800006EB0010B0FB6B
:10314000F5F000F0F002B1FBF5F002EB0012B1FB7C
:10315000F5F06FF01803584301EB800006EB001008
:10316000B0FBF5F000F00F0021681044886070BDDE
:10317000A0FB010192185B41FDF792F80146B0FBFC
:10318000F5F00201B1FBF5F06FF01803584301EBC5
:10319000800006EBC000B0FBF5F000F0F80002EB99
:1031A0004002B1FBF5F0584301EB800006EBC00094
:1031B000B0FBF5F000F00700D6E70000001001407A
:1031C000001401402DE9F041984617460E4604468A
:1031D000069D27E0681C25D02DB1FDF78DFEA0EBE4
:1031E0000800A8421ED920680C3050E8001F21F4C6
:1031F000D07140E80012002AF5D12068143050E860
:10320000001F21F0010140E80012002AF5D1202022
:1032100084F83D0084F83E00002084F83C00032040
:10322000BDE8F0812068006836EA000004D0002084
:10323000B842CFD00020F3E70120F9E70148FFF7BB
:103240001DB8000060010020FEE70907090E0028F4
:1032500004DB00F1E02080F80014704700F00F005C
:1032600000F1E02080F8141D704730380A2801D2A0
:10327000012070470020704713B54FF6FF730122FD
:1032800069460248FFF7A0F900981CBD60010020C4
:1032900008B5FDF73FFEFFF7DBFBFFF707FAFFF787
:1032A00007FBFFF765FBFFF7B1FBFFF7E9F9FFF756
:1032B000BDFAFDF7FDFA2048FEF7B0FA1F48FEF709
:1032C000ADFA00211C48FEF737FF00211C48FEF72D
:1032D00057FD04211A48FEF753FD0223194A08211D
:1032E0001748FEF767FC18A0FDF752F84FF4FA6094
:1032F000FDF7D0FC134C124E0C3C184F04F108059E
:103300006420FDF7C7FCFDF769FF41003068806A63
:10331000401CB1FBF0F02061608800906A88298829
:10332000E3880FA0FDF734F839680223002219A0C2
:10333000FDF72EF8E4E7000070000020B800002040
:10334000280000200C0000207374617274207468DF
:10335000652070726F6772616D0D0A002004004075
:103360002535642D253564203D3E206469737461E4
:103370006E63652025346420636D2C20444D4164C8
:10338000697374616E63652025346420636D0D0A72
:103390000000000043434552203A20307825782031
:1033A00020257520256C750D0A0000004FF0407037
:1033B000E1EE100A70470006101600061016000015
:1033C00000000000000001020304060708090000D5
:1033D00000000102030430313233343536373839D6
:1033E0004142434445464030580030313233343551
:1033F00036373839616263646566403078000000B2
:10340000203400080000002028000000E801000827
:103410004834000828000020E007000004020008EB
:10342000000000000000000000000000000000009C
:10343000000000000000000001000000100000007B
:08344000000000000024F4006C
:04000005080001AD41
:00000001FF
