:020000040800F2
:1000000068070020550200087723000871200008C7
:100010007523000847070008812A00080000000037
:100020000000000000000000000000007B2300082A
:100030008D07000800000000792300087D230008D8
:100040006F0200086F0200086F0200086F020008CC
:100050006F0200086F0200086F0200086F020008BC
:100060006F0200086F0200086F0200086F020008AC
:100070006F0200086F0200086F0200086F0200089C
:100080006F0200086F0200086F0200086F0200088C
:100090006F0200086F0200086F0200086F0200087C
:1000A0006F0200086F0200086F0200086F0200086C
:1000B0006F020008312400083D2400086F02000888
:1000C0006F0200086F0200086F0200086F0200084C
:1000D0006F0200086F0200086F020008752A00080E
:1000E0006F0200086F0200086F0200086F0200082C
:1000F0006F0200086F0200086F0200086F0200081C
:100100006F0200086F0200086F0200086F0200080B
:100110006F0200086F0200086F0200086F020008FB
:100120006F0200086F0200086F0200086F020008EB
:100130006F0200086F0200086F0200086F020008DB
:100140006F0200086F0200086F0200086F020008CB
:100150006F0200086F0200086F0200086F020008BB
:100160006F0200086F0200086F0200086F020008AB
:100170006F0200086F0200086F0200080000000014
:100180006F0200086F0200086F0200086F0200088B
:100190006F0200086F0200086F0200086F0200087B
:1001A0006F0200086F0200086F02000800F002F8FA
:1001B00000F041F80AA090E8000C82448344AAF1C0
:1001C0000107DA4501D100F036F8AFF2090EBAE8BE
:1001D0000F0013F0010F18BFFB1A43F0010318477B
:1001E000042A0000242A0000103A24BF78C878C1ED
:1001F000FAD8520724BF30C830C144BF04680C602D
:10020000704700000023002400250026103A28BF74
:1002100078C1FBD8520728BF30C148BF0B60704778
:10022000642900F0E380002070471FB502F09CFCB9
:100230001FBD10B510BD00F04DFA1146FFF7F5FFD8
:1002400002F042FC00F06BFA03B4FFF7F2FF03BCCC
:1002500000F072FA0948804709480047FEE7FEE7C8
:10026000FEE7FEE7FEE7FEE7FEE7FEE7FEE7FEE766
:1002700004480549054A064B704700002124000840
:10028000AD01000868010020680700206803002015
:100290006803002053EA020C00F069802DE9F04B5E
:1002A0004FF00006002B1FBFB3FA83F503FA05F4E5
:1002B00024FA05F65E4012BF1643B2FA82F502FA3E
:1002C00005F4C5F120051EBF22FA05FC44EA0C0422
:1002D000203556EA044C4FEA144418BF641C4FF012
:1002E00000084FF00009904271EB030C39D300294C
:1002F00019BFB1FA81F701FA07F6B0FA80F700FAF0
:1003000007F6C7F120071EBF20FA07FC46EA0C06D5
:100310002037B6FBF4FCA7EB0507103F07F01F0BD7
:10032000CBF120060CFA0BFB2CFA06F644BFB346C1
:100330000026202FA4BF5E464FF0000B5BEA060CA0
:1003400008BF4FF0010B19EB0B09ABFB027C48EB2C
:100350000608C01B06FB02CC0BFB03CC71EB0C01A7
:10036000C1E70B46024641464846BDE8F08B13B54F
:100370004FF000004FF00001AFF30080BDE81C40DB
:10038000704700000FB4044910B503AA029800F0AA
:1003900073F910BC5DF814FB1C00002070B5044616
:1003A00085690068C10601D5302600E02026C00717
:1003B00007D070BDD4E9012130469047206A401C27
:1003C00020626D1EF6D570BD70B504468569007853
:1003D000C00707D170BDD4E9012120209047206AD1
:1003E000401C20626D1EF6D570BD00002DE9F04165
:1003F0000646002410687529314616A510D0AFF3C3
:100400000080002802DA404213A507E031688A071D
:1004100001D512A502E0490704D511A5012401E088
:10042000AFF3008000210A2206F1240709E0B0FBA7
:10043000F2FCB0FBF2F302FB1C003030785418469B
:10044000491C0028F3D123462A463046BDE8F04136
:1004500000F0B9B8000000002D0000002B000000E3
:10046000200000002DE9F0474FF0000A89460446BD
:10047000C0F820A02046E1688847002876D02528CB
:1004800006D0D4E901219047206A401C2062F1E7A0
:10049000E168204600258847C4F81CA006460027CE
:1004A000C4F818A02A2E09D0304602F0FAFA38B360
:1004B00004EB8708303EC8F8186019E059F8041BAF
:1004C000204604EB87029161E1688847012F0646C8
:1004D00018D1E069002820DA25F020051DE0D8F8C1
:1004E000180000EB800006EB40003038C8F8180018
:1004F0002046E1688847064602F0D3FA0028EED18C
:10050000012F0AD02E2E08D12046E16888477F1C93
:100510000646022F45F02005C4DBA069002803DA57
:10052000404245F00105A061E80701D025F0100523
:10053000B6B1A6F14100192802D8203645F400656D
:100540004A463146204625604D46FFF769FE58B1C0
:10055000012806D0ED1D25F0070000F1080989E704
:1005600004E005F1040985E730468AE7206ABDE822
:10057000F0874FF0000200B51346944696462039A6
:1005800022BFA0E80C50A0E80C50B1F12001BFF44C
:10059000F7AF090728BFA0E80C5048BF0CC05DF8B2
:1005A00004EB890028BF40F8042B08BF704748BF00
:1005B00020F8022B11F0804F18BF00F8012B704774
:1005C0007047704770472DE9F0470D4699469246AF
:1005D000044600F124080168880604D5E06921F08A
:1005E0001001216000E00120A84201DD471B00E06E
:1005F0000027A1697A1902EB0900081AA061207886
:10060000C00602D42046FFF7C9FE002608E0D4E960
:1006100001211AF806009047206A401C761C2062CF
:100620004E45F4DB2078C0060AD52046FFF7B6FE1B
:1006300006E0D4E9012130209047206A401C206266
:10064000381EA7F10107F4DC07E0D4E9012118F80E
:1006500005009047206A401C2062281EA5F1010574
:10066000F3DC2046FFF7B0FE2078000602D502201A
:10067000BDE8F0870120FBE7074B70B50D467B44D2
:1006800000F011F80446284600F020F810B14FF0B1
:10069000FF3070BD204670BD2F24000001694A1C48
:1006A00002610878704700B58FB0CDE901310021B3
:1006B000059105497944CDE9031011466846FFF7D5
:1006C000D1FE0FB000BD0000E5FFFFFF007B00F092
:1006D00080007047754600F02BF8AE46050069466D
:1006E000534620F00700854618B020B5FFF7C0FD3F
:1006F000BDE820404FF000064FF000074FF0000823
:100700004FF0000B21F00701AC46ACE8C009ACE8A3
:10071000C009ACE8C009ACE8C0098D46704710B507
:100720000446AFF300802046BDE81040FFF78CBDC3
:10073000004870470401002001491820ABBEFEE7C5
:10074000260002007047FEE70E48016821F0807124
:100750000160016841F0807101600B48016821F07F
:1007600001010160016841F0010101600021416067
:1007700000BF00BF00BF406808B1002070470120E3
:1007800070470000FCED00E0001000E0704772B61A
:10079000FEE72DE9F0410446876D00F087F9064633
:1007A00094F835000025022806D08020606584F882
:1007B00034500120BDE8F0812068016821F0160165
:1007C00001602068416921F080014161206C08B915
:1007D000A06C20B12068016821F008010160206848
:1007E000016821F0010101600CE000F05FF9801B5D
:1007F000052807D920206065032084F8350084F897
:100800003450D7E720680068C007EED194F85C1038
:100810003F208840B860012084F8350084F83450C7
:100820000020C7E790F83510022903D080214165E8
:1008300001207047052180F835100068016821F01B
:10084000010101600020704770B5044600F02EF9E8
:100850000546601C02D004480078044400F026F9E4
:10086000401BA042FAD370BD200000202DE9F84FB4
:10087000DFF8F8A1002201240AF1040B03254FF050
:100880000F090BF1040E00BF0B6804FA02F63340A7
:10089000B34270D10F7907F00307012F01D0022F67
:1008A00016D187684FEA420805FA08FC27EA0C07C8
:1008B000D1F80CC00CFA08FC4CEA070CC0F808C0D0
:1008C0004768B7430E79C6F3001696403E4346602C
:1008D0000E79F643B6070AD0C7684FEA420C05FA0C
:1008E0000CF6B7438E6806FA0CF63E43C6600E79E6
:1008F00006F00306022E10D1D60800EB8608D8F8C1
:10090000206057074FEAD76C09FA0CF7BE430F690E
:1009100007FA0CF73743C8F8207006684FEA420C14
:1009200005FA0CF7BE430F7907F0030707FA0CF737
:10093000374307604E6816F4403F1CD04C4E376872
:1009400047F480473760366822F0030706F4804694
:100950000096484E07EB060CDCF8086897073F0F37
:1009600009FA07F826EA0806DFF80C81404503D1AA
:100970004FF0000841E072E0DFF80081404502D10D
:100980004FF0010839E0DFF8F880404502D14FF020
:10099000020832E0DFF8EC80404502D14FF0030856
:1009A0002BE0DFF8E480404502D14FF0040824E05A
:1009B000DFF8D880404502D14FF005081DE0DFF890
:1009C000D080404502D14FF0060816E0DFF8C48021
:1009D000404502D14FF007080FE0DFF8BC804045EA
:1009E00002D14FF0080808E0DFF8B080404502D19E
:1009F0004FF0090801E04FF00A0808FA07F848EA42
:100A00000608CCF80888DAF800605746D1F804C028
:100A10009E435FEACC3C00D51E433E60DBF800609D
:100A20005F46D1F804C09E435FEA8C3C00D51E436C
:100A30003E60DEF800607746D1F804C09E435FEA6E
:100A4000CC2C00D51E433E60084F0C373E68D1F8D1
:100A500004C09E435FEA8C2C00D51E433E60521CAE
:100A6000102AFFF411AFBDE8F88F0000003C0140F0
:100A700044380240003001400000024000040240BF
:100A800000080240000C0240001002400014024026
:100A900000180240001C02400020024000240240D6
:100AA0000AB1816170470904FBE7000001488068D2
:100AB000704700002000002002488168027811443D
:100AC00081607047200000200B4810B5016841F498
:100AD00000710160016841F480610160016841F4C6
:100AE00080710160032000F06FF8002000F006F82C
:100AF00000F024F8002010BD003C024070B50D4D00
:100B000004464FF47A712878B1FBF0F00A4909687D
:100B1000B1FBF0F000F042FB48B9102C07D20022E4
:100B20002146501E00F030F800206C6070BD01209E
:100B300070BD0000200000202C0000200A4808B5ED
:100B4000016841F480410160006800F48040009039
:100B50000548001F016841F080510160006800F005
:100B60008050009008BD000044380240002809DB96
:100B700000F01F02012191404009800000F1E020B7
:100B8000C0F8001170470000F0B40E4B1B680C4613
:100B9000C3F30223C3F10705042D00D90425191D51
:100BA000072901D2002300E0DB1E012606FA05F129
:100BB000491E214099409E40761E16403143F0BCAC
:100BC00001F05FBF0CED00E0064900F00702086885
:100BD0004FF6FF03184040EA0220034A1043086022
:100BE000704700000CED00E00000FA052DE9F84325
:100BF0001748016841F0805101600068154F00F00E
:100C00008050012600903E64FFF750FF05464FF4E8
:100C10007A78114C05E000BFFFF748FF401B4045C4
:100C20000DD86068C003F7D57E64FFF73FFF054627
:100C3000464607E0FFF73AFF401BB04202D90320C7
:100C4000BDE8F88360688003F4D50020F8E7000071
:100C50004038024000000E42007000402DE9F0478D
:100C60000E46050065D0DFF81481D8F80000F7B211
:100C700000F00F00B04207D288F80070D8F80000EA
:100C800000F00F00B04254D128683D4C810712D5C6
:100C9000400703D5206840F4E05020602878000722
:100CA00003D5206840F4604020602068A96820F0E7
:100CB000F000084320602878C0072DD030496868CC
:100CC0000839012812D0022813D0032811D009684E
:100CD000890700292DDA216821F0030101432160F1
:100CE000FFF7E4FE814641F2883A0EE00968890385
:100CF000EFE709688901ECE7FFF7D8FEA0EB0901EF
:100D0000514502D90320BDE8F0872068696800F0EA
:100D10000C00B0EB810FEFD1D8F80010404601F085
:100D20000F01B14207D90770006800F00F00B04210
:100D300001D00120E7E72878400705D52068E96859
:100D400020F4E050084320602878000706D520688A
:100D5000296920F4604040EAC100206000F038F8C2
:100D60002168084AC1F30311515CC8400649086074
:100D700006480068FFF7C2FE0020C4E7003C0240BE
:100D800008380240722B00082C00002024000020AC
:100D90000448054900680968044AC1F38221515C8E
:100DA000C84070472C00002008380240822B000801
:100DB0000448054900680968044AC1F34231515C9E
:100DC000C84070472C00002008380240822B0008E1
:100DD000154810B5006810F00C02144813D04110EB
:100DE000042A0FD0082A0ED10F4C241F2268236832
:100DF00002F03F025B0207D52068C0F38810A0FB19
:100E0000010106E0084610BD2168C1F38811A1FB6D
:100E100000010023FFF73EFA2168C1F30141491C9C
:100E20004900B0FBF1F010BD083802400024F40086
:100E30002DE9F84F04006ED02078DFF84C93C007FE
:100E4000A9F104054AD009F104000168C1F3810148
:100E5000012908D00068C0F3810002280AD1D9F81E
:100E60000000400206D52868800337D56068002856
:100E7000E1D033E06068B0F5803F10D0B0F5A02F2E
:100E8000286810D020F480302860286820F4802062
:100E900028606068A8B1FFF709FE06460DE02868E3
:100EA00040F48030F4E740F480202860F7E700BF8A
:100EB000FFF7FCFD801B642873D828688003F7D5F2
:100EC0000CE0FFF7F3FD064605E000BFFFF7EEFD7F
:100ED000801B6428F0D828688003F7D42078DFF8D6
:100EE000AC8280074FF0000A3ED5A748001D01687C
:100EF00011F00C0F08D00068C0F3810002280BD15C
:100F0000D9F80000400207D42868800716D5E068A9
:100F1000012800D112E033E1E068B8B10120C8F83F
:100F20000000FFF7C3FD064605E000BFFFF7BEFD6A
:100F3000801B0228C0D828688007F7D52868216957
:100F400020F0F80040EAC10028600DE0C8F800A0D9
:100F5000FFF7ACFD064604E0FFF7A8FD801B022862
:100F60001FD828688007F7D42078000722D5864F3D
:100F700087486169703771B101210160FFF796FD03
:100F8000064604E0FFF792FD801B022809D8386866
:100F90008007F7D50EE0C0F800A0FFF787FD0646F2
:100FA00005E082E0FFF782FD801B02287DD83868CB
:100FB0008007F7D42078400768D5DFF8CCB1002748
:100FC0000BF13C0BDBF80000C0000BD4DBF8001089
:100FD00041F08051CBF80010DBF80000012700F051
:100FE000805000906B4E3068C00510D4306840F4DB
:100FF00080703060FFF75AFD009005E0FFF756FD66
:101000000099401A022850D83068C005F6D55E4EC7
:10101000A0686C3601280FD00528306810D020F069
:1010200001003060306820F004003060A068B8B182
:10103000FFF73CFD00900FE0306840F00100F4E75E
:1010400040F004003060F7E7FFF730FD0099411AE7
:1010500041F28830814266D830688007F4D50EE0CE
:10106000FFF724FD009007E0FFF720FD0099411AEB
:1010700041F28830814256D830688007F4D42FB1CD
:10108000DBF8001021F08051CBF80010A069C8B344
:101090003D49091D0968C1F3810102294AD002288E
:1010A000504607D0C8F8600000E03CE0FFF7FEFCC7
:1010B00004463BE04746C8F86000FFF7F7FC0646E9
:1010C00005E000BFFFF7F2FC801B02282BD8286840
:1010D0008001F7D4D4E907010843A16A2E4A4908E0
:1010E00002EB0141626A41EA8211084394F82C1034
:1010F00040EA0161C9F8001001203866FFF7D6FC0C
:10110000044606E03EE000BFFFF7D0FC001B0228CB
:1011100009D828688001F7D534E000BFFFF7C6FC86
:10112000001B022802D90320BDE8F88F286880013F
:10113000F4D427E00128F7D0D9F80000E26900F4E0
:10114000800191421CD1226A00F03F01914217D1E7
:1011500047F6C071626A0140B1EB821F10D1A26AEA
:101160004FF0FF3300F4403103EB5202B1EB024F7A
:1011700006D194F82C1000F07060B0EB016F01D034
:101180000120D1E70020CFE70438024000004742A9
:10119000800E4742007000400000FFFF10B5401E67
:1011A000B0F1807F01D3012010BD4FF0E0246061D9
:1011B0000F21601701F065FC0020A061072020616D
:1011C000002010BD7047704770B590F83C20012A90
:1011D00032D0012480F83C40022280F83D20036890
:1011E0005A689D6822F070060A6832435A60134BB1
:1011F00002689A4214D0B2F1804F11D0104B9A423B
:101200000ED0104B9A420BD00F4B9A4208D00F4B86
:101210009A4205D00E4B9A4202D00E4B9A4204D10C
:10122000496825F080031943916080F83D40002112
:1012300080F83C10084670BD022070BD00000140DF
:101240000004004000080040000C00400004014081
:10125000004001400018004010B5040003D094F88D
:101260003D0010B107E0012010BD002084F83C00D3
:10127000204600F01FF8022084F83D00211D206860
:1012800001F0E2F8012084F8460084F83E0084F87A
:101290003F0084F8400084F8410084F8420084F85C
:1012A000430084F8440084F8450084F83D000020A1
:1012B00010BD000030B587B0044614216846FFF722
:1012C00058F9284A216800242748914235D10168FD
:1012D00041F002010160006800F002000590224820
:1012E0001038016841F001010160016801F001015D
:1012F0000591016841F0040101600068022500F0D9
:101300000400059040200090CDE90154694617483B
:10131000CDE90345FFF7AAFA80200090CDE90154FA
:1013200069461348CDE90345FFF7A0FA00221146AC
:101330001D20FFF729FC1D2010E00E4A91420FD11D
:10134000016841F0040101600068002200F004001F
:10135000059011461E20FFF717FC1E20FFF706FC24
:1013600007B030BD00040040403802400000024099
:10137000000802400008004090F83D10012901D00B
:1013800001207047022180F83D100168CA6842F0D0
:101390000102CA6000681149884214D0B0F1804F40
:1013A00011D00F4988420ED00E4988420BD00E4909
:1013B000884208D00D49884205D00D49884202D0A4
:1013C0000C49884204D1816801F00701062903D045
:1013D000016841F0010101600020704700000140F8
:1013E0000004004000080040000C004000040140E0
:1013F000004001400018004070B5044690F83C00E1
:101400000025012817D0012684F83C60022084F8CA
:101410003D002068826822F0770222F47F428260D9
:101420000868502838D00DDC20284FD005DC90B358
:10143000102811D14AE0022070BD302846D0402843
:101440000AD13BE060282FD070280DD0B0F5805F26
:1014500003D0B0F5005F12D0012584F83D60002074
:1014600084F83C00284670BDCB68D1E90121206892
:1014700001F05BF82068816841F0770109E0CB68F2
:10148000D1E90121206801F050F82068816841F419
:1014900080418160E1E719E0CA684968206801F08D
:1014A00019F95021206806E0CA684968206801F0EF
:1014B00063F96021206801F042F8CEE7CA68496804
:1014C000206801F007F940212068F4E7226801460E
:1014D0001046F0E72DE9F047064600684B4FDFF86D
:1014E00034A14B4D4FF000084FF00109AAF106045A
:1014F000B84228D1307F012825D10021304600F0A4
:101500009FFB2278014650462AF81210012A41D04A
:1015100084F80090286820F480402860286840F013
:1015200001002860286820F080002860FFF730FC68
:10153000410039480068806A401CB1FBF0F0216925
:10154000B0FBF1F060613068B8425DD1307F0228B5
:101550005AD10421304600F073FB2E496278091DF0
:1015600021F81200012A30D084F80190286820F078
:1015700001002860286840F0800028600A88BAF8D6
:10158000003050469A4223D30A8843889A421FD893
:10159000098826E084F80080028843881B492C31A2
:1015A0009A4205D90A6803884088D21A104402E09A
:1015B00042880088101A2061286840F48040286022
:1015C0000868216908442061A8E784F80180CDE714
:1015D0004A8803889A4207D34A8843889A4203D8A4
:1015E00049880088081A608060883A21B0FBF1F1D0
:1015F0004FF4C872A180914200D9A280642148436F
:101600002169B0FBF1F0A061BDE8F0870004004063
:101610001404024006000020300000202DE9F041B3
:10162000054690F83C0000260C46012810D0012009
:1016300085F83C0072B1042A1CD0082A2CD00C2A50
:1016400050D00126002085F83C003046BDE8F081EE
:101650000220FBE7D4E90012E368286801F04CF8A7
:101660002868816921F00C01816128688169A2687C
:1016700011430FE0D4E90012E368286801F08EF806
:101680002868816921F44061816128688169A268C4
:1016900041EA02218161D5E72868D4E9002C277B43
:1016A000016A21F480710162C169036A21F00301BA
:1016B00041EA0C0121F0F00C39074FF420674CEAA5
:1016C000116123F4206307EA02221A43C161026216
:1016D0002868C16921F00C01C1612868C169A2684C
:1016E000114328E02868D4E90027E168036A23F45D
:1016F00080530362D0F81CC0036A2CF4407C4CEA8F
:1017000007274FF6FF7C27F470470CEA0131394375
:101710004FF4204723F4204307EA02321A43C16101
:1017200002622868C16921F44061C1612868C16909
:10173000A26841EA0221C16184E710B5040003D028
:1017400094F83D0010B107E0012010BD002084F89E
:101750003C00204600F01EF8022084F83D00211DC8
:10176000206800F071FE012084F8460084F83E00F5
:1017700084F83F0084F8400084F8410084F8420077
:1017800084F8430084F8440084F8450084F83D0060
:10179000002010BD7047000030B50446002551B14F
:1017A00004290DD0082910D094F8410094F8452060
:1017B000012811D10EE094F83E0094F84220F7E79A
:1017C00094F83F0094F84320F2E794F8400094F82E
:1017D0004420EDE7012A01D0012030BD022059B19B
:1017E000042912D0082919D084F8410084F8450052
:1017F0000C2944D0012540E084F83E0084F84200E2
:101800002068C26842F0020210E084F83F0084F8C9
:1018100043002068C26842F0040207E084F84000F8
:1018200084F844002068C26842F00802C2600122C5
:10183000206800F06DFE14492068884214D0B0F191
:10184000804F11D0114988420ED0114988420BD0E7
:101850001049884208D01049884205D00F49884273
:1018600002D00F49884204D1816801F0070106299E
:1018700003D0016841F001010160284630BD2068B5
:10188000C26842F01002D1E70000014000040040AD
:1018900000080040000C00400004014000400140EE
:1018A0000018004070B50446006801694FF000055B
:1018B000C943890715D4C168C943890711D4E91EF2
:1018C000016101202077206880698007204602D0CE
:1018D000FFF700FE04E000F0EDF8204600F0A0F96C
:1018E000257720680169C943490717D4C168C943EE
:1018F000490713D46FF004010161022020772068AA
:10190000806910F4407F204602D0FFF7E3FD04E039
:1019100000F0D0F8204600F083F9257720680169AF
:10192000C943090716D4C168C943090712D46FF027
:1019300008010161042020772068C06980072046E3
:1019400002D0FFF7C7FD04E000F0B4F8204600F035
:1019500067F9257720680169C943C90617D4C168AA
:10196000C943C90613D46FF0100101610820207724
:101970002068C06910F4407F204602D0FFF7AAFD1E
:1019800004E000F097F8204600F04AF92577206837
:101990000169C943C90708D1C168C943C90704D14E
:1019A000891E0161204600F03DF920680169C943A4
:1019B000090609D4C168C943090605D46FF080013E
:1019C00001612046FFF7FEFB20680169C943490613
:1019D00009D4C168C943490605D46FF040010161CB
:1019E000204600F042F920680169C94389060BD4FA
:1019F000C168C943890607D46FF020010161204600
:101A0000BDE87040FFF7DFBB70BD000010B586B0C9
:101A1000044614216846FEF7ACFD0E492068884252
:101A200015D10D480021026842F0080202600068EA
:101A300000F0080005904FF4805000900220CDE99E
:101A40000101CDE9031069460448FEF70FFF06B017
:101A500010BD00000008004030380240000C024079
:101A600070B5044690F83C00002501280FD00120F5
:101A700084F83C006AB1042A0FD0082A11D00C2A3D
:101A800013D00125002084F83C00284670BD0220B8
:101A900070BD206800F05CFDF4E7206800F088FD70
:101AA000F0E7206800F0BAFDECE7206800F0EAFDFE
:101AB000E8E7000000680449884204D1034801684F
:101AC00021F040010160704700080040140402400A
:101AD00010B5040003D094F83D0010B107E00120D8
:101AE00010BD002084F83C00204600F01EF80220C3
:101AF00084F83D00211D206800F0A6FC012084F838
:101B0000460084F83E0084F83F0084F8400084F8E2
:101B1000410084F8420084F8430084F8440084F8CB
:101B2000450084F83D00002010BD704730B5002509
:101B30000446022249B1042912D008294CD094F855
:101B40004100012853D0012030BD94F83E00012807
:101B5000F9D184F83E202068C26842F0020209E010
:101B600094F83F000128EED184F83F202068C26835
:101B700042F00402C2600122206800F0C9FC214941
:101B80002068214A884201D0904203D1436C43F43B
:101B9000004343642068884213D0B0F1804F10D0D6
:101BA0001A4988420DD01A4988420AD019498842F8
:101BB00007D0904205D01849884202D01749884280
:101BC00004D1816801F00701062903D0016841F0C2
:101BD00001010160284630BD94F840000128B2D1CF
:101BE00084F840202068C26842F00802C2E784F806
:101BF00041200C2901D00125ECE72068C26842F0A1
:101C00001002B7E70000014000040140000400405A
:101C100000080040000C0040004001400018004057
:101C20007047000000680449884204D103480168F5
:101C300041F0400101607047000800401404024078
:101C40000246002041B1042909D008290AD00C29F4
:101C500001D11068006C70471068406B70471068C5
:101C6000806B70471068C06B704770477047704753
:101C7000F8B5016804460868CA684B6910F00F0F90
:101C80004FF0000559D003F0010602F49077374376
:101C900065D0C10705D0D10503D5216C41F0010104
:101CA0002164410705D5D90703D0216C41F0020119
:101CB0002164810705D5D90703D0216C41F00401C7
:101CC0002164010707D502F02001314303D0216CC4
:101CD00041F008012164216C00293AD0800604D526
:101CE000900602D5204600F0A3FD20684069216CD3
:101CF000C0F38010090700D460B3204600F071FDE6
:101D000020684069400621D52068143050E8001F43
:101D100021F0400140E80012002AF5D1A06BA8B1E3
:101D20006C490165A06BFEF77DFD002811D0A06B0A
:101D3000016D01B0BDE8F040084783060FD593065A
:101D40000DD52046BDE8F84000F072BD2046FFF7F3
:101D50008EFFF8BD2046FFF78AFF2564F8BD266B8D
:101D60002023012E79D1C60677D5D60675D5086809
:101D7000486800904869400640D5A16B08684068F3
:101D80000004000CEAD0A28D8242E7D9E085C86940
:101D9000B0F5807F2DD020680C3050E8001F21F472
:101DA000807140E80012002AF5D12068143050E814
:101DB000001F21F0010140E80012002AF5D120683F
:101DC000143050E8001F21F0400140E80012002AC2
:101DD000F5D184F83E30256320680C3050E8001FB0
:101DE00021F0100140E80012002AF5D1A06BFEF7A7
:101DF000D0FCA08DE18D401A81B229E0A08DE18D4B
:101E0000401A81B2E08D0028A8D00029A6D0206811
:101E10000C3050E8002F22F4907240E80026002E8B
:101E2000F5D12068143050E8002F22F0010240E87C
:101E30000026002EF5D184F83E30256320680C3052
:101E400050E8002F22F0100240E80023002BF5D1CB
:101E50002046FFF70BFFF8BDFFE705062BD515065B
:101E600029D594F83D002128F5D1A068B0F5805F10
:101E700001D12069B0B1206A411C2162216800783B
:101E80004860E08C401E0004000CE084E3D1206830
:101E9000C16821F08001C1602068C16841F0400143
:101EA000C160D8E7206A0088C0F308004860206A53
:101EB000801C2062E5E74006CDD55006CBD5CA6828
:101EC000204622F04002CA6084F83D3000F0CFF88E
:101ED000C1E70000D327000870B5040004D094F8CF
:101EE0003D00002510B106E0012070BD84F83C5093
:101EF000204600F023F8242084F83D002068C168C3
:101F000021F40051C160204600F0F2FC2068016914
:101F100021F4904101612068416921F02A01416169
:101F20002068C16841F40051C1602564202084F814
:101F30003D0084F83E00002070BD000010B586B062
:101F4000044614216846FEF714FB184920688842AD
:101F500029D117480021026842F4802202600068FB
:101F600000F48020059012481038026842F0020206
:101F70000260006800F0020005904FF4406000909D
:101F80000220CDE901010320039007200490694657
:101F90000848FEF76BFC002211462720FEF7F4FDEF
:101FA0002720FEF7E3FD06B010BD0000004800400A
:101FB0004038024000040240704700002DE9F84319
:101FC000044690F83D001F4616460D4620284CD189
:101FD000C5B1BEB194F83C00012846D0012084F878
:101FE0003C004FF00008C4F84080212084F83D00F8
:101FF000FEF75CFDA6848146E684A068B0F5805FAC
:1020000003D004E00120BDE8F883206928B12E4602
:102010005FF0000584F83C800EE00026FAE780219E
:10202000204600F0EBFCA0B9AEB116F8010B216818
:102030004860E08C401EE084E08C4B464FF000028C
:1020400000970028EBD14FF04001204600F0D6FC6D
:1020500030B10320D7E735F8020BC0F30800E6E7FC
:10206000202084F83D000020CDE70220CBE7704718
:10207000FEE700002DE9F04F87B014216846FEF717
:1020800078FA57480024016841F0040101600168B2
:1020900001F004010591016841F0800101600168CF
:1020A00001F080010591016841F0010101600168C2
:1020B00001F001010591016841F002010160016830
:1020C00001F002010591016841F008010160016819
:1020D00001F008010591016841F0400101600068CC
:1020E000DFF800B100F0400044F2C1080590002282
:1020F00041465846FEF7D4FC002240213A48FEF7FC
:10210000CFFC4FF400594FF48810CDF80090CDE982
:102110000104DFF8D8A069465046FEF7A7FB32203D
:102120000225CDE9000502AA03260B2782E8D0008C
:1021300069465046FEF79AFB8620CDE9000502AAC3
:10214000DFF8ACA082E8D00069465046FEF78EFB6F
:10215000CDF800804FF00108CDE90184694658466A
:102160000394FEF783FB02AA694682E8D000CDE91A
:1021700000955846FEF77AFB40200090CDE9018497
:10218000694619480394FEF771FB8020CDE90004ED
:10219000694615480294FEF769FB4FF4E850CDE913
:1021A000000502940A20CDE9036069465046FEF717
:1021B0005DFB2802CDE90004694650460294FEF713
:1021C00055FB4FF42050CDE9000502AA694682E88C
:1021D000D0000548FEF74AFB07B0BDE8F08F0000CD
:1021E000303802400004024000180240000802405B
:1021F0000000024010B58AB00024284804940594D9
:102200000694079408940994009401940294224936
:10221000039401605921C0E901144FF6FF71C0E930
:10222000031480218161FFF717F808B1FEF7AFFAB8
:102230004FF48050049004A91848FFF7DDF808B166
:10224000FEF7A5FA1548FFF778FA08B1FEF79FFAEE
:10225000089408A911480994FEF7B6FF08B1FEF7E3
:1022600096FA0120CDE900400294002269460B480D
:102270000394FFF7D3F908B1FEF789FA0220009022
:10228000042269460548FFF7C9F9002801D0FEF786
:102290007EFA0AB010BD00000004004030000020AB
:1022A00010B58EB000240794089409940A940B94F6
:1022B0001C2168460C94FEF75CF91F481D4901601B
:1022C0009521C0E901144EF65F21C0E90314802175
:1022D0008161FEF7C1FF08B1FEF759FA4FF4805053
:1022E000079007A91448FFF787F808B1FEF74FFADF
:1022F0001148FFF7EDFB08B1FEF749FA0B940BA963
:102300000D480C94FEF760FF08B1FEF740FA072075
:10231000CDE9004002940022694607480494FFF783
:102320009FFB08B1FEF733FA0348FFF76FFB0EB0CF
:1023300010BD000000080040780000200C4810B5D7
:102340000A4901604FF4E1314160002181600C22B3
:10235000C160C0E904128161C161FFF7BDFD0028C1
:1023600003D0BDE81040FEF712BA10BD004800408F
:10237000C0000020FEE7FEE770477047FEF79CBBF9
:1023800030B593B030216846FEF7F3F814210CA85D
:10239000FEF7EFF820480025016841F08051016008
:1023A000006800F0805011901C48016841F44041E1
:1023B00001600068022400F4404011900120009068
:1023C0004FF4A02001906005CDE9064008AA042042
:1023D000B42182E813000B906846FEF729FD08B18E
:1023E00072B6FEE7FEF702FC08B172B6FEE70CA972
:1023F0000F2081E831004FF4A0500F904FF480502F
:10240000109005210CA8FEF729FC002801D072B617
:10241000FEE713B030BD00004038024000700040BD
:102420000248016841F470010160704788ED00E0E6
:102430000148FFF737BA0000300000200148FFF7DD
:1024400031BA000078000020F0B50268254C264D16
:10245000264E274F274B4FF0804CA04209D06045B5
:1024600007D0A84205D0B04203D0B84201D098426C
:1024700004D122F0700E4A6842EA0E02A0421BD03C
:10248000604519D0A84217D0B04215D0B84213D039
:10249000984211D0184DA8420ED0184DA8420BD02A
:1024A000174DA84208D0174DA84205D0164DA84296
:1024B00002D0164DA84203D122F44075CA682A43BF
:1024C0004D6922F080022A4302608A68C2620A686B
:1024D0008262A04201D0984201D1096901630121C1
:1024E0004161F0BD000001400004004000080040D0
:1024F000000C004000040140004001400044014045
:102500000048014000180040001C0040002000402E
:1025100010B501F01F030121046A99408C43046245
:10252000016A9A401143016210BD10B5846842EA05
:10253000032224F47F440A432243826010BD826850
:1025400022F070020A4342F00701816070470000E8
:10255000F0B5026A22F001020262036A42688469ED
:10256000124E24F073050C682C4323F002058B688F
:102570002B430D4DA84201D0B04205D123F00807EE
:10258000CB683B4323F00403A84201D0B04205D1FD
:102590004D6922F4407215438A692A43426084617E
:1025A000496841630362F0BD00000140000401403E
:1025B000F0B5026A22F010020262026A436884697E
:1025C0000D6824F4E64444EA05248D6822F02002D4
:1025D00042EA05120F4D104EA84201D0B04206D17A
:1025E000CF6822F0800242EA071222F04002A8429D
:1025F00001D0B04207D14D6923F4406343EA85031B
:102600008D6943EA8503436084614968816302629E
:10261000F0BD00000000014000040140F0B5026A76
:1026200022F480720262026A4368C46922F4007272
:1026300024F073050C68124E2C438D6842EA052283
:102640000E4DA84201D0B04206D1CF6822F40062FC
:1026500042EA072222F48062A84201D0B04207D1A8
:102660004D6923F4405343EA05138D6943EA05138A
:102670004360C4614968C1630262F0BD000001406B
:102680000004014030B5026A22F480520262046AFA
:102690004268C3690D6823F4E64343EA05238D6865
:1026A00024F4005444EA0534084DA84202D0084DF1
:1026B000A84204D14D6922F4804242EA8512426068
:1026C000C36149680164046230BD0000000001403C
:1026D0000004014010B5036A046A24F00104046296
:1026E000846924F0F00444EA021423F00A020A4345
:1026F0008461026210BD000070B5046A24F0010418
:1027000004628469056A154EB04214D0B0F1804F5E
:1027100011D0134EB0420ED0124EB0420BD0124E1A
:10272000B04208D0114EB04205D0114EB04202D096
:10273000104EB04203D124F00304144301E044F0EE
:1027400001041A0724F0F00444EA126225F00A0397
:1027500001F00A0119438261016270BD000001406D
:102760000004004000080040000C0040000401404C
:10277000004001400018004010B5036A23F0100328
:1027800003628369046A23F4704343EA023224F04B
:10279000A00343EA01118261016210BD30B5046AF1
:1027A00024F0100404628469056A24F4407444EA45
:1027B000022222F470444FF6FF7202EA03322243EF
:1027C000A02425F0A00304EA0111194382610162EB
:1027D00030BD10B5806B0021C185C184FFF747FA79
:1027E00010BD01680C3151E8002F22F4907241E8CD
:1027F0000023002BF5D10168143151E8002F22F09D
:10280000010241E80023002BF5D1016B012909D118
:1028100001680C3151E8002F22F0100241E800233A
:10282000002BF5D1202180F83E1000210163704774
:1028300008B590F83E10222901D0022008BD826818
:102840004FF480539A4201D1016921B1816A9A42C1
:102850001BD04AB10AE00268816A5268C2F30802DA
:102860000A80816A891C08E0026972B102685268B4
:1028700002F07F020A70816A491C8162C18D491E83
:102880000904090CC18503D019E002685268F1E718
:102890000168CA6822F02002CA600168CA6822F48E
:1028A0008072CA6001684A6922F001024A612021EF
:1028B00080F83E10016B012903D0FFF77DFB00205B
:1028C00008BD0021016301680C3151E8002F22F09E
:1028D000100241E80023002BF5D101680A68D206F6
:1028E00002D50A6849680091818DFFF7BFF9E6E7D4
:1028F00070B5044600680169E26821F44051114353
:1029000001612169A068E2690843616911430843D4
:102910002168CA6849F20C639A430243CA6020687E
:102920004169A26921F44071114341613149206834
:10293000884202D03049884202D1FEF739FA01E0DC
:10294000FEF726FAE2690023192164253226B2F542
:10295000004F626828D0A0FB0101930F9200FDF7A1
:1029600099FC0146B0FBF5F06FF01802504301EB03
:10297000800006EB0010B0FBF5F000F0F002B1FBB8
:10298000F5F002EB0012B1FBF5F06FF018035843BD
:1029900001EB800006EB0010B0FBF5F000F00F003B
:1029A00021681044886070BDA0FB010192185B4152
:1029B000FDF770FC0146B0FBF5F00201B1FBF5F04C
:1029C0006FF01803584301EB800006EBC000B0FB2A
:1029D000F5F000F0F80002EB4002B1FBF5F05843CF
:1029E00001EB800006EBC000B0FBF5F000F0070043
:1029F000D6E7000000100140001401402DE9F0412D
:102A0000984617460E460446069D27E0681C25D0CA
:102A10002DB1FEF74BF8A0EB0800A8421ED92068A4
:102A20000C3050E8001F21F4D07140E80012002A59
:102A3000F5D12068143050E8001F21F0010140E872
:102A40000012002AF5D1202084F83D0084F83E00D1
:102A5000002084F83C000320BDE8F0812068006875
:102A600036EA000004D00020B842CFD00020F3E7BF
:102A70000120F9E70148FFF7FBB80000C000002083
:102A8000FEE70907090E002804DB00F1E02080F8CA
:102A90000014704700F00F0000F1E02080F8141DD2
:102AA000704730380A2801D2012070470020704753
:102AB00013B54FF6FF73012269460248FFF77EFA0D
:102AC00000981CBDC000002086B0FDF7FDFFFFF799
:102AD00057FCFFF7CFFAFFF78DFBFFF7E1FBFFF79E
:102AE0002DFCFDF731FE1748FEF746FC0021154886
:102AF000FFF71CF800211448FEF74EFE042112488F
:102B0000FEF74AFE11A0FDF73DFC4FF4FA60FDF719
:102B10009BFE134C04F10A06A51D6420FDF794FEEC
:102B200004F11000A38807C80DF1080C01938CE88C
:102B300007006088009033886A8829880948FDF773
:102B400021FCEAE7780000203000002073746172F5
:102B500074207468652070726F6772616D0D0A0071
:102B6000000000208C2B00084FF04070E1EE100AAE
:102B70007047000000000000000001020304060787
:102B80000809000000000102030400005B25356411
:102B90002C202535645D2D253564203D20253564A8
:102BA000203D3E2044697374616E63652025346462
:102BB00020636D7C20706572696F64203A20256403
:102BC000207C2066726571203A2025336420487A83
:102BD0007C2064757479203A2025642025250D0A0F
:102BE00000000000042C000800000020300000005D
:102BF000E8010008342C00083000002038070000ED
:102C000004020008000000000000000000000000B6
:102C100000000000000000000000000000000000B4
:102C20000000000001000000100000000000000093
:042C30000024F40088
:04000005080001AD41
:00000001FF
