:020000040800F2
:10000000080800204D0200084F1F00080D1C0008C2
:100010004D1F000843040008B92500080000000037
:10002000000000000000000000000000531F000856
:10003000D904000800000000511F0008551F0008E7
:1000400067020008670200086702000867020008EC
:1000500067020008670200086702000867020008DC
:1000600067020008670200086702000867020008CC
:1000700067020008670200086702000845040008DC
:1000800051040008670200086702000867020008C0
:10009000670200086702000867020008670200089C
:1000A000670200086702000867020008670200088C
:1000B00067020008092000086702000867020008BC
:1000C000670200086702000867020008670200086C
:1000D000670200086702000867020008AD250008F3
:1000E000670200086702000867020008670200084C
:1000F000670200086702000867020008670200083C
:10010000670200086702000867020008670200082B
:10011000670200086702000867020008670200081B
:10012000670200086702000867020008670200080B
:1001300067020008670200086702000867020008FB
:1001400067020008670200086702000867020008EB
:1001500067020008670200086702000867020008DB
:1001600067020008670200086702000867020008CB
:10017000670200086702000867020008000000002C
:1001800067020008670200086702000867020008AB
:10019000670200086702000867020008670200089B
:1001A00067020008670200086702000800F002F812
:1001B00000F03CF80AA090E8000C82448344AAF1C5
:1001C0000107DA4501D100F031F8AFF2090EBAE8C3
:1001D0000F0013F0010F18BFFB1A43F0010318477B
:1001E0004424000064240000103A24BF78C878C179
:1001F000FAD8520724BF30C830C144BF04680C602D
:10020000704700000023002400250026103A28BF74
:1002100078C1FBD8520728BF30C148BF0B60704778
:100220001FB502F0E9F91FBD10B510BD00F0CFF801
:100230001146FFF7F5FF02F0D0F900F0EDF803B436
:10024000FFF7F2FF03BC00F0F5F800000948804713
:1002500009480047FEE7FEE7FEE7FEE7FEE7FEE7A8
:10026000FEE7FEE7FEE7FEE704480549054A064BC0
:1002700070470000F91F0008AD01000808020020C7
:1002800008080020080400200804002053EA020C9B
:1002900000F069802DE9F04B4FF00006002B1FBFE6
:1002A000B3FA83F503FA05F424FA05F65E4012BFAB
:1002B0001643B2FA82F502FA05F4C5F120051EBF15
:1002C00022FA05FC44EA0C04203556EA044C4FEAB5
:1002D000144418BF641C4FF000084FF0000990420E
:1002E00071EB030C39D3002919BFB1FA81F701FA78
:1002F00007F6B0FA80F700FA07F6C7F120071EBF2D
:1003000020FA07FC46EA0C062037B6FBF4FCA7EB04
:100310000507103F07F01F0BCBF120060CFA0BFB73
:100320002CFA06F644BFB3460026202FA4BF5E4633
:100330004FF0000B5BEA060C08BF4FF0010B19EB06
:100340000B09ABFB027C48EB0608C01B06FB02CC8A
:100350000BFB03CC71EB0C01C1E70B460246414697
:100360004846BDE8F08B13B54FF000004FF0000198
:10037000AFF30080BDE81C4070474FF0000200B5AD
:10038000134694469646203922BFA0E80C50A0E8B8
:100390000C50B1F12001BFF4F7AF090728BFA0E866
:1003A0000C5048BF0CC05DF804EB890028BF40F832
:1003B000042B08BF704748BF20F8022B11F0804F74
:1003C00018BF00F8012B704770477047704775469B
:1003D00000F02CF8AE4605006946534620F00700B1
:1003E000854618B020B5FFF73FFFBDE820404FF02D
:1003F00000064FF000074FF000084FF0000B21F00F
:100400000701AC46ACE8C009ACE8C009ACE8C009DB
:10041000ACE8C0098D46704710B50446AFF30080C4
:100420002046BDE81040FFF70ABF000000487047B3
:10043000A401002001491820ABBEFEE726000200FF
:100440007047FEE7014800F0A5B80000A0000020BA
:10045000014800F09FB80000000100200168182347
:10046000CAB2103AB2FBF3F2054B6FF30901032A4B
:100470009B5CC36500D9091D816508467047000073
:100480000226000810B5014600208B698A6A4FF0E9
:10049000C07453B1B3F5005F15D072B1012A0CD00E
:1004A000022A0AD0032A09D104E01AB1012A06D08F
:1004B000022A03D1C96AC90100D5012010BDC96A49
:1004C000A142FAD010BD002AF7D0012AF2D0022AA8
:1004D000F3D0032AF3D010BD704772B6FEE72DE9C2
:1004E000F0410446876D00F0AFFA064694F83500F7
:1004F0000025022806D08020606584F83450012051
:10050000BDE8F0812068016821F0160101602068D3
:10051000416921F080014161206C08B9A06C20B1D3
:100520002068016821F0080101602068016821F05D
:10053000010101600CE000F087FA801B052807D953
:1005400020206065032084F8350084F83450D7E714
:1005500020680068C007EED194F85C103F20884006
:10056000B860012084F8350084F834500020C7E7D3
:1005700090F83510022903D0802141650120704791
:10058000052180F835100068016821F00101016043
:10059000002070472DE9F84304464FF00009CDF8DC
:1005A000009063484FF41651A56D0068B0FBF1F759
:1005B0002E6894F85C10082000FA01F131420FD047
:1005C00021680A6852070BD50A6822F004020A6003
:1005D00094F85C108840A860606D40F00100606590
:1005E00094F85C104FF0010808FA01F0304208D08E
:1005F00021684969090604D5A860606D40F00200D1
:10060000606594F85C1004208840304208D021686E
:100610000968890704D5A860606D40F00400606532
:1006200094F85C1010208840304218D02168096886
:10063000090714D5A86020680168490304D500683B
:10064000000308D5A16C07E00168C90503D401685F
:1006500021F008010160216C09B12046884794F817
:100660005C1020208840304231D021680968C906DA
:100670002DD5A86094F8350005282068016806D0BB
:10068000490347D5006800031DD4616C1CE021F0CC
:10069000160101602068416921F080014161206CF0
:1006A00008B9A06C20B12068016821F00801016040
:1006B00094F85C103F208840A86084F8358084F866
:1006C0003490216D1FE0E16B09B120468847606DD1
:1006D00000282BD0606DC00714D0052084F83500A9
:1006E0002068016821F0010101600098401C009021
:1006F000B84203D820680068C007F6D184F8358076
:1007000084F83490E16C002910D001B02046BDE897
:10071000F04308470168C905D5D4016821F01001EC
:10072000016084F8358084F83490CCE7BDE8F88324
:100730000C0000202DE9F041044600F085F9064642
:100740005CB1022084F83500002584F8345020681C
:10075000016821F0010101600DE00120BDE8F08198
:1007600000F072F9801B052805D920206065032060
:1007700084F83500F2E720680068C007F0D12268ED
:10078000116820480140D4E901031843D4E9033635
:100790003343184363691843A3691843E369184353
:1007A000236A18430843616A042903D1D4E90B136F
:1007B00019430843106020684069666A20F0070109
:1007C00030460E43012704280CD1A06A0643E06A94
:1007D00040B12046FFF756FE20B14020606584F806
:1007E0003570BAE7206846612046FFF737FE94F877
:1007F0005C203F2191408160656584F83570002060
:10080000ACE700003F8010F02DE9F84FDFF8F8A1C9
:10081000002201240AF1040B03254FF00F090BF10C
:10082000040E00BF0B6804FA02F63340B34270D1E5
:100830000F7907F00307012F01D0022F16D1876827
:100840004FEA420805FA08FC27EA0C07D1F80CC069
:100850000CFA08FC4CEA070CC0F808C04768B7431C
:100860000E79C6F3001696403E4346600E79F64375
:10087000B6070AD0C7684FEA420C05FA0CF6B74330
:100880008E6806FA0CF63E43C6600E7906F0030643
:10089000022E10D1D60800EB8608D8F82060570742
:1008A0004FEAD76C09FA0CF7BE430F6907FA0CF749
:1008B0003743C8F8207006684FEA420C05FA0CF777
:1008C000BE430F7907F0030707FA0CF737430760B9
:1008D0004E6816F4403F1CD04C4E376847F48047B2
:1008E0003760366822F0030706F480460096484ECB
:1008F00007EB060CDCF8086897073F0F09FA07F8C2
:1009000026EA0806DFF80C81404503D14FF00008C5
:1009100041E072E0DFF80081404502D14FF001086C
:1009200039E0DFF8F880404502D14FF0020832E0AC
:10093000DFF8EC80404502D14FF003082BE0DFF8F0
:10094000E480404502D14FF0040824E0DFF8D8806D
:10095000404502D14FF005081DE0DFF8D08040454A
:1009600002D14FF0060816E0DFF8C480404502D1FE
:100970004FF007080FE0DFF8BC80404502D14FF090
:10098000080808E0DFF8B080404502D14FF00908C0
:1009900001E04FF00A0808FA07F848EA0608CCF820
:1009A0000888DAF800605746D1F804C09E435FEA31
:1009B000CC3C00D51E433E60DBF800605F46D1F8BA
:1009C00004C09E435FEA8C3C00D51E433E60DEF8C7
:1009D00000607746D1F804C09E435FEACC2C00D576
:1009E0001E433E60084F0C373E68D1F804C09E435A
:1009F0005FEA8C2C00D51E433E60521C102AFFF487
:100A000011AFBDE8F88F0000003C014044380240BF
:100A10000030014000000240000402400008024093
:100A2000000C024000100240001402400018024076
:100A3000001C024000200240002402400AB18161F3
:100A400070470904FBE70000014880687047000018
:100A500000000020024881680278114481607047DC
:100A6000000000200B4810B5016841F400710160DE
:100A7000016841F480610160016841F480710160A6
:100A8000032000F06FF8002000F006F800F024F8D2
:100A9000002010BD003C024070B50D4D04464FF4DF
:100AA0007A712878B1FBF0F00A490968B1FBF0F0DF
:100AB00000F042FB48B9102C07D200222146501EFC
:100AC00000F030F800206C6070BD012070BD0000A7
:100AD000000000200C0000200A4808B5016841F41D
:100AE00080410160006800F4804000900548001FCC
:100AF000016841F080510160006800F08050009072
:100B000008BD000044380240002809DB00F01F0245
:100B1000012191404009800000F1E020C0F800115F
:100B200070470000F0B40E4B1B680C46C3F3022361
:100B3000C3F10705042D00D90425191D072901D289
:100B4000002300E0DB1E012606FA05F1491E2140C4
:100B500099409E40761E16403143F0BC01F02DBDF9
:100B60000CED00E0064900F0070208684FF6FF03AD
:100B7000184040EA0220034A104308607047000012
:100B80000CED00E00000FA052DE9F8431748016874
:100B900041F0805101600068154F00F0805001263F
:100BA00000903E64FFF750FF05464FF47A78114CF1
:100BB00005E000BFFFF748FF401B40450DD86068C7
:100BC000C003F7D57E64FFF73FFF0546464607E0C2
:100BD000FFF73AFF401BB04202D90320BDE8F8837B
:100BE00060688003F4D50020F8E700004038024038
:100BF00000000E42007000402DE9F0470E4605004F
:100C000065D0DFF81481D8F80000F7B200F00F00CB
:100C1000B04207D288F80070D8F8000000F00F004A
:100C2000B04254D128683D4C810712D5400703D506
:100C3000206840F4E05020602878000703D5206841
:100C400040F4604020602068A96820F0F00008436C
:100C500020602878C0072DD03049686808390128FD
:100C600012D0022813D0032811D00968890700295F
:100C70002DDA216821F0030101432160FFF7E4FE32
:100C8000814641F2883A0EE009688903EFE7096876
:100C90008901ECE7FFF7D8FEA0EB0901514502D925
:100CA0000320BDE8F0872068696800F00C00B0EB15
:100CB000810FEFD1D8F80010404601F00F01B1428A
:100CC00007D90770006800F00F00B04201D0012082
:100CD000E7E72878400705D52068E96820F4E05068
:100CE000084320602878000706D52068296920F489
:100CF000604040EAC100206000F038F82168084AEE
:100D0000C1F30311515CC8400649086006480068F9
:100D1000FFF7C2FE0020C4E7003C02400838024052
:100D20000A2600080C0000200400002004480549A1
:100D300000680968044AC1F38221515CC8407047C9
:100D40000C000020083802401A2600080448054913
:100D500000680968044AC1F34231515CC8407047D9
:100D60000C000020083802401A260008154810B56B
:100D7000006810F00C02144813D04110042A0FD060
:100D8000082A0ED10F4C241F2268236802F03F026C
:100D90005B0207D52068C0F38810A0FB010106E0C4
:100DA000084610BD2168C1F38811A1FB0001002392
:100DB000FFF76CFA2168C1F30141491C4900B0FBFF
:100DC000F1F010BD083802400024F4002DE9F84F7E
:100DD00004006ED02078DFF84C93C007A9F1040519
:100DE0004AD009F104000168C1F38101012908D04A
:100DF0000068C0F3810002280AD1D9F8000040023F
:100E000006D52868800337D560680028E1D033E034
:100E10006068B0F5803F10D0B0F5A02F286810D0E2
:100E200020F480302860286820F4802028606068E2
:100E3000A8B1FFF709FE06460DE0286840F48030AF
:100E4000F4E740F480202860F7E700BFFFF7FCFDDF
:100E5000801B642873D828688003F7D50CE0FFF75F
:100E6000F3FD064605E000BFFFF7EEFD801B64289A
:100E7000F0D828688003F7D42078DFF8AC828007A8
:100E80004FF0000A3ED5A748001D016811F00C0F75
:100E900008D00068C0F3810002280BD1D9F8000007
:100EA000400207D42868800716D5E068012800D1E1
:100EB00012E033E1E068B8B10120C8F80000FFF7A4
:100EC000C3FD064605E000BFFFF7BEFD801B0228FC
:100ED000C0D828688007F7D52868216920F0F80075
:100EE00040EAC10028600DE0C8F800A0FFF7ACFDA3
:100EF000064604E0FFF7A8FD801B02281FD82868DB
:100F00008007F7D42078000722D5864F874861698B
:100F1000703771B101210160FFF796FD064604E0CC
:100F2000FFF792FD801B022809D838688007F7D5A3
:100F30000EE0C0F800A0FFF787FD064605E082E05E
:100F4000FFF782FD801B02287DD838688007F7D420
:100F50002078400768D5DFF8CCB100270BF13C0BB7
:100F6000DBF80000C0000BD4DBF8001041F080512A
:100F7000CBF80010DBF80000012700F08050009053
:100F80006B4E3068C00510D4306840F4807030601B
:100F9000FFF75AFD009005E0FFF756FD0099401A53
:100FA000022850D83068C005F6D55E4EA0686C3671
:100FB00001280FD00528306810D020F001003060E3
:100FC000306820F004003060A068B8B1FFF73CFD45
:100FD00000900FE0306840F00100F4E740F00400BA
:100FE0003060F7E7FFF730FD0099411A41F2883091
:100FF000814266D830688007F4D50EE0FFF724FD03
:10100000009007E0FFF720FD0099411A41F2883077
:10101000814256D830688007F4D42FB1DBF8001035
:1010200021F08051CBF80010A069C8B33D49091DDB
:101030000968C1F3810102294AD00228504607D02D
:10104000C8F8600000E03CE0FFF7FEFC04463BE02F
:101050004746C8F86000FFF7F7FC064605E000BF0A
:10106000FFF7F2FC801B02282BD828688001F7D4F8
:10107000D4E907010843A16A2E4A490802EB01415D
:10108000626A41EA8211084394F82C1040EA016137
:10109000C9F8001001203866FFF7D6FC044606E0C8
:1010A0003EE000BFFFF7D0FC001B022809D82868EB
:1010B0008001F7D534E000BFFFF7C6FC001B022813
:1010C00002D90320BDE8F88F28688001F4D427E016
:1010D0000128F7D0D9F80000E26900F480019142BC
:1010E0001CD1226A00F03F01914217D147F6C0712E
:1010F000626A0140B1EB821F10D1A26A4FF0FF3348
:1011000000F4403103EB5202B1EB024F06D194F8E8
:101110002C1000F07060B0EB016F01D00120D1E71E
:101120000020CFE70438024000004742800E4742CB
:10113000007000400000FFFF10B5401EB0F1807F3E
:1011400001D3012010BD4FF0E02460610F21601732
:1011500001F033FA0020A06107202061002010BDBB
:101160007047704770B590F83C20012A32D00124B6
:1011700080F83C40022280F83D2003685A689D6850
:1011800022F070060A6832435A60134B02689A4292
:1011900014D0B2F1804F11D0104B9A420ED0104BA8
:1011A0009A420BD00F4B9A4208D00F4B9A4205D06F
:1011B0000E4B9A4202D00E4B9A4204D1496825F058
:1011C00080031943916080F83D40002180F83C1075
:1011D000084670BD022070BD0000014000040040C0
:1011E00000080040000C00400004014000400140A5
:1011F0000018004010B5040003D094F83D0010B171
:1012000007E0012010BD002084F83C00204600F0DB
:101210001FF8022084F83D00211D206800F0FAFE2E
:10122000012084F8460084F83E0084F83F0084F8EA
:10123000400084F8410084F8420084F8430084F8B8
:10124000440084F8450084F83D00002010BD0000F3
:101250002DE9F04F87B0064614216846FFF78DF858
:101260003E4A31683E48002591426AD1016841F00A
:1012700002010160006800F0020005903848103853
:10128000016841F001010160016801F0010105916F
:10129000016841F0040101600068022400F00400CC
:1012A000059040208DE83100CDE9035469462D4872
:1012B000FFF7AAFA80208DE83100CDE90354694692
:1012C0002948FFF7A1FA2A4C28484FF020672060F0
:1012D000C4E9017504F10C014FF480684FF4006912
:1012E0004FF4005A4FF4807B81E8200F256220469E
:1012F0006562FFF71FFA08B1FFF7EFF87462B46395
:10130000A6631B4C1948603418302060C4E901758D
:1013100004F10C01204681E8200F25626562FFF789
:1013200009FA08B1FFF7D9F8B462002211461D206E
:10133000A663FFF7F7FB1D20FFF7E6FB07B0BDE84C
:10134000F08F0C4A9142F9D1016841F0040101602B
:10135000006800F004000590F0E700000004004081
:101360004038024000000240000802407060024025
:10137000A00000200008004070B5044690F83C0032
:101380000025012817D0012684F83C60022084F84B
:101390003D002068826822F0770222F47F4282605A
:1013A0000868502838D00DDC20284FD005DC90B3D9
:1013B000102811D14AE0022070BD302846D04028C4
:1013C0000AD13BE060282FD070280DD0B0F5805FA7
:1013D00003D0B0F5005F12D0012584F83D600020F5
:1013E00084F83C00284670BDCB68D1E90121206813
:1013F00000F074FE2068816841F0770109E0CB6855
:10140000D1E90121206800F069FE2068816841F47B
:1014100080418160E1E719E0CA684968206800F00E
:1014200031FF5021206806E0CA684968206800F052
:101430007BFF6021206800F05BFECEE7CA68496848
:10144000206800F01FFF40212068F4E72268014671
:101450001046F0E770472DE9F041054690F83C0052
:1014600000260C46012810D0012085F83C0072B1FE
:10147000042A1CD0082A2CD00C2A50D00126002087
:1014800085F83C003046BDE8F0810220FBE7D4E956
:101490000012E368286800F007FF2868816921F0DE
:1014A0000C01816128688169A26811430FE0D4E9C9
:1014B0000012E368286800F049FF2868816921F478
:1014C0004061816128688169A26841EA02218161E5
:1014D000D5E72868D4E9002C277B016A21F48071C4
:1014E0000162C169036A21F0030141EA0C0121F0A4
:1014F000F00C39074FF420674CEA116123F42063A4
:1015000007EA02221A43C16102622868C16921F018
:101510000C01C1612868C169A268114328E02868EC
:10152000D4E90027E168036A23F480530362D0F80A
:101530001CC0036A2CF4407C4CEA07274FF6FF7C62
:1015400027F470470CEA013139434FF4204723F464
:10155000204307EA02321A43C16102622868C16966
:1015600021F44061C1612868C169A26841EA022191
:10157000C16184E710B5040003D094F83D0010B1B8
:1015800007E0012010BD002084F83C00204600F058
:101590001EF8022084F83D00211D206800F03AFD6D
:1015A000012084F8460084F83E0084F83F0084F867
:1015B000400084F8410084F8420084F8430084F835
:1015C000440084F8450084F83D00002010BD7047B9
:1015D00070B50446006801694FF00005C9438907EA
:1015E00015D4C168C943890711D4E91E01610120DE
:1015F0002077206880698007204602D0FFF72AFF05
:1016000004E000F0C3F8204600F055F92577206883
:101610000169C943490717D4C168C943490713D4AD
:101620006FF004010161022020772068806910F4C6
:10163000407F204602D0FFF70DFF04E000F0A6F83F
:10164000204600F038F9257720680169C943090769
:1016500016D4C168C943090712D46FF008010161AB
:10166000042020772068C0698007204602D0FFF759
:10167000F1FE04E000F08AF8204600F01CF925771E
:1016800020680169C943C90617D4C168C943C9069E
:1016900013D46FF010010161082020772068C06921
:1016A00010F4407F204602D0FFF7D4FE04E000F0A3
:1016B0006DF8204600F0FFF8257720680169C943DE
:1016C000C90708D1C168C943C90704D1891E01618E
:1016D000204600F0F1F820680169C943090609D4E1
:1016E000C168C943090605D46FF080010161204635
:1016F000FFF736FD20680169C943490609D4C1686E
:10170000C943490605D46FF040010161204600F04D
:10171000D4F820680169C94389060BD4C168C9435C
:10172000890607D46FF0200101612046BDE87040B2
:10173000FFF717BD70BD000010B586B00446142138
:101740006846FEF71AFE0E492068884215D10D48FA
:101750000021026842F008020260006800F0080000
:1017600005904FF4805000900220CDE90101CDE9B1
:10177000031069460448FFF747F806B010BD0000A3
:101780000008004030380240000C0240704770B53D
:10179000044690F83C0000260D4601280FD0012099
:1017A00084F83C006AB1042A1DD0082A2FD00C2AE4
:1017B0003FD00126002084F83C00304670BD022056
:1017C00070BD206800F09CFC2068816941F0080130
:1017D00081612068816921F004018161206881694B
:1017E0002A69114311E0206800F0BAFC2068816981
:1017F00041F4006181612068816921F48061816127
:10180000206881692A6941EA02218161D2E7206862
:1018100000F0DCFC2068C16941F00801C16120686A
:10182000C16921F00401C1612068C1692A691143BD
:1018300011E0206800F0FEFC2068C16941F40061FD
:10184000C1612068C16921F48061C1612068C169FA
:101850002A6941EA0221C161ACE710B5040003D056
:1018600094F83D0010B107E0012010BD002084F87D
:101870003C00204600F01EF8022084F83D00211DA7
:10188000206800F0C7FB012084F8460084F83E0081
:1018900084F83F0084F8400084F8410084F8420056
:1018A00084F8430084F8440084F8450084F83D003F
:1018B000002010BD704770477047704770477047F1
:1018C000F8B5016804460868CA684B6910F00F0F44
:1018D0004FF0000559D003F0010602F4907737432A
:1018E00065D0C10705D0D10503D5216C41F00101B8
:1018F0002164410705D5D90703D0216C41F00201CD
:101900002164810705D5D90703D0216C41F004017A
:101910002164010707D502F02001314303D0216C77
:1019200041F008012164216C00293AD0800604D5D9
:10193000900602D5204600F053FD20684069216CD6
:10194000C0F38010090700D460B3204600F021FDE9
:1019500020684069400621D52068143050E8001FF7
:1019600021F0400140E80012002AF5D1A06BA8B197
:101970006C490165A06BFEF7FBFD002811D0A06B40
:10198000016D01B0BDE8F040084783060FD593060E
:101990000DD52046BDE8F84000F022BD2046FFF7F7
:1019A0008EFFF8BD2046FFF78AFF2564F8BD266B41
:1019B0002023012E79D1C60677D5D60675D50868BD
:1019C000486800904869400640D5A16B08684068A7
:1019D0000004000CEAD0A28D8242E7D9E085C869F4
:1019E000B0F5807F2DD020680C3050E8001F21F426
:1019F000807140E80012002AF5D12068143050E8C8
:101A0000001F21F0010140E80012002AF5D12068F2
:101A1000143050E8001F21F0400140E80012002A75
:101A2000F5D184F83E30256320680C3050E8001F63
:101A300021F0100140E80012002AF5D1A06BFEF75A
:101A40004EFDA08DE18D401A81B229E0A08DE18D7F
:101A5000401A81B2E08D0028A8D00029A6D02068C5
:101A60000C3050E8002F22F4907240E80026002E3F
:101A7000F5D12068143050E8002F22F0010240E830
:101A80000026002EF5D184F83E30256320680C3006
:101A900050E8002F22F0100240E80023002BF5D17F
:101AA0002046FFF70BFFF8BDFFE705062BD515060F
:101AB00029D594F83D002128F5D1A068B0F5805FC4
:101AC00001D12069B0B1206A411C216221680078EF
:101AD0004860E08C401E0004000CE084E3D12068E4
:101AE000C16821F08001C1602068C16841F04001F7
:101AF000C160D8E7206A0088C0F308004860206A07
:101B0000801C2062E5E74006CDD55006CBD5CA68DB
:101B1000204622F04002CA6084F83D3000F075F89B
:101B2000C1E700008323000870B5040004D094F8D6
:101B30003D00002510B106E0012070BD84F83C5046
:101B4000204600F023F8242084F83D002068C16876
:101B500021F40051C160204600F0A2FC2068016918
:101B600021F4904101612068416921F02A0141611D
:101B70002068C16841F40051C1602564202084F8C8
:101B80003D0084F83E00002070BD000010B586B016
:101B9000044614216846FEF7F0FB18492068884285
:101BA00029D117480021026842F4802202600068AF
:101BB00000F48020059012481038026842F00802B4
:101BC0000260006800F0080005904FF4407000903B
:101BD0000220CDE90101032003900720049069460B
:101BE0000848FEF711FE002211462720FEF79AFF53
:101BF0002720FEF789FF06B010BD00000048004016
:101C000040380240000C024070477047FEE7000079
:101C10000D4808B5016841F4001101600068002218
:101C200000F40010009011460F20FEF77BFF0F20FC
:101C3000FEF76AFF002211461020FEF773FFBDE891
:101C400008401020FEF760BF303802402DE9F04F09
:101C500087B014216846FEF790FB574800240168BE
:101C600041F004010160016801F00401059101687F
:101C700041F080010160016801F080010591016877
:101C800041F001010160016801F001010591016865
:101C900041F002010160016801F002010591016853
:101CA00041F008010160016801F008010591016837
:101CB00041F0400101600068DFF800B100F0400031
:101CC00044F2C1080590002241465846FEF7B6FE90
:101CD000002240213A48FEF7B1FE4FF400594FF47C
:101CE0008810CDF80090CDE90104DFF8D8A069464E
:101CF0005046FEF789FD32200225CDE9000502AAF3
:101D000003260B2782E8D00069465046FEF77CFD8B
:101D10008620CDE9000502AADFF8ACA082E8D00059
:101D200069465046FEF770FDCDF800804FF001087F
:101D3000CDE90184694658460394FEF765FD02AA81
:101D4000694682E8D000CDE900955846FEF75CFD73
:101D500040200090CDE90184694619480394FEF7BC
:101D600053FD8020CDE90004694615480294FEF732
:101D70004BFD4FF4E850CDE9000502940A20CDE96F
:101D8000036069465046FEF73FFD2802CDE9000496
:101D9000694650460294FEF737FD4FF42050CDE9D6
:101DA000000502AA694682E8D0000548FEF72CFD2E
:101DB00007B0BDE8F08F0000303802400004024058
:101DC00000180240000802400000024010B58AB02E
:101DD00000242848049405940694079408940994D0
:101DE0000094019402942249039401603121C0E9D6
:101DF00001144EF65F21C0E903148461FFF7FAF97C
:101E000008B1FEF76AFB4FF48050049004A919480A
:101E1000FFF7B2FA08B1FEF760FB1648FFF7AAFB1E
:101E200008B1FEF75AFB089408A912480994FFF775
:101E300099F908B1FEF751FB0120CDE900400F20D0
:101E4000CDE90240002269460A48FFF704FB08B1C9
:101E5000FEF743FB02200090042269460548FFF785
:101E6000FAFA002801D0FEF738FB0AB010BD0000D6
:101E7000000400401000002010B58EB0002407942C
:101E8000089409940A940B941C2168460C94FEF75C
:101E900074FA1F481D4901604A21C0E901144EF639
:101EA0005F21C0E903148461FFF7A4F908B1FEF7CC
:101EB00014FB4FF48050079007A91548FFF75CFA10
:101EC00008B1FEF70AFB1248FFF7C7FC08B1FEF79E
:101ED00004FB0B940BA90E480C94FFF743F908B1CF
:101EE000FEF7FBFA6020009047F22F50CDE9010485
:101EF0000022694606480494FFF749FC08B1FEF742
:101F0000ECFA0348FFF718FC0EB010BD00080040C3
:101F1000580000200C4810B50A4901604FF4E13127
:101F20004160002181600C22C160C0E9041281611E
:101F3000C161FFF7F9FD002803D0BDE81040FEF7AE
:101F4000CCBA10BD0048004060010020FEE7FEE76B
:101F500070477047FEF77EBD30B593B030216846BC
:101F6000FEF70BFA14210CA8FEF707FA204800250B
:101F7000016841F080510160006800F080501190CC
:101F80001C48016841F4404101600068022400F4EB
:101F900040401190012000904FF4A0200190600576
:101FA000CDE9064008AA0420B42182E813000B9072
:101FB0006846FEF70BFF08B172B6FEE7FEF7E4FDD8
:101FC00008B172B6FEE70CA90F2081E831004FF48A
:101FD000A0500F904FF48050109005210CA8FEF7F0
:101FE0000BFE002801D072B6FEE713B030BD000032
:101FF00040380240007000400248016841F470011E
:102000000160704788ED00E00148FFF7E1BA000089
:1020100010000020F0B50268254C264D264E274FB3
:10202000274B4FF0804CA04209D0604507D0A84212
:1020300005D0B04203D0B84201D0984204D122F07A
:10204000700E4A6842EA0E02A0421BD0604519D0C9
:10205000A84217D0B04215D0B84213D0984211D040
:10206000184DA8420ED0184DA8420BD0174DA842CB
:1020700008D0174DA84205D0164DA84202D0164DE3
:10208000A84203D122F44075CA682A434D6922F060
:1020900080022A4302608A68C2620A688262A042A1
:1020A00001D0984201D10969016301214161F0BD6C
:1020B000000001400004004000080040000C004007
:1020C000000401400040014000440140004801403C
:1020D00000180040001C00400020004010B584683B
:1020E00042EA032224F47F440A432243826010BD63
:1020F000826822F070020A4342F007018160704753
:10210000F0B5026A22F001020262036A4268846941
:10211000124E24F073050C682C4323F002058B68E3
:102120002B430D4DA84201D0B04205D123F0080742
:10213000CB683B4323F00403A84201D0B04205D151
:102140004D6922F4407215438A692A4342608461D2
:10215000496841630362F0BD000001400004014092
:10216000F0B5026A22F010020262026A43688469D2
:102170000D6824F4E64444EA05248D6822F0200228
:1021800042EA05120F4D104EA84201D0B04206D1CE
:10219000CF6822F0800242EA071222F04002A842F1
:1021A00001D0B04207D14D6923F4406343EA85036F
:1021B0008D6943EA850343608461496881630262F3
:1021C000F0BD00000000014000040140F0B5026ACB
:1021D00022F480720262026A4368C46922F40072C7
:1021E00024F073050C68124E2C438D6842EA0522D8
:1021F0000E4DA84201D0B04206D1CF6822F4006251
:1022000042EA072222F48062A84201D0B04207D1FC
:102210004D6923F4405343EA05138D6943EA0513DE
:102220004360C4614968C1630262F0BD00000140BF
:102230000004014030B5026A22F480520262046A4E
:102240004268C3690D6823F4E64343EA05238D68B9
:1022500024F4005444EA0534084DA84202D0084D45
:10226000A84204D14D6922F4804242EA85124260BC
:10227000C36149680164046230BD00000000014090
:102280000004014010B5036A046A24F001040462EA
:10229000846924F0F00444EA021423F00A020A4399
:1022A0008461026210BD000070B5046A24F001046C
:1022B00004628469056A154EB04214D0B0F1804FB3
:1022C00011D0134EB0420ED0124EB0420BD0124E6F
:1022D000B04208D0114EB04205D0114EB04202D0EB
:1022E000104EB04203D124F00304144301E044F043
:1022F00001041A0724F0F00444EA126225F00A03EC
:1023000001F00A0119438261016270BD00000140C1
:102310000004004000080040000C004000040140A0
:10232000004001400018004010B5036A23F010037C
:1023300003628369046A23F4704343EA023224F09F
:10234000A00343EA01118261016210BD30B5046A45
:1023500024F0100404628469056A24F4407444EA99
:10236000022222F470444FF6FF7202EA0332224343
:10237000A02425F0A00304EA01111943826101623F
:1023800030BD10B5806B0021C185C184FFF797FA7D
:1023900010BD01680C3151E8002F22F4907241E821
:1023A0000023002BF5D10168143151E8002F22F0F1
:1023B000010241E80023002BF5D1016B012909D16D
:1023C00001680C3151E8002F22F0100241E800238F
:1023D000002BF5D1202180F83E10002101637047C9
:1023E00008B590F83E10222901D0022008BD82686D
:1023F0004FF480539A4201D1016921B1816A9A4216
:102400001BD04AB10AE00268816A5268C2F308022E
:102410000A80816A891C08E0026972B10268526808
:1024200002F07F020A70816A491C8162C18D491ED7
:102430000904090CC18503D019E002685268F1E76C
:102440000168CA6822F02002CA600168CA6822F4E2
:102450008072CA6001684A6922F001024A61202143
:1024600080F83E10016B012903D0FFF7CDFB00205F
:1024700008BD0021016301680C3151E8002F22F0F2
:10248000100241E80023002BF5D101680A68D2064A
:1024900002D50A6849680091818DFFF70FFAE6E7D7
:1024A00070B5044600680169E26821F440511143A7
:1024B00001612169A068E269084361691143084329
:1024C0002168CA6849F20C639A430243CA602068D3
:1024D0004169A26921F44071114341613149206889
:1024E000884202D03049884202D1FEF72FFC01E039
:1024F000FEF71CFCE2690023192164253226B2F59F
:10250000004F626828D0A0FB0101930F9200FDF7F5
:10251000BDFE0146B0FBF5F06FF01802504301EB31
:10252000800006EB0010B0FBF5F000F0F002B1FB0C
:10253000F5F002EB0012B1FBF5F06FF01803584311
:1025400001EB800006EB0010B0FBF5F000F00F008F
:1025500021681044886070BDA0FB010192185B41A6
:10256000FDF794FE0146B0FBF5F00201B1FBF5F07A
:102570006FF01803584301EB800006EBC000B0FB7E
:10258000F5F000F0F80002EB4002B1FBF5F0584323
:1025900001EB800006EBC000B0FBF5F000F0070097
:1025A000D6E7000000100140001401400148FFF789
:1025B00087B9000060010020FEE70907090E002826
:1025C00004DB00F1E02080F80014704700F00F00F9
:1025D00000F1E02080F8141D7047FEF743FAFFF782
:1025E000BBFCFFF733FBFFF7F1FBFFF711FBFFF736
:1025F00043FCFFF78FFCFEE74FF04070E1EE100A5E
:1026000070470006101600061016000000000000BB
:10261000000001020304060708090000000001028F
:102620000304000044260008000000201000000001
:10263000E80100085426000810000020F8070000F8
:10264000040200080100000010000000000000006B
:042650000024F4006E
:04000005080001AD41
:00000001FF
